{
    "_format": "hh-sol-artifact-1",
    "contractName": "Score",
    "sourceName": "contracts/Score.sol",
    "abi": [
        {
            "inputs": [],
            "stateMutability": "nonpayable",
            "type": "constructor"
        },
        {
            "anonymous": false,
            "inputs": [
                {
                    "indexed": true,
                    "internalType": "uint256",
                    "name": "id",
                    "type": "uint256"
                },
                {
                    "indexed": true,
                    "internalType": "address",
                    "name": "applicant",
                    "type": "address"
                }
            ],
            "name": "ApplicationAccepted",
            "type": "event"
        },
        {
            "anonymous": false,
            "inputs": [
                {
                    "indexed": true,
                    "internalType": "uint256",
                    "name": "id",
                    "type": "uint256"
                }
            ],
            "name": "ContractCreated",
            "type": "event"
        },
        {
            "anonymous": false,
            "inputs": [
                {
                    "indexed": true,
                    "internalType": "uint256",
                    "name": "id",
                    "type": "uint256"
                },
                {
                    "indexed": true,
                    "internalType": "address",
                    "name": "tenant",
                    "type": "address"
                }
            ],
            "name": "ContractLocked",
            "type": "event"
        },
        {
            "anonymous": false,
            "inputs": [
                {
                    "indexed": true,
                    "internalType": "uint256",
                    "name": "id",
                    "type": "uint256"
                },
                {
                    "indexed": true,
                    "internalType": "address",
                    "name": "owner",
                    "type": "address"
                },
                {
                    "indexed": true,
                    "internalType": "address",
                    "name": "tenant",
                    "type": "address"
                }
            ],
            "name": "DepositReceived",
            "type": "event"
        },
        {
            "inputs": [
                {
                    "internalType": "uint256",
                    "name": "contractId",
                    "type": "uint256"
                },
                {
                    "internalType": "address",
                    "name": "_address",
                    "type": "address"
                }
            ],
            "name": "acceptApplicant",
            "outputs": [],
            "stateMutability": "nonpayable",
            "type": "function"
        },
        {
            "inputs": [
                {
                    "internalType": "uint256",
                    "name": "startDate",
                    "type": "uint256"
                },
                {
                    "internalType": "uint256",
                    "name": "endDate",
                    "type": "uint256"
                },
                {
                    "internalType": "string",
                    "name": "location",
                    "type": "string"
                },
                {
                    "internalType": "uint256",
                    "name": "price",
                    "type": "uint256"
                }
            ],
            "name": "addContract",
            "outputs": [],
            "stateMutability": "nonpayable",
            "type": "function"
        },
        {
            "inputs": [
                {
                    "components": [
                        {
                            "internalType": "uint256",
                            "name": "contractId",
                            "type": "uint256"
                        },
                        {
                            "internalType": "uint256",
                            "name": "startDate",
                            "type": "uint256"
                        },
                        {
                            "internalType": "uint256",
                            "name": "endDate",
                            "type": "uint256"
                        },
                        {
                            "internalType": "address",
                            "name": "owner",
                            "type": "address"
                        },
                        {
                            "internalType": "address",
                            "name": "tenant",
                            "type": "address"
                        },
                        {
                            "internalType": "string",
                            "name": "location",
                            "type": "string"
                        },
                        {
                            "internalType": "enum IRent.State",
                            "name": "state",
                            "type": "uint8"
                        },
                        {
                            "internalType": "uint256",
                            "name": "price",
                            "type": "uint256"
                        }
                    ],
                    "internalType": "struct IRent.Contract[]",
                    "name": "_contracts",
                    "type": "tuple[]"
                }
            ],
            "name": "addContracts",
            "outputs": [],
            "stateMutability": "nonpayable",
            "type": "function"
        },
        {
            "inputs": [
                {
                    "internalType": "uint256",
                    "name": "_contractId",
                    "type": "uint256"
                },
                {
                    "internalType": "uint256",
                    "name": "_star",
                    "type": "uint256"
                },
                {
                    "internalType": "string",
                    "name": "_review",
                    "type": "string"
                }
            ],
            "name": "addReview",
            "outputs": [],
            "stateMutability": "nonpayable",
            "type": "function"
        },
        {
            "inputs": [
                {
                    "internalType": "uint256",
                    "name": "contractId",
                    "type": "uint256"
                }
            ],
            "name": "applyForContract",
            "outputs": [],
            "stateMutability": "nonpayable",
            "type": "function"
        },
        {
            "inputs": [
                {
                    "internalType": "address",
                    "name": "_address",
                    "type": "address"
                }
            ],
            "name": "calculateOwnerScore",
            "outputs": [
                {
                    "internalType": "uint256",
                    "name": "",
                    "type": "uint256"
                }
            ],
            "stateMutability": "nonpayable",
            "type": "function"
        },
        {
            "inputs": [
                {
                    "internalType": "address",
                    "name": "_address",
                    "type": "address"
                }
            ],
            "name": "calculateTenantScore",
            "outputs": [
                {
                    "internalType": "uint256",
                    "name": "",
                    "type": "uint256"
                }
            ],
            "stateMutability": "nonpayable",
            "type": "function"
        },
        {
            "inputs": [
                {
                    "internalType": "uint256",
                    "name": "contractId",
                    "type": "uint256"
                }
            ],
            "name": "getApplicants",
            "outputs": [
                {
                    "internalType": "address[]",
                    "name": "",
                    "type": "address[]"
                }
            ],
            "stateMutability": "view",
            "type": "function"
        },
        {
            "inputs": [
                {
                    "internalType": "uint256",
                    "name": "id",
                    "type": "uint256"
                }
            ],
            "name": "getContractById",
            "outputs": [
                {
                    "components": [
                        {
                            "internalType": "uint256",
                            "name": "contractId",
                            "type": "uint256"
                        },
                        {
                            "internalType": "uint256",
                            "name": "startDate",
                            "type": "uint256"
                        },
                        {
                            "internalType": "uint256",
                            "name": "endDate",
                            "type": "uint256"
                        },
                        {
                            "internalType": "address",
                            "name": "owner",
                            "type": "address"
                        },
                        {
                            "internalType": "address",
                            "name": "tenant",
                            "type": "address"
                        },
                        {
                            "internalType": "string",
                            "name": "location",
                            "type": "string"
                        },
                        {
                            "internalType": "enum IRent.State",
                            "name": "state",
                            "type": "uint8"
                        },
                        {
                            "internalType": "uint256",
                            "name": "price",
                            "type": "uint256"
                        }
                    ],
                    "internalType": "struct IRent.Contract",
                    "name": "",
                    "type": "tuple"
                }
            ],
            "stateMutability": "view",
            "type": "function"
        },
        {
            "inputs": [
                {
                    "internalType": "address",
                    "name": "_address",
                    "type": "address"
                }
            ],
            "name": "getContractsByAddress",
            "outputs": [
                {
                    "components": [
                        {
                            "internalType": "uint256",
                            "name": "contractId",
                            "type": "uint256"
                        },
                        {
                            "internalType": "uint256",
                            "name": "startDate",
                            "type": "uint256"
                        },
                        {
                            "internalType": "uint256",
                            "name": "endDate",
                            "type": "uint256"
                        },
                        {
                            "internalType": "address",
                            "name": "owner",
                            "type": "address"
                        },
                        {
                            "internalType": "address",
                            "name": "tenant",
                            "type": "address"
                        },
                        {
                            "internalType": "string",
                            "name": "location",
                            "type": "string"
                        },
                        {
                            "internalType": "enum IRent.State",
                            "name": "state",
                            "type": "uint8"
                        },
                        {
                            "internalType": "uint256",
                            "name": "price",
                            "type": "uint256"
                        }
                    ],
                    "internalType": "struct IRent.Contract[]",
                    "name": "",
                    "type": "tuple[]"
                }
            ],
            "stateMutability": "view",
            "type": "function"
        },
        {
            "inputs": [
                {
                    "internalType": "enum IRent.State",
                    "name": "state",
                    "type": "uint8"
                }
            ],
            "name": "getContractsByState",
            "outputs": [
                {
                    "components": [
                        {
                            "internalType": "uint256",
                            "name": "contractId",
                            "type": "uint256"
                        },
                        {
                            "internalType": "uint256",
                            "name": "startDate",
                            "type": "uint256"
                        },
                        {
                            "internalType": "uint256",
                            "name": "endDate",
                            "type": "uint256"
                        },
                        {
                            "internalType": "address",
                            "name": "owner",
                            "type": "address"
                        },
                        {
                            "internalType": "address",
                            "name": "tenant",
                            "type": "address"
                        },
                        {
                            "internalType": "string",
                            "name": "location",
                            "type": "string"
                        },
                        {
                            "internalType": "enum IRent.State",
                            "name": "state",
                            "type": "uint8"
                        },
                        {
                            "internalType": "uint256",
                            "name": "price",
                            "type": "uint256"
                        }
                    ],
                    "internalType": "struct IRent.Contract[]",
                    "name": "",
                    "type": "tuple[]"
                }
            ],
            "stateMutability": "view",
            "type": "function"
        },
        {
            "inputs": [
                {
                    "internalType": "uint256",
                    "name": "_contractId",
                    "type": "uint256"
                }
            ],
            "name": "getReviews",
            "outputs": [
                {
                    "components": [
                        {
                            "internalType": "uint256",
                            "name": "reviewId",
                            "type": "uint256"
                        },
                        {
                            "internalType": "uint256",
                            "name": "contractId",
                            "type": "uint256"
                        },
                        {
                            "internalType": "address",
                            "name": "tenant",
                            "type": "address"
                        },
                        {
                            "internalType": "uint256",
                            "name": "star",
                            "type": "uint256"
                        },
                        {
                            "internalType": "string",
                            "name": "review",
                            "type": "string"
                        }
                    ],
                    "internalType": "struct Score.Review[]",
                    "name": "",
                    "type": "tuple[]"
                }
            ],
            "stateMutability": "view",
            "type": "function"
        },
        {
            "inputs": [
                {
                    "internalType": "address",
                    "name": "_address",
                    "type": "address"
                }
            ],
            "name": "getScore",
            "outputs": [
                {
                    "internalType": "uint256",
                    "name": "",
                    "type": "uint256"
                }
            ],
            "stateMutability": "view",
            "type": "function"
        },
        {
            "inputs": [
                {
                    "internalType": "uint256",
                    "name": "contractId",
                    "type": "uint256"
                }
            ],
            "name": "payDeposit",
            "outputs": [],
            "stateMutability": "payable",
            "type": "function"
        }
    ],
    "bytecode": "0x608060405273f6395b9f0b5f6ba3e58e69e316b9251e3ac601a8600360006101000a81548173ffffffffffffffffffffffffffffffffffffffff021916908373ffffffffffffffffffffffffffffffffffffffff16021790555034801561006557600080fd5b506141c7806100756000396000f3fe6080604052600436106100dd5760003560e01c8063830f110b1161007f578063aad2eaaf11610059578063aad2eaaf146102e7578063bf03ddef14610310578063d47875d014610339578063f44b9a3c14610376576100dd565b8063830f110b146102305780638ba9ac6f1461026d5780639d4a2255146102aa576100dd565b80632b674e38116100bb5780632b674e38146101785780633dd77304146101a15780633e9e27aa146101ca5780636cf5d86e146101f3576100dd565b8063042e45dc146100e257806328cd3f181461011f5780632940b8ab1461013b575b600080fd5b3480156100ee57600080fd5b5061010960048036038101906101049190613284565b6103b3565b6040516101169190613a70565b60405180910390f35b610139600480360381019061013491906132ad565b6108cb565b005b34801561014757600080fd5b50610162600480360381019061015d91906131d5565b610d57565b60405161016f9190613bc6565b60405180910390f35b34801561018457600080fd5b5061019f600480360381019061019a91906131fe565b611106565b005b3480156101ad57600080fd5b506101c860048036038101906101c391906132d6565b6112e1565b005b3480156101d657600080fd5b506101f160048036038101906101ec9190613392565b6115ad565b005b3480156101ff57600080fd5b5061021a600480360381019061021591906132ad565b6117be565b6040516102279190613a4e565b60405180910390f35b34801561023c57600080fd5b50610257600480360381019061025291906131d5565b61193a565b6040516102649190613bc6565b60405180910390f35b34801561027957600080fd5b50610294600480360381019061028f91906132ad565b611dce565b6040516102a19190613ba4565b60405180910390f35b3480156102b657600080fd5b506102d160048036038101906102cc91906132ad565b61201e565b6040516102de9190613a92565b60405180910390f35b3480156102f357600080fd5b5061030e600480360381019061030991906132ad565b61230c565b005b34801561031c57600080fd5b5061033760048036038101906103329190613312565b6124a1565b005b34801561034557600080fd5b50610360600480360381019061035b91906131d5565b6127cc565b60405161036d9190613bc6565b60405180910390f35b34801561038257600080fd5b5061039d600480360381019061039891906131d5565b612815565b6040516103aa9190613a70565b60405180910390f35b60606000805b6000805490508110156104b8578360038111156103ff577f4e487b7100000000000000000000000000000000000000000000000000000000600052602160045260246000fd5b60008281548110610439577f4e487b7100000000000000000000000000000000000000000000000000000000600052603260045260246000fd5b906000526020600020906008020160060160009054906101000a900460ff166003811115610490577f4e487b7100000000000000000000000000000000000000000000000000000000600052602160045260246000fd5b14156104a55781806104a190613ffa565b9250505b80806104b090613ffa565b9150506103b9565b5060008167ffffffffffffffff8111156104fb577f4e487b7100000000000000000000000000000000000000000000000000000000600052604160045260246000fd5b60405190808252806020026020018201604052801561053457816020015b610521612cdc565b8152602001906001900390816105195790505b5090506000805b6000805490508110156108bf57856003811115610581577f4e487b7100000000000000000000000000000000000000000000000000000000600052602160045260246000fd5b600082815481106105bb577f4e487b7100000000000000000000000000000000000000000000000000000000600052603260045260246000fd5b906000526020600020906008020160060160009054906101000a900460ff166003811115610612577f4e487b7100000000000000000000000000000000000000000000000000000000600052602160045260246000fd5b14156108ac5760008181548110610652577f4e487b7100000000000000000000000000000000000000000000000000000000600052603260045260246000fd5b9060005260206000209060080201604051806101000160405290816000820154815260200160018201548152602001600282015481526020016003820160009054906101000a900473ffffffffffffffffffffffffffffffffffffffff1673ffffffffffffffffffffffffffffffffffffffff1673ffffffffffffffffffffffffffffffffffffffff1681526020016004820160009054906101000a900473ffffffffffffffffffffffffffffffffffffffff1673ffffffffffffffffffffffffffffffffffffffff1673ffffffffffffffffffffffffffffffffffffffff16815260200160058201805461074690613fc8565b80601f016020809104026020016040519081016040528092919081815260200182805461077290613fc8565b80156107bf5780601f10610794576101008083540402835291602001916107bf565b820191906000526020600020905b8154815290600101906020018083116107a257829003601f168201915b505050505081526020016006820160009054906101000a900460ff166003811115610813577f4e487b7100000000000000000000000000000000000000000000000000000000600052602160045260246000fd5b600381111561084b577f4e487b7100000000000000000000000000000000000000000000000000000000600052602160045260246000fd5b8152602001600782015481525050838381518110610892577f4e487b7100000000000000000000000000000000000000000000000000000000600052603260045260246000fd5b602002602001018190525081806108a890613ffa565b9250505b80806108b790613ffa565b91505061053b565b50819350505050919050565b8060008181548110610906577f4e487b7100000000000000000000000000000000000000000000000000000000600052603260045260246000fd5b906000526020600020906008020160040160009054906101000a900473ffffffffffffffffffffffffffffffffffffffff1673ffffffffffffffffffffffffffffffffffffffff163373ffffffffffffffffffffffffffffffffffffffff16146109a5576040517f08c379a000000000000000000000000000000000000000000000000000000000815260040161099c90613b64565b60405180910390fd5b816001600082815481106109e2577f4e487b7100000000000000000000000000000000000000000000000000000000600052603260045260246000fd5b906000526020600020906008020160060160009054906101000a900460ff166003811115610a39577f4e487b7100000000000000000000000000000000000000000000000000000000600052602160045260246000fd5b816003811115610a72577f4e487b7100000000000000000000000000000000000000000000000000000000600052602160045260246000fd5b14610ab2576040517f08c379a0000000000000000000000000000000000000000000000000000000008152600401610aa990613b44565b60405180910390fd5b60008481548110610aec577f4e487b7100000000000000000000000000000000000000000000000000000000600052603260045260246000fd5b9060005260206000209060080201600701543414610b3f576040517f08c379a0000000000000000000000000000000000000000000000000000000008152600401610b3690613b04565b60405180910390fd5b60008481548110610b79577f4e487b7100000000000000000000000000000000000000000000000000000000600052603260045260246000fd5b906000526020600020906008020160030160009054906101000a900473ffffffffffffffffffffffffffffffffffffffff1673ffffffffffffffffffffffffffffffffffffffff166108fc349081150290604051600060405180830381858888f19350505050158015610bf0573d6000803e3d6000fd5b50600260008581548110610c2d577f4e487b7100000000000000000000000000000000000000000000000000000000600052603260045260246000fd5b906000526020600020906008020160060160006101000a81548160ff02191690836003811115610c86577f4e487b7100000000000000000000000000000000000000000000000000000000600052602160045260246000fd5b02179055503373ffffffffffffffffffffffffffffffffffffffff1660008581548110610cdc577f4e487b7100000000000000000000000000000000000000000000000000000000600052603260045260246000fd5b906000526020600020906008020160030160009054906101000a900473ffffffffffffffffffffffffffffffffffffffff1673ffffffffffffffffffffffffffffffffffffffff16857f5b3fbe89d042c633e7d6fc9434acfee6e234221722ea42fdfdfa95bb84c69e5460405160405180910390a450505050565b6000806101f4610d66846127cc565b1790506000600360009054906101000a900473ffffffffffffffffffffffffffffffffffffffff16905060008173ffffffffffffffffffffffffffffffffffffffff1663f44b9a3c866040518263ffffffff1660e01b8152600401610dcb9190613a33565b60006040518083038186803b158015610de357600080fd5b505afa158015610df7573d6000803e3d6000fd5b505050506040513d6000823e3d601f19601f82011682018060405250810190610e209190613243565b905060008060005b8351811015610ff557838181518110610e6a577f4e487b7100000000000000000000000000000000000000000000000000000000600052603260045260246000fd5b602002602001015160200151848281518110610eaf577f4e487b7100000000000000000000000000000000000000000000000000000000600052603260045260246000fd5b602002602001015160400151610ec59190613ef1565b82610ed09190613e10565b915060006003811115610f0c577f4e487b7100000000000000000000000000000000000000000000000000000000600052602160045260246000fd5b848281518110610f45577f4e487b7100000000000000000000000000000000000000000000000000000000600052603260045260246000fd5b602002602001015160c001516003811115610f89577f4e487b7100000000000000000000000000000000000000000000000000000000600052602160045260246000fd5b1415610fe257838181518110610fc8577f4e487b7100000000000000000000000000000000000000000000000000000000600052603260045260246000fd5b602002602001015160e0015183610fdf9190613e10565b92505b8080610fed90613ffa565b915050610e28565b506110356040518060400160405280600681526020017f616d6f756e74000000000000000000000000000000000000000000000000000081525083612c17565b6110746040518060400160405280600881526020017f6475726174696f6e00000000000000000000000000000000000000000000000081525082612c17565b60006103e86001836110869190613e97565b6110909190613e66565b600a8461109d9190613e97565b876110a89190613e10565b6110b29190613e10565b905080600460008a73ffffffffffffffffffffffffffffffffffffffff1673ffffffffffffffffffffffffffffffffffffffff16815260200190815260200160002081905550809650505050505050919050565b60005b828290508110156112dc573073ffffffffffffffffffffffffffffffffffffffff1663bf03ddef848484818110611169577f4e487b7100000000000000000000000000000000000000000000000000000000600052603260045260246000fd5b905060200281019061117b9190613c86565b602001358585858181106111b8577f4e487b7100000000000000000000000000000000000000000000000000000000600052603260045260246000fd5b90506020028101906111ca9190613c86565b60400135868686818110611207577f4e487b7100000000000000000000000000000000000000000000000000000000600052603260045260246000fd5b90506020028101906112199190613c86565b8060a001906112289190613c2f565b888888818110611261577f4e487b7100000000000000000000000000000000000000000000000000000000600052603260045260246000fd5b90506020028101906112739190613c86565b60e001356040518663ffffffff1660e01b8152600401611297959493929190613be1565b600060405180830381600087803b1580156112b157600080fd5b505af11580156112c5573d6000803e3d6000fd5b5050505080806112d490613ffa565b915050611109565b505050565b816000818154811061131c577f4e487b7100000000000000000000000000000000000000000000000000000000600052603260045260246000fd5b906000526020600020906008020160030160009054906101000a900473ffffffffffffffffffffffffffffffffffffffff1673ffffffffffffffffffffffffffffffffffffffff163373ffffffffffffffffffffffffffffffffffffffff16146113bb576040517f08c379a00000000000000000000000000000000000000000000000000000000081526004016113b290613ae4565b60405180910390fd5b6001600084815481106113f7577f4e487b7100000000000000000000000000000000000000000000000000000000600052603260045260246000fd5b906000526020600020906008020160060160006101000a81548160ff02191690836003811115611450577f4e487b7100000000000000000000000000000000000000000000000000000000600052602160045260246000fd5b02179055508160008481548110611490577f4e487b7100000000000000000000000000000000000000000000000000000000600052603260045260246000fd5b906000526020600020906008020160040160006101000a81548173ffffffffffffffffffffffffffffffffffffffff021916908373ffffffffffffffffffffffffffffffffffffffff1602179055508173ffffffffffffffffffffffffffffffffffffffff16837f0907ad1362c20b0c1f2fa8e892146569226987c4602687d1feb4633a0f3342ac60405160405180910390a36002600084815260200190815260200160002060006115429190612d85565b600160008373ffffffffffffffffffffffffffffffffffffffff1673ffffffffffffffffffffffffffffffffffffffff168152602001908152602001600020839080600181540180825580915050600190039060005260206000200160009091909190915055505050565b82600081815481106115e8577f4e487b7100000000000000000000000000000000000000000000000000000000600052603260045260246000fd5b906000526020600020906008020160040160009054906101000a900473ffffffffffffffffffffffffffffffffffffffff1673ffffffffffffffffffffffffffffffffffffffff163373ffffffffffffffffffffffffffffffffffffffff1614611687576040517f08c379a000000000000000000000000000000000000000000000000000000000815260040161167e90613b64565b60405180910390fd5b6000600580549050905060056040518060a001604052808381526020018781526020013373ffffffffffffffffffffffffffffffffffffffff168152602001868152602001858152509080600181540180825580915050600190039060005260206000209060050201600090919091909150600082015181600001556020820151816001015560408201518160020160006101000a81548173ffffffffffffffffffffffffffffffffffffffff021916908373ffffffffffffffffffffffffffffffffffffffff16021790555060608201518160030155608082015181600401908051906020019061177a929190612da6565b505050600660008681526020019081526020016000208190806001815401808255809150506001900390600052602060002001600090919091909150555050505050565b606081600081815481106117fb577f4e487b7100000000000000000000000000000000000000000000000000000000600052603260045260246000fd5b906000526020600020906008020160030160009054906101000a900473ffffffffffffffffffffffffffffffffffffffff1673ffffffffffffffffffffffffffffffffffffffff163373ffffffffffffffffffffffffffffffffffffffff161461189a576040517f08c379a000000000000000000000000000000000000000000000000000000000815260040161189190613ae4565b60405180910390fd5b6002600084815260200190815260200160002080548060200260200160405190810160405280929190818152602001828054801561192d57602002820191906000526020600020905b8160009054906101000a900473ffffffffffffffffffffffffffffffffffffffff1673ffffffffffffffffffffffffffffffffffffffff16815260200190600101908083116118e3575b5050505050915050919050565b6000806101f4611949846127cc565b1790506000600360009054906101000a900473ffffffffffffffffffffffffffffffffffffffff16905060008173ffffffffffffffffffffffffffffffffffffffff1663f44b9a3c866040518263ffffffff1660e01b81526004016119ae9190613a33565b60006040518083038186803b1580156119c657600080fd5b505afa1580156119da573d6000803e3d6000fd5b505050506040513d6000823e3d601f19601f82011682018060405250810190611a039190613243565b905060008060008060005b8551811015611c3c576000611a66878381518110611a55577f4e487b7100000000000000000000000000000000000000000000000000000000600052603260045260246000fd5b60200260200101516000015161201e565b9050868281518110611aa1577f4e487b7100000000000000000000000000000000000000000000000000000000600052603260045260246000fd5b602002602001015160200151878381518110611ae6577f4e487b7100000000000000000000000000000000000000000000000000000000600052603260045260246000fd5b602002602001015160400151611afc9190613ef1565b84611b079190613e10565b935042878381518110611b43577f4e487b7100000000000000000000000000000000000000000000000000000000600052603260045260246000fd5b6020026020010151604001511115611ba857868281518110611b8e577f4e487b7100000000000000000000000000000000000000000000000000000000600052603260045260246000fd5b602002602001015160e0015183611ba59190613e10565b92505b60005b8151811015611c2757818381518110611bed577f4e487b7100000000000000000000000000000000000000000000000000000000600052603260045260246000fd5b60200260200101516060015186611c049190613e10565b95508680611c1190613ffa565b9750508080611c1f90613ffa565b915050611bab565b50508080611c3490613ffa565b915050611a0e565b5060008484611c4b9190613e66565b905060006004821115611c6157600a9050611c70565b6003821115611c6f57600590505b5b611caf6040518060400160405280600981526020017f7374617253636f7265000000000000000000000000000000000000000000000081525082612c17565b611cee6040518060400160405280600881526020017f6475726174696f6e00000000000000000000000000000000000000000000000081525085612c17565b611d2d6040518060400160405280600881526020017f707269636553756d00000000000000000000000000000000000000000000000081525084612c17565b6000600a84611d3c9190613e97565b6103e8600187611d4c9190613e97565b611d569190613e66565b838c611d629190613e10565b611d6c9190613e10565b611d769190613e10565b905080600460008e73ffffffffffffffffffffffffffffffffffffffff1673ffffffffffffffffffffffffffffffffffffffff16815260200190815260200160002081905550809a5050505050505050505050919050565b611dd6612cdc565b60008281548110611e10577f4e487b7100000000000000000000000000000000000000000000000000000000600052603260045260246000fd5b9060005260206000209060080201604051806101000160405290816000820154815260200160018201548152602001600282015481526020016003820160009054906101000a900473ffffffffffffffffffffffffffffffffffffffff1673ffffffffffffffffffffffffffffffffffffffff1673ffffffffffffffffffffffffffffffffffffffff1681526020016004820160009054906101000a900473ffffffffffffffffffffffffffffffffffffffff1673ffffffffffffffffffffffffffffffffffffffff1673ffffffffffffffffffffffffffffffffffffffff168152602001600582018054611f0490613fc8565b80601f0160208091040260200160405190810160405280929190818152602001828054611f3090613fc8565b8015611f7d5780601f10611f5257610100808354040283529160200191611f7d565b820191906000526020600020905b815481529060010190602001808311611f6057829003601f168201915b505050505081526020016006820160009054906101000a900460ff166003811115611fd1577f4e487b7100000000000000000000000000000000000000000000000000000000600052602160045260246000fd5b6003811115612009577f4e487b7100000000000000000000000000000000000000000000000000000000600052602160045260246000fd5b81526020016007820154815250509050919050565b606060006006600084815260200190815260200160002080548060200260200160405190810160405280929190818152602001828054801561207f57602002820191906000526020600020905b81548152602001906001019080831161206b575b505050505090506000815167ffffffffffffffff8111156120c9577f4e487b7100000000000000000000000000000000000000000000000000000000600052604160045260246000fd5b60405190808252806020026020018201604052801561210257816020015b6120ef612e2c565b8152602001906001900390816120e75790505b50905060005b825181101561230157600583828151811061214c577f4e487b7100000000000000000000000000000000000000000000000000000000600052603260045260246000fd5b60200260200101518154811061218b577f4e487b7100000000000000000000000000000000000000000000000000000000600052603260045260246000fd5b90600052602060002090600502016040518060a001604052908160008201548152602001600182015481526020016002820160009054906101000a900473ffffffffffffffffffffffffffffffffffffffff1673ffffffffffffffffffffffffffffffffffffffff1673ffffffffffffffffffffffffffffffffffffffff1681526020016003820154815260200160048201805461222890613fc8565b80601f016020809104026020016040519081016040528092919081815260200182805461225490613fc8565b80156122a15780601f10612276576101008083540402835291602001916122a1565b820191906000526020600020905b81548152906001019060200180831161228457829003601f168201915b5050505050815250508282815181106122e3577f4e487b7100000000000000000000000000000000000000000000000000000000600052603260045260246000fd5b602002602001018190525080806122f990613ffa565b915050612108565b508092505050919050565b60008181548110612346577f4e487b7100000000000000000000000000000000000000000000000000000000600052603260045260246000fd5b906000526020600020906008020160030160009054906101000a900473ffffffffffffffffffffffffffffffffffffffff1673ffffffffffffffffffffffffffffffffffffffff163373ffffffffffffffffffffffffffffffffffffffff1614156123e6576040517f08c379a00000000000000000000000000000000000000000000000000000000081526004016123dd90613b24565b60405180910390fd5b60026000828152602001908152602001600020339080600181540180825580915050600190039060005260206000200160009091909190916101000a81548173ffffffffffffffffffffffffffffffffffffffff021916908373ffffffffffffffffffffffffffffffffffffffff1602179055503373ffffffffffffffffffffffffffffffffffffffff16817f7ac6f8ad3a8d0f5e51f7d46371ddeb6e2d196578f72b4bb2d7b0884a420d509c60405160405180910390a350565b838510806124af5750600084145b6124ee576040517f08c379a00000000000000000000000000000000000000000000000000000000081526004016124e590613b84565b60405180910390fd5b60008080549050905060006040518061010001604052808381526020018881526020018781526020013373ffffffffffffffffffffffffffffffffffffffff168152602001600073ffffffffffffffffffffffffffffffffffffffff16815260200186868080601f016020809104026020016040519081016040528093929190818152602001838380828437600081840152601f19601f820116905080830192505050505050508152602001600060038111156125d4577f4e487b7100000000000000000000000000000000000000000000000000000000600052602160045260246000fd5b815260200184815250908060018154018082558091505060019003906000526020600020906008020160009091909190915060008201518160000155602082015181600101556040820151816002015560608201518160030160006101000a81548173ffffffffffffffffffffffffffffffffffffffff021916908373ffffffffffffffffffffffffffffffffffffffff16021790555060808201518160040160006101000a81548173ffffffffffffffffffffffffffffffffffffffff021916908373ffffffffffffffffffffffffffffffffffffffff16021790555060a08201518160050190805190602001906126ce929190612da6565b5060c08201518160060160006101000a81548160ff02191690836003811115612720577f4e487b7100000000000000000000000000000000000000000000000000000000600052602160045260246000fd5b021790555060e082015181600701555050600160003373ffffffffffffffffffffffffffffffffffffffff1673ffffffffffffffffffffffffffffffffffffffff168152602001908152602001600020819080600181540180825580915050600190039060005260206000200160009091909190915055807f9e3c7e008a15a3c864482ee94fd7315bcc9d0c04f3a9041ab922f816acffbe0660405160405180910390a2505050505050565b6000600460008373ffffffffffffffffffffffffffffffffffffffff1673ffffffffffffffffffffffffffffffffffffffff168152602001908152602001600020549050919050565b60606000600160008473ffffffffffffffffffffffffffffffffffffffff1673ffffffffffffffffffffffffffffffffffffffff1681526020019081526020016000208054806020026020016040519081016040528092919081815260200182805480156128a257602002820191906000526020600020905b81548152602001906001019080831161288e575b505050505090506000815167ffffffffffffffff8111156128ec577f4e487b7100000000000000000000000000000000000000000000000000000000600052604160045260246000fd5b60405190808252806020026020018201604052801561292557816020015b612912612cdc565b81526020019060019003908161290a5790505b50905060005b8251811015612c0c57600083828151811061296f577f4e487b7100000000000000000000000000000000000000000000000000000000600052603260045260246000fd5b6020026020010151815481106129ae577f4e487b7100000000000000000000000000000000000000000000000000000000600052603260045260246000fd5b9060005260206000209060080201604051806101000160405290816000820154815260200160018201548152602001600282015481526020016003820160009054906101000a900473ffffffffffffffffffffffffffffffffffffffff1673ffffffffffffffffffffffffffffffffffffffff1673ffffffffffffffffffffffffffffffffffffffff1681526020016004820160009054906101000a900473ffffffffffffffffffffffffffffffffffffffff1673ffffffffffffffffffffffffffffffffffffffff1673ffffffffffffffffffffffffffffffffffffffff168152602001600582018054612aa290613fc8565b80601f0160208091040260200160405190810160405280929190818152602001828054612ace90613fc8565b8015612b1b5780601f10612af057610100808354040283529160200191612b1b565b820191906000526020600020905b815481529060010190602001808311612afe57829003601f168201915b505050505081526020016006820160009054906101000a900460ff166003811115612b6f577f4e487b7100000000000000000000000000000000000000000000000000000000600052602160045260246000fd5b6003811115612ba7577f4e487b7100000000000000000000000000000000000000000000000000000000600052602160045260246000fd5b8152602001600782015481525050828281518110612bee577f4e487b7100000000000000000000000000000000000000000000000000000000600052603260045260246000fd5b60200260200101819052508080612c0490613ffa565b91505061292b565b508092505050919050565b612caf8282604051602401612c2d929190613ab4565b6040516020818303038152906040527f9710a9d0000000000000000000000000000000000000000000000000000000007bffffffffffffffffffffffffffffffffffffffffffffffffffffffff19166020820180517bffffffffffffffffffffffffffffffffffffffffffffffffffffffff8381831617835250505050612cb3565b5050565b60008151905060006a636f6e736f6c652e6c6f679050602083016000808483855afa5050505050565b604051806101000160405280600081526020016000815260200160008152602001600073ffffffffffffffffffffffffffffffffffffffff168152602001600073ffffffffffffffffffffffffffffffffffffffff1681526020016060815260200160006003811115612d78577f4e487b7100000000000000000000000000000000000000000000000000000000600052602160045260246000fd5b8152602001600081525090565b5080546000825590600052602060002090810190612da39190612e71565b50565b828054612db290613fc8565b90600052602060002090601f016020900481019282612dd45760008555612e1b565b82601f10612ded57805160ff1916838001178555612e1b565b82800160010185558215612e1b579182015b82811115612e1a578251825591602001919060010190612dff565b5b509050612e289190612e71565b5090565b6040518060a001604052806000815260200160008152602001600073ffffffffffffffffffffffffffffffffffffffff16815260200160008152602001606081525090565b5b80821115612e8a576000816000905550600101612e72565b5090565b6000612ea1612e9c84613cdc565b613cab565b9050808382526020820190508260005b85811015612ee15781518501612ec788826130cd565b845260208401935060208301925050600181019050612eb1565b5050509392505050565b6000612efe612ef984613d08565b613cab565b905082815260208101848484011115612f1657600080fd5b612f21848285613f86565b509392505050565b6000612f3c612f3784613d08565b613cab565b905082815260208101848484011115612f5457600080fd5b612f5f848285613f95565b509392505050565b600081359050612f7681614153565b92915050565b600081519050612f8b81614153565b92915050565b60008083601f840112612fa357600080fd5b8235905067ffffffffffffffff811115612fbc57600080fd5b602083019150836020820283011115612fd457600080fd5b9250929050565b600082601f830112612fec57600080fd5b8151612ffc848260208601612e8e565b91505092915050565b6000813590506130148161416a565b92915050565b6000815190506130298161416a565b92915050565b60008083601f84011261304157600080fd5b8235905067ffffffffffffffff81111561305a57600080fd5b60208301915083600182028301111561307257600080fd5b9250929050565b600082601f83011261308a57600080fd5b813561309a848260208601612eeb565b91505092915050565b600082601f8301126130b457600080fd5b81516130c4848260208601612f29565b91505092915050565b600061010082840312156130e057600080fd5b6130eb610100613cab565b905060006130fb848285016131c0565b600083015250602061310f848285016131c0565b6020830152506040613123848285016131c0565b604083015250606061313784828501612f7c565b606083015250608061314b84828501612f7c565b60808301525060a082015167ffffffffffffffff81111561316b57600080fd5b613177848285016130a3565b60a08301525060c061318b8482850161301a565b60c08301525060e061319f848285016131c0565b60e08301525092915050565b6000813590506131ba8161417a565b92915050565b6000815190506131cf8161417a565b92915050565b6000602082840312156131e757600080fd5b60006131f584828501612f67565b91505092915050565b6000806020838503121561321157600080fd5b600083013567ffffffffffffffff81111561322b57600080fd5b61323785828601612f91565b92509250509250929050565b60006020828403121561325557600080fd5b600082015167ffffffffffffffff81111561326f57600080fd5b61327b84828501612fdb565b91505092915050565b60006020828403121561329657600080fd5b60006132a484828501613005565b91505092915050565b6000602082840312156132bf57600080fd5b60006132cd848285016131ab565b91505092915050565b600080604083850312156132e957600080fd5b60006132f7858286016131ab565b925050602061330885828601612f67565b9150509250929050565b60008060008060006080868803121561332a57600080fd5b6000613338888289016131ab565b9550506020613349888289016131ab565b945050604086013567ffffffffffffffff81111561336657600080fd5b6133728882890161302f565b93509350506060613385888289016131ab565b9150509295509295909350565b6000806000606084860312156133a757600080fd5b60006133b5868287016131ab565b93505060206133c6868287016131ab565b925050604084013567ffffffffffffffff8111156133e357600080fd5b6133ef86828701613079565b9150509250925092565b60006134058383613439565b60208301905092915050565b600061341d838361383f565b905092915050565b6000613431838361399f565b905092915050565b61344281613f25565b82525050565b61345181613f25565b82525050565b600061346282613d68565b61346c8185613dbb565b935061347783613d38565b8060005b838110156134a857815161348f88826133f9565b975061349a83613d94565b92505060018101905061347b565b5085935050505092915050565b60006134c082613d73565b6134ca8185613dcc565b9350836020820285016134dc85613d48565b8060005b8581101561351857848403895281516134f98582613411565b945061350483613da1565b925060208a019950506001810190506134e0565b50829750879550505050505092915050565b600061353582613d7e565b61353f8185613ddd565b93508360208202850161355185613d58565b8060005b8581101561358d578484038952815161356e8582613425565b945061357983613dae565b925060208a01995050600181019050613555565b50829750879550505050505092915050565b6135a881613f74565b82525050565b60006135ba8385613dff565b93506135c7838584613f86565b6135d08361412e565b840190509392505050565b60006135e682613d89565b6135f08185613dee565b9350613600818560208601613f95565b6136098161412e565b840191505092915050565b600061361f82613d89565b6136298185613dff565b9350613639818560208601613f95565b6136428161412e565b840191505092915050565b600061365a602283613dff565b91507f4f6e6c79206f776e65722063616e2063616c6c20746869732066756e6374696f60008301527f6e2e0000000000000000000000000000000000000000000000000000000000006020830152604082019050919050565b60006136c0601383613dff565b91507f507269636520697320696e636f72726563742e000000000000000000000000006000830152602082019050919050565b6000613700601283613dff565b91507f4f776e65722063616e2774206170706c792e00000000000000000000000000006000830152602082019050919050565b6000613740601f83613dff565b91507f436f6e7472616374206973206e6f7420696e2076616c69642073746174652e006000830152602082019050919050565b6000613780602383613dff565b91507f4f6e6c792074656e616e742063616e2063616c6c20746869732066756e63746960008301527f6f6e2e00000000000000000000000000000000000000000000000000000000006020830152604082019050919050565b60006137e6603183613dff565b91507f456e6420646174652073686f756c64206265206e756c6c206f72206c6174657260008301527f207468616e20737461727420646174652e0000000000000000000000000000006020830152604082019050919050565b6000610100830160008301516138586000860182613a15565b50602083015161386b6020860182613a15565b50604083015161387e6040860182613a15565b5060608301516138916060860182613439565b5060808301516138a46080860182613439565b5060a083015184820360a08601526138bc82826135db565b91505060c08301516138d160c086018261359f565b5060e08301516138e460e0860182613a15565b508091505092915050565b6000610100830160008301516139086000860182613a15565b50602083015161391b6020860182613a15565b50604083015161392e6040860182613a15565b5060608301516139416060860182613439565b5060808301516139546080860182613439565b5060a083015184820360a086015261396c82826135db565b91505060c083015161398160c086018261359f565b5060e083015161399460e0860182613a15565b508091505092915050565b600060a0830160008301516139b76000860182613a15565b5060208301516139ca6020860182613a15565b5060408301516139dd6040860182613439565b5060608301516139f06060860182613a15565b5060808301518482036080860152613a0882826135db565b9150508091505092915050565b613a1e81613f6a565b82525050565b613a2d81613f6a565b82525050565b6000602082019050613a486000830184613448565b92915050565b60006020820190508181036000830152613a688184613457565b905092915050565b60006020820190508181036000830152613a8a81846134b5565b905092915050565b60006020820190508181036000830152613aac818461352a565b905092915050565b60006040820190508181036000830152613ace8185613614565b9050613add6020830184613a24565b9392505050565b60006020820190508181036000830152613afd8161364d565b9050919050565b60006020820190508181036000830152613b1d816136b3565b9050919050565b60006020820190508181036000830152613b3d816136f3565b9050919050565b60006020820190508181036000830152613b5d81613733565b9050919050565b60006020820190508181036000830152613b7d81613773565b9050919050565b60006020820190508181036000830152613b9d816137d9565b9050919050565b60006020820190508181036000830152613bbe81846138ef565b905092915050565b6000602082019050613bdb6000830184613a24565b92915050565b6000608082019050613bf66000830188613a24565b613c036020830187613a24565b8181036040830152613c168185876135ae565b9050613c256060830184613a24565b9695505050505050565b60008083356001602003843603038112613c4857600080fd5b80840192508235915067ffffffffffffffff821115613c6657600080fd5b602083019250600182023603831315613c7e57600080fd5b509250929050565b60008235600161010003833603038112613c9f57600080fd5b80830191505092915050565b6000604051905081810181811067ffffffffffffffff82111715613cd257613cd16140ff565b5b8060405250919050565b600067ffffffffffffffff821115613cf757613cf66140ff565b5b602082029050602081019050919050565b600067ffffffffffffffff821115613d2357613d226140ff565b5b601f19601f8301169050602081019050919050565b6000819050602082019050919050565b6000819050602082019050919050565b6000819050602082019050919050565b600081519050919050565b600081519050919050565b600081519050919050565b600081519050919050565b6000602082019050919050565b6000602082019050919050565b6000602082019050919050565b600082825260208201905092915050565b600082825260208201905092915050565b600082825260208201905092915050565b600082825260208201905092915050565b600082825260208201905092915050565b6000613e1b82613f6a565b9150613e2683613f6a565b9250827fffffffffffffffffffffffffffffffffffffffffffffffffffffffffffffffff03821115613e5b57613e5a614043565b5b828201905092915050565b6000613e7182613f6a565b9150613e7c83613f6a565b925082613e8c57613e8b614072565b5b828204905092915050565b6000613ea282613f6a565b9150613ead83613f6a565b9250817fffffffffffffffffffffffffffffffffffffffffffffffffffffffffffffffff0483118215151615613ee657613ee5614043565b5b828202905092915050565b6000613efc82613f6a565b9150613f0783613f6a565b925082821015613f1a57613f19614043565b5b828203905092915050565b6000613f3082613f4a565b9050919050565b6000819050613f458261413f565b919050565b600073ffffffffffffffffffffffffffffffffffffffff82169050919050565b6000819050919050565b6000613f7f82613f37565b9050919050565b82818337600083830152505050565b60005b83811015613fb3578082015181840152602081019050613f98565b83811115613fc2576000848401525b50505050565b60006002820490506001821680613fe057607f821691505b60208210811415613ff457613ff36140d0565b5b50919050565b600061400582613f6a565b91507fffffffffffffffffffffffffffffffffffffffffffffffffffffffffffffffff82141561403857614037614043565b5b600182019050919050565b7f4e487b7100000000000000000000000000000000000000000000000000000000600052601160045260246000fd5b7f4e487b7100000000000000000000000000000000000000000000000000000000600052601260045260246000fd5b7f4e487b7100000000000000000000000000000000000000000000000000000000600052602160045260246000fd5b7f4e487b7100000000000000000000000000000000000000000000000000000000600052602260045260246000fd5b7f4e487b7100000000000000000000000000000000000000000000000000000000600052604160045260246000fd5b6000601f19601f8301169050919050565b600481106141505761414f6140a1565b5b50565b61415c81613f25565b811461416757600080fd5b50565b6004811061417757600080fd5b50565b61418381613f6a565b811461418e57600080fd5b5056fea26469706673582212208c3dd68b43c0361b9e97228c9c1e9f5302087e7f5482c08cfdd026c278face6464736f6c63430008000033",
    "linkReferences": {},
    "deployedLinkReferences": {}
}