{
    "_format": "hh-sol-artifact-1",
    "contractName": "Payment",
    "sourceName": "contracts/Payment.sol",
    "abi": [
        {
            "inputs": [],
            "stateMutability": "nonpayable",
            "type": "constructor"
        },
        {
            "inputs": [
                {
                    "internalType": "uint256",
                    "name": "contractId",
                    "type": "uint256"
                }
            ],
            "name": "createBill",
            "outputs": [],
            "stateMutability": "nonpayable",
            "type": "function"
        },
        {
            "inputs": [
                {
                    "internalType": "address",
                    "name": "_address",
                    "type": "address"
                }
            ],
            "name": "getBillsByAddress",
            "outputs": [
                {
                    "components": [
                        {
                            "internalType": "uint256",
                            "name": "id",
                            "type": "uint256"
                        },
                        {
                            "internalType": "uint256",
                            "name": "contractId",
                            "type": "uint256"
                        },
                        {
                            "internalType": "uint256",
                            "name": "price",
                            "type": "uint256"
                        },
                        {
                            "internalType": "uint256",
                            "name": "billingDate",
                            "type": "uint256"
                        },
                        {
                            "internalType": "address",
                            "name": "payee",
                            "type": "address"
                        },
                        {
                            "internalType": "address",
                            "name": "payer",
                            "type": "address"
                        },
                        {
                            "internalType": "enum Payment.State",
                            "name": "state",
                            "type": "uint8"
                        }
                    ],
                    "internalType": "struct Payment.Bill[]",
                    "name": "",
                    "type": "tuple[]"
                }
            ],
            "stateMutability": "view",
            "type": "function"
        },
        {
            "inputs": [
                {
                    "internalType": "uint256",
                    "name": "contractId",
                    "type": "uint256"
                }
            ],
            "name": "getBillsByContractId",
            "outputs": [
                {
                    "components": [
                        {
                            "internalType": "uint256",
                            "name": "id",
                            "type": "uint256"
                        },
                        {
                            "internalType": "uint256",
                            "name": "contractId",
                            "type": "uint256"
                        },
                        {
                            "internalType": "uint256",
                            "name": "price",
                            "type": "uint256"
                        },
                        {
                            "internalType": "uint256",
                            "name": "billingDate",
                            "type": "uint256"
                        },
                        {
                            "internalType": "address",
                            "name": "payee",
                            "type": "address"
                        },
                        {
                            "internalType": "address",
                            "name": "payer",
                            "type": "address"
                        },
                        {
                            "internalType": "enum Payment.State",
                            "name": "state",
                            "type": "uint8"
                        }
                    ],
                    "internalType": "struct Payment.Bill[]",
                    "name": "",
                    "type": "tuple[]"
                }
            ],
            "stateMutability": "view",
            "type": "function"
        },
        {
            "inputs": [
                {
                    "internalType": "uint256",
                    "name": "billId",
                    "type": "uint256"
                }
            ],
            "name": "payBill",
            "outputs": [],
            "stateMutability": "payable",
            "type": "function"
        }
    ],
    "bytecode": "0x6080604052736f89cc3d89f29d327740d08c024267c8559f04a4600160006101000a81548173ffffffffffffffffffffffffffffffffffffffff021916908373ffffffffffffffffffffffffffffffffffffffff16021790555034801561006557600080fd5b50600160009054906101000a900473ffffffffffffffffffffffffffffffffffffffff166000806101000a81548173ffffffffffffffffffffffffffffffffffffffff021916908373ffffffffffffffffffffffffffffffffffffffff1602179055506118fc806100d76000396000f3fe60806040526004361061003f5760003560e01c80631c8f07891461004457806362261b811461006d578063e3029196146100aa578063f0975190146100e7575b600080fd5b34801561005057600080fd5b5061006b60048036038101906100669190611263565b610103565b005b34801561007957600080fd5b50610094600480360381019061008f9190611263565b610585565b6040516100a191906114f2565b60405180910390f35b3480156100b657600080fd5b506100d160048036038101906100cc91906111f9565b6108c8565b6040516100de91906114f2565b60405180910390f35b61010160048036038101906100fc9190611263565b610c37565b005b60008060009054906101000a900473ffffffffffffffffffffffffffffffffffffffff1673ffffffffffffffffffffffffffffffffffffffff16638ba9ac6f836040518263ffffffff1660e01b815260040161015f9190611594565b60006040518083038186803b15801561017757600080fd5b505afa15801561018b573d6000803e3d6000fd5b505050506040513d6000823e3d601f19601f820116820180604052508101906101b49190611222565b9050806040015142106101fc576040517f08c379a00000000000000000000000000000000000000000000000000000000081526004016101f390611574565b60405180910390fd5b60026003811115610236577f4e487b7100000000000000000000000000000000000000000000000000000000600052602160045260246000fd5b8160c001516003811115610273577f4e487b7100000000000000000000000000000000000000000000000000000000600052602160045260246000fd5b146102b3576040517f08c379a00000000000000000000000000000000000000000000000000000000081526004016102aa90611514565b60405180910390fd5b600062278d00600460008581526020019081526020016000208054905060016102dc919061165a565b6102e691906116b0565b82602001516102f5919061165a565b90506000600280549050905060026040518060e001604052808381526020018681526020018560e001518152602001848152602001856060015173ffffffffffffffffffffffffffffffffffffffff168152602001600073ffffffffffffffffffffffffffffffffffffffff168152602001600060028111156103a1577f4e487b7100000000000000000000000000000000000000000000000000000000600052602160045260246000fd5b81525090806001815401808255809150506001900390600052602060002090600602016000909190919091506000820151816000015560208201518160010155604082015181600201556060820151816003015560808201518160040160006101000a81548173ffffffffffffffffffffffffffffffffffffffff021916908373ffffffffffffffffffffffffffffffffffffffff16021790555060a08201518160050160006101000a81548173ffffffffffffffffffffffffffffffffffffffff021916908373ffffffffffffffffffffffffffffffffffffffff16021790555060c08201518160050160146101000a81548160ff021916908360028111156104d4577f4e487b7100000000000000000000000000000000000000000000000000000000600052602160045260246000fd5b021790555050506004600085815260200190815260200160002081908060018154018082558091505060019003906000526020600020016000909190919091505560036000846080015173ffffffffffffffffffffffffffffffffffffffff1673ffffffffffffffffffffffffffffffffffffffff16815260200190815260200160002081908060018154018082558091505060019003906000526020600020016000909190919091505550505050565b60606000600460008481526020019081526020016000208054806020026020016040519081016040528092919081815260200182805480156105e657602002820191906000526020600020905b8154815260200190600101908083116105d2575b505050505090506000815167ffffffffffffffff811115610630577f4e487b7100000000000000000000000000000000000000000000000000000000600052604160045260246000fd5b60405190808252806020026020018201604052801561066957816020015b610656610fa9565b81526020019060019003908161064e5790505b50905060005b82518110156108bd5760028382815181106106b3577f4e487b7100000000000000000000000000000000000000000000000000000000600052603260045260246000fd5b6020026020010151815481106106f2577f4e487b7100000000000000000000000000000000000000000000000000000000600052603260045260246000fd5b90600052602060002090600602016040518060e0016040529081600082015481526020016001820154815260200160028201548152602001600382015481526020016004820160009054906101000a900473ffffffffffffffffffffffffffffffffffffffff1673ffffffffffffffffffffffffffffffffffffffff1673ffffffffffffffffffffffffffffffffffffffff1681526020016005820160009054906101000a900473ffffffffffffffffffffffffffffffffffffffff1673ffffffffffffffffffffffffffffffffffffffff1673ffffffffffffffffffffffffffffffffffffffff1681526020016005820160149054906101000a900460ff16600281111561082a577f4e487b7100000000000000000000000000000000000000000000000000000000600052602160045260246000fd5b6002811115610862577f4e487b7100000000000000000000000000000000000000000000000000000000600052602160045260246000fd5b8152505082828151811061089f577f4e487b7100000000000000000000000000000000000000000000000000000000600052603260045260246000fd5b602002602001018190525080806108b59061179e565b91505061066f565b508092505050919050565b60606000600360008473ffffffffffffffffffffffffffffffffffffffff1673ffffffffffffffffffffffffffffffffffffffff16815260200190815260200160002080548060200260200160405190810160405280929190818152602001828054801561095557602002820191906000526020600020905b815481526020019060010190808311610941575b505050505090506000815167ffffffffffffffff81111561099f577f4e487b7100000000000000000000000000000000000000000000000000000000600052604160045260246000fd5b6040519080825280602002602001820160405280156109d857816020015b6109c5610fa9565b8152602001906001900390816109bd5790505b50905060005b8251811015610c2c576002838281518110610a22577f4e487b7100000000000000000000000000000000000000000000000000000000600052603260045260246000fd5b602002602001015181548110610a61577f4e487b7100000000000000000000000000000000000000000000000000000000600052603260045260246000fd5b90600052602060002090600602016040518060e0016040529081600082015481526020016001820154815260200160028201548152602001600382015481526020016004820160009054906101000a900473ffffffffffffffffffffffffffffffffffffffff1673ffffffffffffffffffffffffffffffffffffffff1673ffffffffffffffffffffffffffffffffffffffff1681526020016005820160009054906101000a900473ffffffffffffffffffffffffffffffffffffffff1673ffffffffffffffffffffffffffffffffffffffff1673ffffffffffffffffffffffffffffffffffffffff1681526020016005820160149054906101000a900460ff166002811115610b99577f4e487b7100000000000000000000000000000000000000000000000000000000600052602160045260246000fd5b6002811115610bd1577f4e487b7100000000000000000000000000000000000000000000000000000000600052602160045260246000fd5b81525050828281518110610c0e577f4e487b7100000000000000000000000000000000000000000000000000000000600052603260045260246000fd5b60200260200101819052508080610c249061179e565b9150506109de565b508092505050919050565b60016002811115610c71577f4e487b7100000000000000000000000000000000000000000000000000000000600052602160045260246000fd5b60028281548110610cab577f4e487b7100000000000000000000000000000000000000000000000000000000600052603260045260246000fd5b906000526020600020906006020160050160149054906101000a900460ff166002811115610d02577f4e487b7100000000000000000000000000000000000000000000000000000000600052602160045260246000fd5b1415610d43576040517f08c379a0000000000000000000000000000000000000000000000000000000008152600401610d3a90611534565b60405180910390fd5b3460028281548110610d7e577f4e487b7100000000000000000000000000000000000000000000000000000000600052603260045260246000fd5b90600052602060002090600602016002015414610dd0576040517f08c379a0000000000000000000000000000000000000000000000000000000008152600401610dc790611554565b60405180910390fd5b600160028281548110610e0c577f4e487b7100000000000000000000000000000000000000000000000000000000600052603260045260246000fd5b906000526020600020906006020160050160146101000a81548160ff02191690836002811115610e65577f4e487b7100000000000000000000000000000000000000000000000000000000600052602160045260246000fd5b02179055503360028281548110610ea5577f4e487b7100000000000000000000000000000000000000000000000000000000600052603260045260246000fd5b906000526020600020906006020160050160006101000a81548173ffffffffffffffffffffffffffffffffffffffff021916908373ffffffffffffffffffffffffffffffffffffffff16021790555060028181548110610f2e577f4e487b7100000000000000000000000000000000000000000000000000000000600052603260045260246000fd5b906000526020600020906006020160040160009054906101000a900473ffffffffffffffffffffffffffffffffffffffff1673ffffffffffffffffffffffffffffffffffffffff166108fc349081150290604051600060405180830381858888f19350505050158015610fa5573d6000803e3d6000fd5b5050565b6040518060e0016040528060008152602001600081526020016000815260200160008152602001600073ffffffffffffffffffffffffffffffffffffffff168152602001600073ffffffffffffffffffffffffffffffffffffffff16815260200160006002811115611044577f4e487b7100000000000000000000000000000000000000000000000000000000600052602160045260246000fd5b81525090565b600061105d611058846115e0565b6115af565b90508281526020810184848401111561107557600080fd5b61108084828561176b565b509392505050565b60008135905061109781611888565b92915050565b6000815190506110ac81611888565b92915050565b6000815190506110c18161189f565b92915050565b600082601f8301126110d857600080fd5b81516110e884826020860161104a565b91505092915050565b6000610100828403121561110457600080fd5b61110f6101006115af565b9050600061111f848285016111e4565b6000830152506020611133848285016111e4565b6020830152506040611147848285016111e4565b604083015250606061115b8482850161109d565b606083015250608061116f8482850161109d565b60808301525060a082015167ffffffffffffffff81111561118f57600080fd5b61119b848285016110c7565b60a08301525060c06111af848285016110b2565b60c08301525060e06111c3848285016111e4565b60e08301525092915050565b6000813590506111de816118af565b92915050565b6000815190506111f3816118af565b92915050565b60006020828403121561120b57600080fd5b600061121984828501611088565b91505092915050565b60006020828403121561123457600080fd5b600082015167ffffffffffffffff81111561124e57600080fd5b61125a848285016110f1565b91505092915050565b60006020828403121561127557600080fd5b6000611283848285016111cf565b91505092915050565b60006112988383611446565b60e08301905092915050565b6112ad8161170a565b82525050565b60006112be82611620565b6112c88185611638565b93506112d383611610565b8060005b838110156113045781516112eb888261128c565b97506112f68361162b565b9250506001810190506112d7565b5085935050505092915050565b61131a81611759565b82525050565b600061132d602483611649565b91507f54686520636f6e747261637420697320696e20616e20696e76616c696420737460008301527f6174652e000000000000000000000000000000000000000000000000000000006020830152604082019050919050565b6000611393601b83611649565b91507f546869732062696c6c2077617320616c726561647920706169642e00000000006000830152602082019050919050565b60006113d3601783611649565b91507f54686520707269636520697320696e636f72726563742e0000000000000000006000830152602082019050919050565b6000611413601f83611649565b91507f54686520636f6e74726163742068617320616c726561647920656e6465642e006000830152602082019050919050565b60e08201600082015161145c60008501826114d4565b50602082015161146f60208501826114d4565b50604082015161148260408501826114d4565b50606082015161149560608501826114d4565b5060808201516114a860808501826112a4565b5060a08201516114bb60a08501826112a4565b5060c08201516114ce60c0850182611311565b50505050565b6114dd8161174f565b82525050565b6114ec8161174f565b82525050565b6000602082019050818103600083015261150c81846112b3565b905092915050565b6000602082019050818103600083015261152d81611320565b9050919050565b6000602082019050818103600083015261154d81611386565b9050919050565b6000602082019050818103600083015261156d816113c6565b9050919050565b6000602082019050818103600083015261158d81611406565b9050919050565b60006020820190506115a960008301846114e3565b92915050565b6000604051905081810181811067ffffffffffffffff821117156115d6576115d5611845565b5b8060405250919050565b600067ffffffffffffffff8211156115fb576115fa611845565b5b601f19601f8301169050602081019050919050565b6000819050602082019050919050565b600081519050919050565b6000602082019050919050565b600082825260208201905092915050565b600082825260208201905092915050565b60006116658261174f565b91506116708361174f565b9250827fffffffffffffffffffffffffffffffffffffffffffffffffffffffffffffffff038211156116a5576116a46117e7565b5b828201905092915050565b60006116bb8261174f565b91506116c68361174f565b9250817fffffffffffffffffffffffffffffffffffffffffffffffffffffffffffffffff04831182151516156116ff576116fe6117e7565b5b828202905092915050565b60006117158261172f565b9050919050565b600081905061172a82611874565b919050565b600073ffffffffffffffffffffffffffffffffffffffff82169050919050565b6000819050919050565b60006117648261171c565b9050919050565b60005b8381101561178957808201518184015260208101905061176e565b83811115611798576000848401525b50505050565b60006117a98261174f565b91507fffffffffffffffffffffffffffffffffffffffffffffffffffffffffffffffff8214156117dc576117db6117e7565b5b600182019050919050565b7f4e487b7100000000000000000000000000000000000000000000000000000000600052601160045260246000fd5b7f4e487b7100000000000000000000000000000000000000000000000000000000600052602160045260246000fd5b7f4e487b7100000000000000000000000000000000000000000000000000000000600052604160045260246000fd5b6003811061188557611884611816565b5b50565b6118918161170a565b811461189c57600080fd5b50565b600481106118ac57600080fd5b50565b6118b88161174f565b81146118c357600080fd5b5056fea2646970667358221220c32c5e4f7beb38ae87bf1d4dea618a935f5ff247ff2badad22d33163f79f4e1764736f6c63430008000033",
    "linkReferences": {},
    "deployedLinkReferences": {}
}