{
  "_format": "hh-sol-artifact-1",
  "contractName": "Payment",
  "sourceName": "contracts/Payment.sol",
  "abi": [
    {
      "inputs": [],
      "stateMutability": "nonpayable",
      "type": "constructor"
    },
    {
      "anonymous": false,
      "inputs": [
        {
          "indexed": true,
          "internalType": "uint256",
          "name": "id",
          "type": "uint256"
        }
      ],
      "name": "BillCreated",
      "type": "event"
    },
    {
      "anonymous": false,
      "inputs": [
        {
          "indexed": true,
          "internalType": "uint256",
          "name": "id",
          "type": "uint256"
        }
      ],
      "name": "BillPaid",
      "type": "event"
    },
    {
      "inputs": [
        {
          "internalType": "bytes",
          "name": "",
          "type": "bytes"
        }
      ],
      "name": "checkUpkeep",
      "outputs": [
        {
          "internalType": "bool",
          "name": "upkeepNeeded",
          "type": "bool"
        },
        {
          "internalType": "bytes",
          "name": "performData",
          "type": "bytes"
        }
      ],
      "stateMutability": "nonpayable",
      "type": "function"
    },
    {
      "inputs": [
        {
          "internalType": "uint256",
          "name": "contractId",
          "type": "uint256"
        }
      ],
      "name": "createBill",
      "outputs": [],
      "stateMutability": "nonpayable",
      "type": "function"
    },
    {
      "inputs": [
        {
          "internalType": "address",
          "name": "_address",
          "type": "address"
        }
      ],
      "name": "getBillsByAddress",
      "outputs": [
        {
          "components": [
            {
              "internalType": "uint256",
              "name": "billId",
              "type": "uint256"
            },
            {
              "internalType": "uint256",
              "name": "contractId",
              "type": "uint256"
            },
            {
              "internalType": "uint256",
              "name": "price",
              "type": "uint256"
            },
            {
              "internalType": "uint256",
              "name": "billingDate",
              "type": "uint256"
            },
            {
              "internalType": "address",
              "name": "payee",
              "type": "address"
            },
            {
              "internalType": "address",
              "name": "payer",
              "type": "address"
            },
            {
              "internalType": "enum Payment.State",
              "name": "state",
              "type": "uint8"
            }
          ],
          "internalType": "struct Payment.Bill[]",
          "name": "",
          "type": "tuple[]"
        }
      ],
      "stateMutability": "view",
      "type": "function"
    },
    {
      "inputs": [
        {
          "internalType": "uint256",
          "name": "contractId",
          "type": "uint256"
        }
      ],
      "name": "getBillsByContractId",
      "outputs": [
        {
          "components": [
            {
              "internalType": "uint256",
              "name": "billId",
              "type": "uint256"
            },
            {
              "internalType": "uint256",
              "name": "contractId",
              "type": "uint256"
            },
            {
              "internalType": "uint256",
              "name": "price",
              "type": "uint256"
            },
            {
              "internalType": "uint256",
              "name": "billingDate",
              "type": "uint256"
            },
            {
              "internalType": "address",
              "name": "payee",
              "type": "address"
            },
            {
              "internalType": "address",
              "name": "payer",
              "type": "address"
            },
            {
              "internalType": "enum Payment.State",
              "name": "state",
              "type": "uint8"
            }
          ],
          "internalType": "struct Payment.Bill[]",
          "name": "",
          "type": "tuple[]"
        }
      ],
      "stateMutability": "view",
      "type": "function"
    },
    {
      "inputs": [
        {
          "internalType": "address",
          "name": "_address",
          "type": "address"
        }
      ],
      "name": "isAutoPaymentSetup",
      "outputs": [
        {
          "internalType": "bool",
          "name": "",
          "type": "bool"
        }
      ],
      "stateMutability": "view",
      "type": "function"
    },
    {
      "inputs": [
        {
          "internalType": "uint256",
          "name": "billId",
          "type": "uint256"
        }
      ],
      "name": "payBill",
      "outputs": [],
      "stateMutability": "payable",
      "type": "function"
    },
    {
      "inputs": [
        {
          "internalType": "bytes",
          "name": "performData",
          "type": "bytes"
        }
      ],
      "name": "performUpkeep",
      "outputs": [],
      "stateMutability": "nonpayable",
      "type": "function"
    },
    {
      "inputs": [
        {
          "internalType": "address",
          "name": "_address",
          "type": "address"
        },
        {
          "internalType": "bool",
          "name": "autoPayment",
          "type": "bool"
        }
      ],
      "name": "setAutoPayment",
      "outputs": [],
      "stateMutability": "nonpayable",
      "type": "function"
    }
  ],
  "bytecode": "0x608060405273fcd67f13049df22be4ba9315551269e531189b66600160006101000a81548173ffffffffffffffffffffffffffffffffffffffff021916908373ffffffffffffffffffffffffffffffffffffffff16021790555034801561006557600080fd5b50600160009054906101000a900473ffffffffffffffffffffffffffffffffffffffff166000806101000a81548173ffffffffffffffffffffffffffffffffffffffff021916908373ffffffffffffffffffffffffffffffffffffffff16021790555061222f806100d76000396000f3fe60806040526004361061007b5760003560e01c80636e04ff0d1161004e5780636e04ff0d1461014c578063b49da1de1461018a578063e3029196146101b3578063f0975190146101f05761007b565b80631c8f078914610080578063272e9d44146100a95780634585e33b146100e657806362261b811461010f575b600080fd5b34801561008c57600080fd5b506100a760048036038101906100a291906119f9565b61020c565b005b3480156100b557600080fd5b506100d060048036038101906100cb919061190e565b6106be565b6040516100dd9190611d58565b60405180910390f35b3480156100f257600080fd5b5061010d60048036038101906101089190611973565b610793565b005b34801561011b57600080fd5b50610136600480360381019061013191906119f9565b6109d5565b6040516101439190611d36565b60405180910390f35b34801561015857600080fd5b50610173600480360381019061016e9190611973565b610d18565b604051610181929190611d73565b60405180910390f35b34801561019657600080fd5b506101b160048036038101906101ac9190611937565b610d2e565b005b3480156101bf57600080fd5b506101da60048036038101906101d5919061190e565b610ecc565b6040516101e79190611d36565b60405180910390f35b61020a600480360381019061020591906119f9565b61123b565b005b60008060009054906101000a900473ffffffffffffffffffffffffffffffffffffffff1673ffffffffffffffffffffffffffffffffffffffff16638ba9ac6f836040518263ffffffff1660e01b81526004016102689190611e43565b60006040518083038186803b15801561028057600080fd5b505afa158015610294573d6000803e3d6000fd5b505050506040513d6000823e3d601f19601f820116820180604052508101906102bd91906119b8565b905080604001514210610305576040517f08c379a00000000000000000000000000000000000000000000000000000000081526004016102fc90611e23565b60405180910390fd5b6002600381111561033f577f4e487b7100000000000000000000000000000000000000000000000000000000600052602160045260246000fd5b8160c00151600381111561037c577f4e487b7100000000000000000000000000000000000000000000000000000000600052602160045260246000fd5b146103bc576040517f08c379a00000000000000000000000000000000000000000000000000000000081526004016103b390611da3565b60405180910390fd5b600062278d00600560008581526020019081526020016000208054905060016103e59190611f25565b6103ef9190611f7b565b82602001516103fe9190611f25565b90506000600280549050905060026040518060e001604052808381526020018681526020018560e001518152602001848152602001856060015173ffffffffffffffffffffffffffffffffffffffff168152602001856080015173ffffffffffffffffffffffffffffffffffffffff168152602001600060028111156104ad577f4e487b7100000000000000000000000000000000000000000000000000000000600052602160045260246000fd5b81525090806001815401808255809150506001900390600052602060002090600602016000909190919091506000820151816000015560208201518160010155604082015181600201556060820151816003015560808201518160040160006101000a81548173ffffffffffffffffffffffffffffffffffffffff021916908373ffffffffffffffffffffffffffffffffffffffff16021790555060a08201518160050160006101000a81548173ffffffffffffffffffffffffffffffffffffffff021916908373ffffffffffffffffffffffffffffffffffffffff16021790555060c08201518160050160146101000a81548160ff021916908360028111156105e0577f4e487b7100000000000000000000000000000000000000000000000000000000600052602160045260246000fd5b021790555050506005600085815260200190815260200160002081908060018154018082558091505060019003906000526020600020016000909190919091505560046000846080015173ffffffffffffffffffffffffffffffffffffffff1673ffffffffffffffffffffffffffffffffffffffff168152602001908152602001600020819080600181540180825580915050600190039060005260206000200160009091909190915055807f2068d8834dc901bd98fb59293bf355f648a06575e1e29a17fc17f5007fbb9a5c60405160405180910390a250505050565b600080600090505b600380549050811015610788578273ffffffffffffffffffffffffffffffffffffffff1660038281548110610724577f4e487b7100000000000000000000000000000000000000000000000000000000600052603260045260246000fd5b9060005260206000200160009054906101000a900473ffffffffffffffffffffffffffffffffffffffff1673ffffffffffffffffffffffffffffffffffffffff16141561077557600191505061078e565b8080610780906120a9565b9150506106c6565b50600090505b919050565b60005b6003805490508110156109d0576000600382815481106107df577f4e487b7100000000000000000000000000000000000000000000000000000000600052603260045260246000fd5b9060005260206000200160009054906101000a900473ffffffffffffffffffffffffffffffffffffffff1690506000600460008373ffffffffffffffffffffffffffffffffffffffff1673ffffffffffffffffffffffffffffffffffffffff1681526020019081526020016000206001600460008573ffffffffffffffffffffffffffffffffffffffff1673ffffffffffffffffffffffffffffffffffffffff1681526020019081526020016000208054905061089c9190611fd5565b815481106108d3577f4e487b7100000000000000000000000000000000000000000000000000000000600052603260045260246000fd5b906000526020600020015490506000600281111561091a577f4e487b7100000000000000000000000000000000000000000000000000000000600052602160045260246000fd5b60028281548110610954577f4e487b7100000000000000000000000000000000000000000000000000000000600052603260045260246000fd5b906000526020600020906006020160050160149054906101000a900460ff1660028111156109ab577f4e487b7100000000000000000000000000000000000000000000000000000000600052602160045260246000fd5b14156109bb576109ba8161123b565b5b505080806109c8906120a9565b915050610796565b505050565b6060600060056000848152602001908152602001600020805480602002602001604051908101604052809291908181526020018280548015610a3657602002820191906000526020600020905b815481526020019060010190808311610a22575b505050505090506000815167ffffffffffffffff811115610a80577f4e487b7100000000000000000000000000000000000000000000000000000000600052604160045260246000fd5b604051908082528060200260200182016040528015610ab957816020015b610aa661165f565b815260200190600190039081610a9e5790505b50905060005b8251811015610d0d576002838281518110610b03577f4e487b7100000000000000000000000000000000000000000000000000000000600052603260045260246000fd5b602002602001015181548110610b42577f4e487b7100000000000000000000000000000000000000000000000000000000600052603260045260246000fd5b90600052602060002090600602016040518060e0016040529081600082015481526020016001820154815260200160028201548152602001600382015481526020016004820160009054906101000a900473ffffffffffffffffffffffffffffffffffffffff1673ffffffffffffffffffffffffffffffffffffffff1673ffffffffffffffffffffffffffffffffffffffff1681526020016005820160009054906101000a900473ffffffffffffffffffffffffffffffffffffffff1673ffffffffffffffffffffffffffffffffffffffff1673ffffffffffffffffffffffffffffffffffffffff1681526020016005820160149054906101000a900460ff166002811115610c7a577f4e487b7100000000000000000000000000000000000000000000000000000000600052602160045260246000fd5b6002811115610cb2577f4e487b7100000000000000000000000000000000000000000000000000000000600052602160045260246000fd5b81525050828281518110610cef577f4e487b7100000000000000000000000000000000000000000000000000000000600052603260045260246000fd5b60200260200101819052508080610d05906120a9565b915050610abf565b508092505050919050565b6000606060006003805490501191509250929050565b60005b600380549050811015610e5c578273ffffffffffffffffffffffffffffffffffffffff1660038281548110610d8f577f4e487b7100000000000000000000000000000000000000000000000000000000600052603260045260246000fd5b9060005260206000200160009054906101000a900473ffffffffffffffffffffffffffffffffffffffff1673ffffffffffffffffffffffffffffffffffffffff161415610e495781610e435760038181548110610e15577f4e487b7100000000000000000000000000000000000000000000000000000000600052603260045260246000fd5b9060005260206000200160006101000a81549073ffffffffffffffffffffffffffffffffffffffff02191690555b50610ec8565b8080610e54906120a9565b915050610d31565b508015610ec7576003829080600181540180825580915050600190039060005260206000200160009091909190916101000a81548173ffffffffffffffffffffffffffffffffffffffff021916908373ffffffffffffffffffffffffffffffffffffffff1602179055505b5b5050565b60606000600460008473ffffffffffffffffffffffffffffffffffffffff1673ffffffffffffffffffffffffffffffffffffffff168152602001908152602001600020805480602002602001604051908101604052809291908181526020018280548015610f5957602002820191906000526020600020905b815481526020019060010190808311610f45575b505050505090506000815167ffffffffffffffff811115610fa3577f4e487b7100000000000000000000000000000000000000000000000000000000600052604160045260246000fd5b604051908082528060200260200182016040528015610fdc57816020015b610fc961165f565b815260200190600190039081610fc15790505b50905060005b8251811015611230576002838281518110611026577f4e487b7100000000000000000000000000000000000000000000000000000000600052603260045260246000fd5b602002602001015181548110611065577f4e487b7100000000000000000000000000000000000000000000000000000000600052603260045260246000fd5b90600052602060002090600602016040518060e0016040529081600082015481526020016001820154815260200160028201548152602001600382015481526020016004820160009054906101000a900473ffffffffffffffffffffffffffffffffffffffff1673ffffffffffffffffffffffffffffffffffffffff1673ffffffffffffffffffffffffffffffffffffffff1681526020016005820160009054906101000a900473ffffffffffffffffffffffffffffffffffffffff1673ffffffffffffffffffffffffffffffffffffffff1673ffffffffffffffffffffffffffffffffffffffff1681526020016005820160149054906101000a900460ff16600281111561119d577f4e487b7100000000000000000000000000000000000000000000000000000000600052602160045260246000fd5b60028111156111d5577f4e487b7100000000000000000000000000000000000000000000000000000000600052602160045260246000fd5b81525050828281518110611212577f4e487b7100000000000000000000000000000000000000000000000000000000600052603260045260246000fd5b60200260200101819052508080611228906120a9565b915050610fe2565b508092505050919050565b60006002811115611275577f4e487b7100000000000000000000000000000000000000000000000000000000600052602160045260246000fd5b600282815481106112af577f4e487b7100000000000000000000000000000000000000000000000000000000600052603260045260246000fd5b906000526020600020906006020160050160149054906101000a900460ff166002811115611306577f4e487b7100000000000000000000000000000000000000000000000000000000600052602160045260246000fd5b14611346576040517f08c379a000000000000000000000000000000000000000000000000000000000815260040161133d90611e03565b60405180910390fd5b60028181548110611380577f4e487b7100000000000000000000000000000000000000000000000000000000600052603260045260246000fd5b906000526020600020906006020160020154600282815481106113cc577f4e487b7100000000000000000000000000000000000000000000000000000000600052603260045260246000fd5b906000526020600020906006020160050160009054906101000a900473ffffffffffffffffffffffffffffffffffffffff1673ffffffffffffffffffffffffffffffffffffffff16311015611456576040517f08c379a000000000000000000000000000000000000000000000000000000000815260040161144d90611dc3565b60405180910390fd5b3460028281548110611491577f4e487b7100000000000000000000000000000000000000000000000000000000600052603260045260246000fd5b906000526020600020906006020160020154146114e3576040517f08c379a00000000000000000000000000000000000000000000000000000000081526004016114da90611de3565b60405180910390fd5b60016002828154811061151f577f4e487b7100000000000000000000000000000000000000000000000000000000600052603260045260246000fd5b906000526020600020906006020160050160146101000a81548160ff02191690836002811115611578577f4e487b7100000000000000000000000000000000000000000000000000000000600052602160045260246000fd5b0217905550600281815481106115b7577f4e487b7100000000000000000000000000000000000000000000000000000000600052603260045260246000fd5b906000526020600020906006020160040160009054906101000a900473ffffffffffffffffffffffffffffffffffffffff1673ffffffffffffffffffffffffffffffffffffffff166108fc349081150290604051600060405180830381858888f1935050505015801561162e573d6000803e3d6000fd5b50807f27bbf6b6b99358bb53658438b2896fba25e0837435e7a55340ebb40701b8118160405160405180910390a250565b6040518060e0016040528060008152602001600081526020016000815260200160008152602001600073ffffffffffffffffffffffffffffffffffffffff168152602001600073ffffffffffffffffffffffffffffffffffffffff168152602001600060028111156116fa577f4e487b7100000000000000000000000000000000000000000000000000000000600052602160045260246000fd5b81525090565b600061171361170e84611e8f565b611e5e565b90508281526020810184848401111561172b57600080fd5b611736848285612076565b509392505050565b60008135905061174d816121a4565b92915050565b600081519050611762816121a4565b92915050565b600081359050611777816121bb565b92915050565b60008083601f84011261178f57600080fd5b8235905067ffffffffffffffff8111156117a857600080fd5b6020830191508360018202830111156117c057600080fd5b9250929050565b6000815190506117d6816121d2565b92915050565b600082601f8301126117ed57600080fd5b81516117fd848260208601611700565b91505092915050565b6000610100828403121561181957600080fd5b611824610100611e5e565b90506000611834848285016118f9565b6000830152506020611848848285016118f9565b602083015250604061185c848285016118f9565b604083015250606061187084828501611753565b606083015250608061188484828501611753565b60808301525060a082015167ffffffffffffffff8111156118a457600080fd5b6118b0848285016117dc565b60a08301525060c06118c4848285016117c7565b60c08301525060e06118d8848285016118f9565b60e08301525092915050565b6000813590506118f3816121e2565b92915050565b600081519050611908816121e2565b92915050565b60006020828403121561192057600080fd5b600061192e8482850161173e565b91505092915050565b6000806040838503121561194a57600080fd5b60006119588582860161173e565b925050602061196985828601611768565b9150509250929050565b6000806020838503121561198657600080fd5b600083013567ffffffffffffffff8111156119a057600080fd5b6119ac8582860161177d565b92509250509250929050565b6000602082840312156119ca57600080fd5b600082015167ffffffffffffffff8111156119e457600080fd5b6119f084828501611806565b91505092915050565b600060208284031215611a0b57600080fd5b6000611a19848285016118e4565b91505092915050565b6000611a2e8383611c8a565b60e08301905092915050565b611a4381612009565b82525050565b6000611a5482611ecf565b611a5e8185611ef2565b9350611a6983611ebf565b8060005b83811015611a9a578151611a818882611a22565b9750611a8c83611ee5565b925050600181019050611a6d565b5085935050505092915050565b611ab08161201b565b82525050565b6000611ac182611eda565b611acb8185611f03565b9350611adb818560208601612076565b611ae48161217f565b840191505092915050565b611af881612064565b82525050565b6000611b0b602483611f14565b91507f54686520636f6e747261637420697320696e20616e20696e76616c696420737460008301527f6174652e000000000000000000000000000000000000000000000000000000006020830152604082019050919050565b6000611b71601d83611f14565b91507f506179657220686173206e6f7420656e6f7567682062616c616e63652e0000006000830152602082019050919050565b6000611bb1601383611f14565b91507f507269636520697320696e636f72726563742e000000000000000000000000006000830152602082019050919050565b6000611bf1602883611f14565b91507f546869732062696c6c2077617320616c72656164792070616964206f7220636160008301527f6e63656c6c65642e0000000000000000000000000000000000000000000000006020830152604082019050919050565b6000611c57601f83611f14565b91507f54686520636f6e74726163742068617320616c726561647920656e6465642e006000830152602082019050919050565b60e082016000820151611ca06000850182611d18565b506020820151611cb36020850182611d18565b506040820151611cc66040850182611d18565b506060820151611cd96060850182611d18565b506080820151611cec6080850182611a3a565b5060a0820151611cff60a0850182611a3a565b5060c0820151611d1260c0850182611aef565b50505050565b611d218161205a565b82525050565b611d308161205a565b82525050565b60006020820190508181036000830152611d508184611a49565b905092915050565b6000602082019050611d6d6000830184611aa7565b92915050565b6000604082019050611d886000830185611aa7565b8181036020830152611d9a8184611ab6565b90509392505050565b60006020820190508181036000830152611dbc81611afe565b9050919050565b60006020820190508181036000830152611ddc81611b64565b9050919050565b60006020820190508181036000830152611dfc81611ba4565b9050919050565b60006020820190508181036000830152611e1c81611be4565b9050919050565b60006020820190508181036000830152611e3c81611c4a565b9050919050565b6000602082019050611e586000830184611d27565b92915050565b6000604051905081810181811067ffffffffffffffff82111715611e8557611e84612150565b5b8060405250919050565b600067ffffffffffffffff821115611eaa57611ea9612150565b5b601f19601f8301169050602081019050919050565b6000819050602082019050919050565b600081519050919050565b600081519050919050565b6000602082019050919050565b600082825260208201905092915050565b600082825260208201905092915050565b600082825260208201905092915050565b6000611f308261205a565b9150611f3b8361205a565b9250827fffffffffffffffffffffffffffffffffffffffffffffffffffffffffffffffff03821115611f7057611f6f6120f2565b5b828201905092915050565b6000611f868261205a565b9150611f918361205a565b9250817fffffffffffffffffffffffffffffffffffffffffffffffffffffffffffffffff0483118215151615611fca57611fc96120f2565b5b828202905092915050565b6000611fe08261205a565b9150611feb8361205a565b925082821015611ffe57611ffd6120f2565b5b828203905092915050565b60006120148261203a565b9050919050565b60008115159050919050565b600081905061203582612190565b919050565b600073ffffffffffffffffffffffffffffffffffffffff82169050919050565b6000819050919050565b600061206f82612027565b9050919050565b60005b83811015612094578082015181840152602081019050612079565b838111156120a3576000848401525b50505050565b60006120b48261205a565b91507fffffffffffffffffffffffffffffffffffffffffffffffffffffffffffffffff8214156120e7576120e66120f2565b5b600182019050919050565b7f4e487b7100000000000000000000000000000000000000000000000000000000600052601160045260246000fd5b7f4e487b7100000000000000000000000000000000000000000000000000000000600052602160045260246000fd5b7f4e487b7100000000000000000000000000000000000000000000000000000000600052604160045260246000fd5b6000601f19601f8301169050919050565b600381106121a1576121a0612121565b5b50565b6121ad81612009565b81146121b857600080fd5b50565b6121c48161201b565b81146121cf57600080fd5b50565b600481106121df57600080fd5b50565b6121eb8161205a565b81146121f657600080fd5b5056fea2646970667358221220f779d4c38bcbcd944e5300858311ffcdd37cd48e25c1781af9325d7024bbf4ae64736f6c63430008000033",
  "linkReferences": {},
  "deployedLinkReferences": {}
}