{
  "_format": "hh-sol-artifact-1",
  "contractName": "Payment",
  "sourceName": "contracts/Payment.sol",
  "abi": [
    {
      "inputs": [],
      "stateMutability": "nonpayable",
      "type": "constructor"
    },
    {
      "anonymous": false,
      "inputs": [
        {
          "indexed": false,
          "internalType": "address",
          "name": "payee",
          "type": "address"
        }
      ],
      "name": "AutoPaymentSet",
      "type": "event"
    },
    {
      "anonymous": false,
      "inputs": [
        {
          "indexed": true,
          "internalType": "uint256",
          "name": "id",
          "type": "uint256"
        }
      ],
      "name": "BillCreated",
      "type": "event"
    },
    {
      "anonymous": false,
      "inputs": [
        {
          "indexed": true,
          "internalType": "uint256",
          "name": "id",
          "type": "uint256"
        }
      ],
      "name": "BillPaid",
      "type": "event"
    },
    {
      "inputs": [
        {
          "internalType": "bytes",
          "name": "",
          "type": "bytes"
        }
      ],
      "name": "checkUpkeep",
      "outputs": [
        {
          "internalType": "bool",
          "name": "upkeepNeeded",
          "type": "bool"
        },
        {
          "internalType": "bytes",
          "name": "performData",
          "type": "bytes"
        }
      ],
      "stateMutability": "nonpayable",
      "type": "function"
    },
    {
      "inputs": [
        {
          "internalType": "uint256",
          "name": "contractId",
          "type": "uint256"
        }
      ],
      "name": "createBill",
      "outputs": [],
      "stateMutability": "nonpayable",
      "type": "function"
    },
    {
      "inputs": [
        {
          "internalType": "address",
          "name": "_address",
          "type": "address"
        }
      ],
      "name": "getBillsByAddress",
      "outputs": [
        {
          "components": [
            {
              "internalType": "uint256",
              "name": "billId",
              "type": "uint256"
            },
            {
              "internalType": "uint256",
              "name": "contractId",
              "type": "uint256"
            },
            {
              "internalType": "uint256",
              "name": "price",
              "type": "uint256"
            },
            {
              "internalType": "uint256",
              "name": "billingDate",
              "type": "uint256"
            },
            {
              "internalType": "address",
              "name": "payee",
              "type": "address"
            },
            {
              "internalType": "address",
              "name": "payer",
              "type": "address"
            },
            {
              "internalType": "enum Payment.State",
              "name": "state",
              "type": "uint8"
            }
          ],
          "internalType": "struct Payment.Bill[]",
          "name": "",
          "type": "tuple[]"
        }
      ],
      "stateMutability": "view",
      "type": "function"
    },
    {
      "inputs": [
        {
          "internalType": "uint256",
          "name": "contractId",
          "type": "uint256"
        }
      ],
      "name": "getBillsByContractId",
      "outputs": [
        {
          "components": [
            {
              "internalType": "uint256",
              "name": "billId",
              "type": "uint256"
            },
            {
              "internalType": "uint256",
              "name": "contractId",
              "type": "uint256"
            },
            {
              "internalType": "uint256",
              "name": "price",
              "type": "uint256"
            },
            {
              "internalType": "uint256",
              "name": "billingDate",
              "type": "uint256"
            },
            {
              "internalType": "address",
              "name": "payee",
              "type": "address"
            },
            {
              "internalType": "address",
              "name": "payer",
              "type": "address"
            },
            {
              "internalType": "enum Payment.State",
              "name": "state",
              "type": "uint8"
            }
          ],
          "internalType": "struct Payment.Bill[]",
          "name": "",
          "type": "tuple[]"
        }
      ],
      "stateMutability": "view",
      "type": "function"
    },
    {
      "inputs": [
        {
          "internalType": "address",
          "name": "_address",
          "type": "address"
        }
      ],
      "name": "isAutoPaymentSetup",
      "outputs": [
        {
          "internalType": "bool",
          "name": "",
          "type": "bool"
        }
      ],
      "stateMutability": "view",
      "type": "function"
    },
    {
      "inputs": [
        {
          "internalType": "uint256",
          "name": "billId",
          "type": "uint256"
        }
      ],
      "name": "payBill",
      "outputs": [],
      "stateMutability": "payable",
      "type": "function"
    },
    {
      "inputs": [
        {
          "internalType": "bytes",
          "name": "performData",
          "type": "bytes"
        }
      ],
      "name": "performUpkeep",
      "outputs": [],
      "stateMutability": "nonpayable",
      "type": "function"
    },
    {
      "inputs": [
        {
          "internalType": "bool",
          "name": "autoPayment",
          "type": "bool"
        }
      ],
      "name": "setAutoPayment",
      "outputs": [],
      "stateMutability": "nonpayable",
      "type": "function"
    }
  ],
  "bytecode": "0x608060405273090c914388d0c303a3a7b6010e80f1274498511b600160006101000a81548173ffffffffffffffffffffffffffffffffffffffff021916908373ffffffffffffffffffffffffffffffffffffffff16021790555034801561006557600080fd5b50600160009054906101000a900473ffffffffffffffffffffffffffffffffffffffff166000806101000a81548173ffffffffffffffffffffffffffffffffffffffff021916908373ffffffffffffffffffffffffffffffffffffffff16021790555061227c806100d76000396000f3fe60806040526004361061007b5760003560e01c80636e04ff0d1161004e5780636e04ff0d1461014c578063e30291961461018a578063e64d3300146101c7578063f0975190146101f05761007b565b80631c8f078914610080578063272e9d44146100a95780634585e33b146100e657806362261b811461010f575b600080fd5b34801561008c57600080fd5b506100a760048036038101906100a29190611a1c565b61020c565b005b3480156100b557600080fd5b506100d060048036038101906100cb9190611944565b6106be565b6040516100dd9190611da5565b60405180910390f35b3480156100f257600080fd5b5061010d60048036038101906101089190611996565b610793565b005b34801561011b57600080fd5b5061013660048036038101906101319190611a1c565b6109d5565b6040516101439190611d83565b60405180910390f35b34801561015857600080fd5b50610173600480360381019061016e9190611996565b610d18565b604051610181929190611dc0565b60405180910390f35b34801561019657600080fd5b506101b160048036038101906101ac9190611944565b610d2e565b6040516101be9190611d83565b60405180910390f35b3480156101d357600080fd5b506101ee60048036038101906101e9919061196d565b61109d565b005b61020a60048036038101906102059190611a1c565b611271565b005b60008060009054906101000a900473ffffffffffffffffffffffffffffffffffffffff1673ffffffffffffffffffffffffffffffffffffffff16638ba9ac6f836040518263ffffffff1660e01b81526004016102689190611e90565b60006040518083038186803b15801561028057600080fd5b505afa158015610294573d6000803e3d6000fd5b505050506040513d6000823e3d601f19601f820116820180604052508101906102bd91906119db565b905080604001514210610305576040517f08c379a00000000000000000000000000000000000000000000000000000000081526004016102fc90611e70565b60405180910390fd5b6002600381111561033f577f4e487b7100000000000000000000000000000000000000000000000000000000600052602160045260246000fd5b8160c00151600381111561037c577f4e487b7100000000000000000000000000000000000000000000000000000000600052602160045260246000fd5b146103bc576040517f08c379a00000000000000000000000000000000000000000000000000000000081526004016103b390611df0565b60405180910390fd5b600062278d00600560008581526020019081526020016000208054905060016103e59190611f72565b6103ef9190611fc8565b82602001516103fe9190611f72565b90506000600280549050905060026040518060e001604052808381526020018681526020018560e001518152602001848152602001856060015173ffffffffffffffffffffffffffffffffffffffff168152602001856080015173ffffffffffffffffffffffffffffffffffffffff168152602001600060028111156104ad577f4e487b7100000000000000000000000000000000000000000000000000000000600052602160045260246000fd5b81525090806001815401808255809150506001900390600052602060002090600602016000909190919091506000820151816000015560208201518160010155604082015181600201556060820151816003015560808201518160040160006101000a81548173ffffffffffffffffffffffffffffffffffffffff021916908373ffffffffffffffffffffffffffffffffffffffff16021790555060a08201518160050160006101000a81548173ffffffffffffffffffffffffffffffffffffffff021916908373ffffffffffffffffffffffffffffffffffffffff16021790555060c08201518160050160146101000a81548160ff021916908360028111156105e0577f4e487b7100000000000000000000000000000000000000000000000000000000600052602160045260246000fd5b021790555050506005600085815260200190815260200160002081908060018154018082558091505060019003906000526020600020016000909190919091505560046000846080015173ffffffffffffffffffffffffffffffffffffffff1673ffffffffffffffffffffffffffffffffffffffff168152602001908152602001600020819080600181540180825580915050600190039060005260206000200160009091909190915055807f2068d8834dc901bd98fb59293bf355f648a06575e1e29a17fc17f5007fbb9a5c60405160405180910390a250505050565b600080600090505b600380549050811015610788578273ffffffffffffffffffffffffffffffffffffffff1660038281548110610724577f4e487b7100000000000000000000000000000000000000000000000000000000600052603260045260246000fd5b9060005260206000200160009054906101000a900473ffffffffffffffffffffffffffffffffffffffff1673ffffffffffffffffffffffffffffffffffffffff16141561077557600191505061078e565b8080610780906120f6565b9150506106c6565b50600090505b919050565b60005b6003805490508110156109d0576000600382815481106107df577f4e487b7100000000000000000000000000000000000000000000000000000000600052603260045260246000fd5b9060005260206000200160009054906101000a900473ffffffffffffffffffffffffffffffffffffffff1690506000600460008373ffffffffffffffffffffffffffffffffffffffff1673ffffffffffffffffffffffffffffffffffffffff1681526020019081526020016000206001600460008573ffffffffffffffffffffffffffffffffffffffff1673ffffffffffffffffffffffffffffffffffffffff1681526020019081526020016000208054905061089c9190612022565b815481106108d3577f4e487b7100000000000000000000000000000000000000000000000000000000600052603260045260246000fd5b906000526020600020015490506000600281111561091a577f4e487b7100000000000000000000000000000000000000000000000000000000600052602160045260246000fd5b60028281548110610954577f4e487b7100000000000000000000000000000000000000000000000000000000600052603260045260246000fd5b906000526020600020906006020160050160149054906101000a900460ff1660028111156109ab577f4e487b7100000000000000000000000000000000000000000000000000000000600052602160045260246000fd5b14156109bb576109ba81611271565b5b505080806109c8906120f6565b915050610796565b505050565b6060600060056000848152602001908152602001600020805480602002602001604051908101604052809291908181526020018280548015610a3657602002820191906000526020600020905b815481526020019060010190808311610a22575b505050505090506000815167ffffffffffffffff811115610a80577f4e487b7100000000000000000000000000000000000000000000000000000000600052604160045260246000fd5b604051908082528060200260200182016040528015610ab957816020015b610aa6611695565b815260200190600190039081610a9e5790505b50905060005b8251811015610d0d576002838281518110610b03577f4e487b7100000000000000000000000000000000000000000000000000000000600052603260045260246000fd5b602002602001015181548110610b42577f4e487b7100000000000000000000000000000000000000000000000000000000600052603260045260246000fd5b90600052602060002090600602016040518060e0016040529081600082015481526020016001820154815260200160028201548152602001600382015481526020016004820160009054906101000a900473ffffffffffffffffffffffffffffffffffffffff1673ffffffffffffffffffffffffffffffffffffffff1673ffffffffffffffffffffffffffffffffffffffff1681526020016005820160009054906101000a900473ffffffffffffffffffffffffffffffffffffffff1673ffffffffffffffffffffffffffffffffffffffff1673ffffffffffffffffffffffffffffffffffffffff1681526020016005820160149054906101000a900460ff166002811115610c7a577f4e487b7100000000000000000000000000000000000000000000000000000000600052602160045260246000fd5b6002811115610cb2577f4e487b7100000000000000000000000000000000000000000000000000000000600052602160045260246000fd5b81525050828281518110610cef577f4e487b7100000000000000000000000000000000000000000000000000000000600052603260045260246000fd5b60200260200101819052508080610d05906120f6565b915050610abf565b508092505050919050565b6000606060006003805490501191509250929050565b60606000600460008473ffffffffffffffffffffffffffffffffffffffff1673ffffffffffffffffffffffffffffffffffffffff168152602001908152602001600020805480602002602001604051908101604052809291908181526020018280548015610dbb57602002820191906000526020600020905b815481526020019060010190808311610da7575b505050505090506000815167ffffffffffffffff811115610e05577f4e487b7100000000000000000000000000000000000000000000000000000000600052604160045260246000fd5b604051908082528060200260200182016040528015610e3e57816020015b610e2b611695565b815260200190600190039081610e235790505b50905060005b8251811015611092576002838281518110610e88577f4e487b7100000000000000000000000000000000000000000000000000000000600052603260045260246000fd5b602002602001015181548110610ec7577f4e487b7100000000000000000000000000000000000000000000000000000000600052603260045260246000fd5b90600052602060002090600602016040518060e0016040529081600082015481526020016001820154815260200160028201548152602001600382015481526020016004820160009054906101000a900473ffffffffffffffffffffffffffffffffffffffff1673ffffffffffffffffffffffffffffffffffffffff1673ffffffffffffffffffffffffffffffffffffffff1681526020016005820160009054906101000a900473ffffffffffffffffffffffffffffffffffffffff1673ffffffffffffffffffffffffffffffffffffffff1673ffffffffffffffffffffffffffffffffffffffff1681526020016005820160149054906101000a900460ff166002811115610fff577f4e487b7100000000000000000000000000000000000000000000000000000000600052602160045260246000fd5b6002811115611037577f4e487b7100000000000000000000000000000000000000000000000000000000600052602160045260246000fd5b81525050828281518110611074577f4e487b7100000000000000000000000000000000000000000000000000000000600052603260045260246000fd5b6020026020010181905250808061108a906120f6565b915050610e44565b508092505050919050565b60005b6003805490508110156111cb573373ffffffffffffffffffffffffffffffffffffffff16600382815481106110fe577f4e487b7100000000000000000000000000000000000000000000000000000000600052603260045260246000fd5b9060005260206000200160009054906101000a900473ffffffffffffffffffffffffffffffffffffffff1673ffffffffffffffffffffffffffffffffffffffff1614156111b857816111b25760038181548110611184577f4e487b7100000000000000000000000000000000000000000000000000000000600052603260045260246000fd5b9060005260206000200160006101000a81549073ffffffffffffffffffffffffffffffffffffffff02191690555b5061126e565b80806111c3906120f6565b9150506110a0565b508015611236576003339080600181540180825580915050600190039060005260206000200160009091909190916101000a81548173ffffffffffffffffffffffffffffffffffffffff021916908373ffffffffffffffffffffffffffffffffffffffff1602179055505b7fe3d6779165980f01ee948db304d9305996aa836a323d3b83388ab304c75d7edf336040516112659190611d68565b60405180910390a15b50565b600060028111156112ab577f4e487b7100000000000000000000000000000000000000000000000000000000600052602160045260246000fd5b600282815481106112e5577f4e487b7100000000000000000000000000000000000000000000000000000000600052603260045260246000fd5b906000526020600020906006020160050160149054906101000a900460ff16600281111561133c577f4e487b7100000000000000000000000000000000000000000000000000000000600052602160045260246000fd5b1461137c576040517f08c379a000000000000000000000000000000000000000000000000000000000815260040161137390611e50565b60405180910390fd5b600281815481106113b6577f4e487b7100000000000000000000000000000000000000000000000000000000600052603260045260246000fd5b90600052602060002090600602016002015460028281548110611402577f4e487b7100000000000000000000000000000000000000000000000000000000600052603260045260246000fd5b906000526020600020906006020160050160009054906101000a900473ffffffffffffffffffffffffffffffffffffffff1673ffffffffffffffffffffffffffffffffffffffff1631101561148c576040517f08c379a000000000000000000000000000000000000000000000000000000000815260040161148390611e10565b60405180910390fd5b34600282815481106114c7577f4e487b7100000000000000000000000000000000000000000000000000000000600052603260045260246000fd5b90600052602060002090600602016002015414611519576040517f08c379a000000000000000000000000000000000000000000000000000000000815260040161151090611e30565b60405180910390fd5b600160028281548110611555577f4e487b7100000000000000000000000000000000000000000000000000000000600052603260045260246000fd5b906000526020600020906006020160050160146101000a81548160ff021916908360028111156115ae577f4e487b7100000000000000000000000000000000000000000000000000000000600052602160045260246000fd5b0217905550600281815481106115ed577f4e487b7100000000000000000000000000000000000000000000000000000000600052603260045260246000fd5b906000526020600020906006020160040160009054906101000a900473ffffffffffffffffffffffffffffffffffffffff1673ffffffffffffffffffffffffffffffffffffffff166108fc349081150290604051600060405180830381858888f19350505050158015611664573d6000803e3d6000fd5b50807f27bbf6b6b99358bb53658438b2896fba25e0837435e7a55340ebb40701b8118160405160405180910390a250565b6040518060e0016040528060008152602001600081526020016000815260200160008152602001600073ffffffffffffffffffffffffffffffffffffffff168152602001600073ffffffffffffffffffffffffffffffffffffffff16815260200160006002811115611730577f4e487b7100000000000000000000000000000000000000000000000000000000600052602160045260246000fd5b81525090565b600061174961174484611edc565b611eab565b90508281526020810184848401111561176157600080fd5b61176c8482856120c3565b509392505050565b600081359050611783816121f1565b92915050565b600081519050611798816121f1565b92915050565b6000813590506117ad81612208565b92915050565b60008083601f8401126117c557600080fd5b8235905067ffffffffffffffff8111156117de57600080fd5b6020830191508360018202830111156117f657600080fd5b9250929050565b60008151905061180c8161221f565b92915050565b600082601f83011261182357600080fd5b8151611833848260208601611736565b91505092915050565b6000610100828403121561184f57600080fd5b61185a610100611eab565b9050600061186a8482850161192f565b600083015250602061187e8482850161192f565b60208301525060406118928482850161192f565b60408301525060606118a684828501611789565b60608301525060806118ba84828501611789565b60808301525060a082015167ffffffffffffffff8111156118da57600080fd5b6118e684828501611812565b60a08301525060c06118fa848285016117fd565b60c08301525060e061190e8482850161192f565b60e08301525092915050565b6000813590506119298161222f565b92915050565b60008151905061193e8161222f565b92915050565b60006020828403121561195657600080fd5b600061196484828501611774565b91505092915050565b60006020828403121561197f57600080fd5b600061198d8482850161179e565b91505092915050565b600080602083850312156119a957600080fd5b600083013567ffffffffffffffff8111156119c357600080fd5b6119cf858286016117b3565b92509250509250929050565b6000602082840312156119ed57600080fd5b600082015167ffffffffffffffff811115611a0757600080fd5b611a138482850161183c565b91505092915050565b600060208284031215611a2e57600080fd5b6000611a3c8482850161191a565b91505092915050565b6000611a518383611cbc565b60e08301905092915050565b611a6681612056565b82525050565b611a7581612056565b82525050565b6000611a8682611f1c565b611a908185611f3f565b9350611a9b83611f0c565b8060005b83811015611acc578151611ab38882611a45565b9750611abe83611f32565b925050600181019050611a9f565b5085935050505092915050565b611ae281612068565b82525050565b6000611af382611f27565b611afd8185611f50565b9350611b0d8185602086016120c3565b611b16816121cc565b840191505092915050565b611b2a816120b1565b82525050565b6000611b3d602483611f61565b91507f54686520636f6e747261637420697320696e20616e20696e76616c696420737460008301527f6174652e000000000000000000000000000000000000000000000000000000006020830152604082019050919050565b6000611ba3601d83611f61565b91507f506179657220686173206e6f7420656e6f7567682062616c616e63652e0000006000830152602082019050919050565b6000611be3601383611f61565b91507f507269636520697320696e636f72726563742e000000000000000000000000006000830152602082019050919050565b6000611c23602883611f61565b91507f546869732062696c6c2077617320616c72656164792070616964206f7220636160008301527f6e63656c6c65642e0000000000000000000000000000000000000000000000006020830152604082019050919050565b6000611c89601f83611f61565b91507f54686520636f6e74726163742068617320616c726561647920656e6465642e006000830152602082019050919050565b60e082016000820151611cd26000850182611d4a565b506020820151611ce56020850182611d4a565b506040820151611cf86040850182611d4a565b506060820151611d0b6060850182611d4a565b506080820151611d1e6080850182611a5d565b5060a0820151611d3160a0850182611a5d565b5060c0820151611d4460c0850182611b21565b50505050565b611d53816120a7565b82525050565b611d62816120a7565b82525050565b6000602082019050611d7d6000830184611a6c565b92915050565b60006020820190508181036000830152611d9d8184611a7b565b905092915050565b6000602082019050611dba6000830184611ad9565b92915050565b6000604082019050611dd56000830185611ad9565b8181036020830152611de78184611ae8565b90509392505050565b60006020820190508181036000830152611e0981611b30565b9050919050565b60006020820190508181036000830152611e2981611b96565b9050919050565b60006020820190508181036000830152611e4981611bd6565b9050919050565b60006020820190508181036000830152611e6981611c16565b9050919050565b60006020820190508181036000830152611e8981611c7c565b9050919050565b6000602082019050611ea56000830184611d59565b92915050565b6000604051905081810181811067ffffffffffffffff82111715611ed257611ed161219d565b5b8060405250919050565b600067ffffffffffffffff821115611ef757611ef661219d565b5b601f19601f8301169050602081019050919050565b6000819050602082019050919050565b600081519050919050565b600081519050919050565b6000602082019050919050565b600082825260208201905092915050565b600082825260208201905092915050565b600082825260208201905092915050565b6000611f7d826120a7565b9150611f88836120a7565b9250827fffffffffffffffffffffffffffffffffffffffffffffffffffffffffffffffff03821115611fbd57611fbc61213f565b5b828201905092915050565b6000611fd3826120a7565b9150611fde836120a7565b9250817fffffffffffffffffffffffffffffffffffffffffffffffffffffffffffffffff04831182151516156120175761201661213f565b5b828202905092915050565b600061202d826120a7565b9150612038836120a7565b92508282101561204b5761204a61213f565b5b828203905092915050565b600061206182612087565b9050919050565b60008115159050919050565b6000819050612082826121dd565b919050565b600073ffffffffffffffffffffffffffffffffffffffff82169050919050565b6000819050919050565b60006120bc82612074565b9050919050565b60005b838110156120e15780820151818401526020810190506120c6565b838111156120f0576000848401525b50505050565b6000612101826120a7565b91507fffffffffffffffffffffffffffffffffffffffffffffffffffffffffffffffff8214156121345761213361213f565b5b600182019050919050565b7f4e487b7100000000000000000000000000000000000000000000000000000000600052601160045260246000fd5b7f4e487b7100000000000000000000000000000000000000000000000000000000600052602160045260246000fd5b7f4e487b7100000000000000000000000000000000000000000000000000000000600052604160045260246000fd5b6000601f19601f8301169050919050565b600381106121ee576121ed61216e565b5b50565b6121fa81612056565b811461220557600080fd5b50565b61221181612068565b811461221c57600080fd5b50565b6004811061222c57600080fd5b50565b612238816120a7565b811461224357600080fd5b5056fea2646970667358221220f613e44a507f7e34993ac78d10332f9f76e4708a81e8d1f167d6bc314785c79064736f6c63430008000033",
  "linkReferences": {},
  "deployedLinkReferences": {}
}