{
  "_format": "hh-sol-artifact-1",
  "contractName": "Payment",
  "sourceName": "contracts/Payment.sol",
  "abi": [
    {
      "inputs": [],
      "stateMutability": "nonpayable",
      "type": "constructor"
    },
    {
      "anonymous": false,
      "inputs": [
        {
          "indexed": true,
          "internalType": "uint256",
          "name": "id",
          "type": "uint256"
        }
      ],
      "name": "BillCreated",
      "type": "event"
    },
    {
      "anonymous": false,
      "inputs": [
        {
          "indexed": true,
          "internalType": "uint256",
          "name": "id",
          "type": "uint256"
        }
      ],
      "name": "BillPaid",
      "type": "event"
    },
    {
      "inputs": [
        {
          "internalType": "uint256",
          "name": "contractId",
          "type": "uint256"
        }
      ],
      "name": "createBill",
      "outputs": [],
      "stateMutability": "nonpayable",
      "type": "function"
    },
    {
      "inputs": [
        {
          "internalType": "address",
          "name": "_address",
          "type": "address"
        }
      ],
      "name": "getBillsByAddress",
      "outputs": [
        {
          "components": [
            {
              "internalType": "uint256",
              "name": "billId",
              "type": "uint256"
            },
            {
              "internalType": "uint256",
              "name": "contractId",
              "type": "uint256"
            },
            {
              "internalType": "uint256",
              "name": "price",
              "type": "uint256"
            },
            {
              "internalType": "uint256",
              "name": "billingDate",
              "type": "uint256"
            },
            {
              "internalType": "address",
              "name": "payee",
              "type": "address"
            },
            {
              "internalType": "address",
              "name": "payer",
              "type": "address"
            },
            {
              "internalType": "enum Payment.State",
              "name": "state",
              "type": "uint8"
            }
          ],
          "internalType": "struct Payment.Bill[]",
          "name": "",
          "type": "tuple[]"
        }
      ],
      "stateMutability": "view",
      "type": "function"
    },
    {
      "inputs": [
        {
          "internalType": "uint256",
          "name": "contractId",
          "type": "uint256"
        }
      ],
      "name": "getBillsByContractId",
      "outputs": [
        {
          "components": [
            {
              "internalType": "uint256",
              "name": "billId",
              "type": "uint256"
            },
            {
              "internalType": "uint256",
              "name": "contractId",
              "type": "uint256"
            },
            {
              "internalType": "uint256",
              "name": "price",
              "type": "uint256"
            },
            {
              "internalType": "uint256",
              "name": "billingDate",
              "type": "uint256"
            },
            {
              "internalType": "address",
              "name": "payee",
              "type": "address"
            },
            {
              "internalType": "address",
              "name": "payer",
              "type": "address"
            },
            {
              "internalType": "enum Payment.State",
              "name": "state",
              "type": "uint8"
            }
          ],
          "internalType": "struct Payment.Bill[]",
          "name": "",
          "type": "tuple[]"
        }
      ],
      "stateMutability": "view",
      "type": "function"
    },
    {
      "inputs": [
        {
          "internalType": "uint256",
          "name": "billId",
          "type": "uint256"
        }
      ],
      "name": "payBill",
      "outputs": [],
      "stateMutability": "payable",
      "type": "function"
    }
  ],
  "bytecode": "0x608060405273337fecbc7be3312a9d65c947072c4a1355d99c75600160006101000a81548173ffffffffffffffffffffffffffffffffffffffff021916908373ffffffffffffffffffffffffffffffffffffffff16021790555034801561006557600080fd5b50600160009054906101000a900473ffffffffffffffffffffffffffffffffffffffff166000806101000a81548173ffffffffffffffffffffffffffffffffffffffff021916908373ffffffffffffffffffffffffffffffffffffffff160217905550611869806100d76000396000f3fe60806040526004361061003f5760003560e01c80631c8f07891461004457806362261b811461006d578063e3029196146100aa578063f0975190146100e7575b600080fd5b34801561005057600080fd5b5061006b60048036038101906100669190611230565b610103565b005b34801561007957600080fd5b50610094600480360381019061008f9190611230565b6105b2565b6040516100a1919061147f565b60405180910390f35b3480156100b657600080fd5b506100d160048036038101906100cc91906111c6565b6108f5565b6040516100de919061147f565b60405180910390f35b61010160048036038101906100fc9190611230565b610c64565b005b60008060009054906101000a900473ffffffffffffffffffffffffffffffffffffffff1673ffffffffffffffffffffffffffffffffffffffff16638ba9ac6f836040518263ffffffff1660e01b815260040161015f9190611501565b60006040518083038186803b15801561017757600080fd5b505afa15801561018b573d6000803e3d6000fd5b505050506040513d6000823e3d601f19601f820116820180604052508101906101b491906111ef565b9050806040015142106101fc576040517f08c379a00000000000000000000000000000000000000000000000000000000081526004016101f3906114e1565b60405180910390fd5b60026003811115610236577f4e487b7100000000000000000000000000000000000000000000000000000000600052602160045260246000fd5b8160c001516003811115610273577f4e487b7100000000000000000000000000000000000000000000000000000000600052602160045260246000fd5b146102b3576040517f08c379a00000000000000000000000000000000000000000000000000000000081526004016102aa906114a1565b60405180910390fd5b600062278d00600460008581526020019081526020016000208054905060016102dc91906115c7565b6102e6919061161d565b82602001516102f591906115c7565b90506000600280549050905060026040518060e001604052808381526020018681526020018560e001518152602001848152602001856060015173ffffffffffffffffffffffffffffffffffffffff168152602001600073ffffffffffffffffffffffffffffffffffffffff168152602001600060028111156103a1577f4e487b7100000000000000000000000000000000000000000000000000000000600052602160045260246000fd5b81525090806001815401808255809150506001900390600052602060002090600602016000909190919091506000820151816000015560208201518160010155604082015181600201556060820151816003015560808201518160040160006101000a81548173ffffffffffffffffffffffffffffffffffffffff021916908373ffffffffffffffffffffffffffffffffffffffff16021790555060a08201518160050160006101000a81548173ffffffffffffffffffffffffffffffffffffffff021916908373ffffffffffffffffffffffffffffffffffffffff16021790555060c08201518160050160146101000a81548160ff021916908360028111156104d4577f4e487b7100000000000000000000000000000000000000000000000000000000600052602160045260246000fd5b021790555050506004600085815260200190815260200160002081908060018154018082558091505060019003906000526020600020016000909190919091505560036000846080015173ffffffffffffffffffffffffffffffffffffffff1673ffffffffffffffffffffffffffffffffffffffff168152602001908152602001600020819080600181540180825580915050600190039060005260206000200160009091909190915055807f2068d8834dc901bd98fb59293bf355f648a06575e1e29a17fc17f5007fbb9a5c60405160405180910390a250505050565b606060006004600084815260200190815260200160002080548060200260200160405190810160405280929190818152602001828054801561061357602002820191906000526020600020905b8154815260200190600101908083116105ff575b505050505090506000815167ffffffffffffffff81111561065d577f4e487b7100000000000000000000000000000000000000000000000000000000600052604160045260246000fd5b60405190808252806020026020018201604052801561069657816020015b610683610f76565b81526020019060019003908161067b5790505b50905060005b82518110156108ea5760028382815181106106e0577f4e487b7100000000000000000000000000000000000000000000000000000000600052603260045260246000fd5b60200260200101518154811061071f577f4e487b7100000000000000000000000000000000000000000000000000000000600052603260045260246000fd5b90600052602060002090600602016040518060e0016040529081600082015481526020016001820154815260200160028201548152602001600382015481526020016004820160009054906101000a900473ffffffffffffffffffffffffffffffffffffffff1673ffffffffffffffffffffffffffffffffffffffff1673ffffffffffffffffffffffffffffffffffffffff1681526020016005820160009054906101000a900473ffffffffffffffffffffffffffffffffffffffff1673ffffffffffffffffffffffffffffffffffffffff1673ffffffffffffffffffffffffffffffffffffffff1681526020016005820160149054906101000a900460ff166002811115610857577f4e487b7100000000000000000000000000000000000000000000000000000000600052602160045260246000fd5b600281111561088f577f4e487b7100000000000000000000000000000000000000000000000000000000600052602160045260246000fd5b815250508282815181106108cc577f4e487b7100000000000000000000000000000000000000000000000000000000600052603260045260246000fd5b602002602001018190525080806108e29061170b565b91505061069c565b508092505050919050565b60606000600360008473ffffffffffffffffffffffffffffffffffffffff1673ffffffffffffffffffffffffffffffffffffffff16815260200190815260200160002080548060200260200160405190810160405280929190818152602001828054801561098257602002820191906000526020600020905b81548152602001906001019080831161096e575b505050505090506000815167ffffffffffffffff8111156109cc577f4e487b7100000000000000000000000000000000000000000000000000000000600052604160045260246000fd5b604051908082528060200260200182016040528015610a0557816020015b6109f2610f76565b8152602001906001900390816109ea5790505b50905060005b8251811015610c59576002838281518110610a4f577f4e487b7100000000000000000000000000000000000000000000000000000000600052603260045260246000fd5b602002602001015181548110610a8e577f4e487b7100000000000000000000000000000000000000000000000000000000600052603260045260246000fd5b90600052602060002090600602016040518060e0016040529081600082015481526020016001820154815260200160028201548152602001600382015481526020016004820160009054906101000a900473ffffffffffffffffffffffffffffffffffffffff1673ffffffffffffffffffffffffffffffffffffffff1673ffffffffffffffffffffffffffffffffffffffff1681526020016005820160009054906101000a900473ffffffffffffffffffffffffffffffffffffffff1673ffffffffffffffffffffffffffffffffffffffff1673ffffffffffffffffffffffffffffffffffffffff1681526020016005820160149054906101000a900460ff166002811115610bc6577f4e487b7100000000000000000000000000000000000000000000000000000000600052602160045260246000fd5b6002811115610bfe577f4e487b7100000000000000000000000000000000000000000000000000000000600052602160045260246000fd5b81525050828281518110610c3b577f4e487b7100000000000000000000000000000000000000000000000000000000600052603260045260246000fd5b60200260200101819052508080610c519061170b565b915050610a0b565b508092505050919050565b60016002811115610c9e577f4e487b7100000000000000000000000000000000000000000000000000000000600052602160045260246000fd5b60028281548110610cd8577f4e487b7100000000000000000000000000000000000000000000000000000000600052603260045260246000fd5b906000526020600020906006020160050160149054906101000a900460ff166002811115610d2f577f4e487b7100000000000000000000000000000000000000000000000000000000600052602160045260246000fd5b1415610d70576040517f08c379a0000000000000000000000000000000000000000000000000000000008152600401610d67906114c1565b60405180910390fd5b600160028281548110610dac577f4e487b7100000000000000000000000000000000000000000000000000000000600052603260045260246000fd5b906000526020600020906006020160050160146101000a81548160ff02191690836002811115610e05577f4e487b7100000000000000000000000000000000000000000000000000000000600052602160045260246000fd5b02179055503360028281548110610e45577f4e487b7100000000000000000000000000000000000000000000000000000000600052603260045260246000fd5b906000526020600020906006020160050160006101000a81548173ffffffffffffffffffffffffffffffffffffffff021916908373ffffffffffffffffffffffffffffffffffffffff16021790555060028181548110610ece577f4e487b7100000000000000000000000000000000000000000000000000000000600052603260045260246000fd5b906000526020600020906006020160040160009054906101000a900473ffffffffffffffffffffffffffffffffffffffff1673ffffffffffffffffffffffffffffffffffffffff166108fc349081150290604051600060405180830381858888f19350505050158015610f45573d6000803e3d6000fd5b50807f27bbf6b6b99358bb53658438b2896fba25e0837435e7a55340ebb40701b8118160405160405180910390a250565b6040518060e0016040528060008152602001600081526020016000815260200160008152602001600073ffffffffffffffffffffffffffffffffffffffff168152602001600073ffffffffffffffffffffffffffffffffffffffff16815260200160006002811115611011577f4e487b7100000000000000000000000000000000000000000000000000000000600052602160045260246000fd5b81525090565b600061102a6110258461154d565b61151c565b90508281526020810184848401111561104257600080fd5b61104d8482856116d8565b509392505050565b600081359050611064816117f5565b92915050565b600081519050611079816117f5565b92915050565b60008151905061108e8161180c565b92915050565b600082601f8301126110a557600080fd5b81516110b5848260208601611017565b91505092915050565b600061010082840312156110d157600080fd5b6110dc61010061151c565b905060006110ec848285016111b1565b6000830152506020611100848285016111b1565b6020830152506040611114848285016111b1565b60408301525060606111288482850161106a565b606083015250608061113c8482850161106a565b60808301525060a082015167ffffffffffffffff81111561115c57600080fd5b61116884828501611094565b60a08301525060c061117c8482850161107f565b60c08301525060e0611190848285016111b1565b60e08301525092915050565b6000813590506111ab8161181c565b92915050565b6000815190506111c08161181c565b92915050565b6000602082840312156111d857600080fd5b60006111e684828501611055565b91505092915050565b60006020828403121561120157600080fd5b600082015167ffffffffffffffff81111561121b57600080fd5b611227848285016110be565b91505092915050565b60006020828403121561124257600080fd5b60006112508482850161119c565b91505092915050565b600061126583836113d3565b60e08301905092915050565b61127a81611677565b82525050565b600061128b8261158d565b61129581856115a5565b93506112a08361157d565b8060005b838110156112d15781516112b88882611259565b97506112c383611598565b9250506001810190506112a4565b5085935050505092915050565b6112e7816116c6565b82525050565b60006112fa6024836115b6565b91507f54686520636f6e747261637420697320696e20616e20696e76616c696420737460008301527f6174652e000000000000000000000000000000000000000000000000000000006020830152604082019050919050565b6000611360601b836115b6565b91507f546869732062696c6c2077617320616c726561647920706169642e00000000006000830152602082019050919050565b60006113a0601f836115b6565b91507f54686520636f6e74726163742068617320616c726561647920656e6465642e006000830152602082019050919050565b60e0820160008201516113e96000850182611461565b5060208201516113fc6020850182611461565b50604082015161140f6040850182611461565b5060608201516114226060850182611461565b5060808201516114356080850182611271565b5060a082015161144860a0850182611271565b5060c082015161145b60c08501826112de565b50505050565b61146a816116bc565b82525050565b611479816116bc565b82525050565b600060208201905081810360008301526114998184611280565b905092915050565b600060208201905081810360008301526114ba816112ed565b9050919050565b600060208201905081810360008301526114da81611353565b9050919050565b600060208201905081810360008301526114fa81611393565b9050919050565b60006020820190506115166000830184611470565b92915050565b6000604051905081810181811067ffffffffffffffff82111715611543576115426117b2565b5b8060405250919050565b600067ffffffffffffffff821115611568576115676117b2565b5b601f19601f8301169050602081019050919050565b6000819050602082019050919050565b600081519050919050565b6000602082019050919050565b600082825260208201905092915050565b600082825260208201905092915050565b60006115d2826116bc565b91506115dd836116bc565b9250827fffffffffffffffffffffffffffffffffffffffffffffffffffffffffffffffff0382111561161257611611611754565b5b828201905092915050565b6000611628826116bc565b9150611633836116bc565b9250817fffffffffffffffffffffffffffffffffffffffffffffffffffffffffffffffff048311821515161561166c5761166b611754565b5b828202905092915050565b60006116828261169c565b9050919050565b6000819050611697826117e1565b919050565b600073ffffffffffffffffffffffffffffffffffffffff82169050919050565b6000819050919050565b60006116d182611689565b9050919050565b60005b838110156116f65780820151818401526020810190506116db565b83811115611705576000848401525b50505050565b6000611716826116bc565b91507fffffffffffffffffffffffffffffffffffffffffffffffffffffffffffffffff82141561174957611748611754565b5b600182019050919050565b7f4e487b7100000000000000000000000000000000000000000000000000000000600052601160045260246000fd5b7f4e487b7100000000000000000000000000000000000000000000000000000000600052602160045260246000fd5b7f4e487b7100000000000000000000000000000000000000000000000000000000600052604160045260246000fd5b600381106117f2576117f1611783565b5b50565b6117fe81611677565b811461180957600080fd5b50565b6004811061181957600080fd5b50565b611825816116bc565b811461183057600080fd5b5056fea264697066735822122060c0fde7b72fe5fc79df0b0c676b3e6ac8db98f31f595411d7446b4b7a127c9f64736f6c63430008000033",
  "linkReferences": {},
  "deployedLinkReferences": {}
}