{
  "_format": "hh-sol-artifact-1",
  "contractName": "Rent",
  "sourceName": "contracts/Rent.sol",
  "abi": [
    {
      "inputs": [],
      "stateMutability": "nonpayable",
      "type": "constructor"
    },
    {
      "anonymous": false,
      "inputs": [
        {
          "indexed": true,
          "internalType": "uint256",
          "name": "id",
          "type": "uint256"
        },
        {
          "indexed": true,
          "internalType": "address",
          "name": "applicant",
          "type": "address"
        }
      ],
      "name": "AppliedContract",
      "type": "event"
    },
    {
      "anonymous": false,
      "inputs": [
        {
          "indexed": true,
          "internalType": "uint256",
          "name": "id",
          "type": "uint256"
        }
      ],
      "name": "ContractCreated",
      "type": "event"
    },
    {
      "anonymous": false,
      "inputs": [
        {
          "indexed": true,
          "internalType": "uint256",
          "name": "id",
          "type": "uint256"
        },
        {
          "indexed": true,
          "internalType": "address",
          "name": "tenant",
          "type": "address"
        }
      ],
      "name": "ContractLocked",
      "type": "event"
    },
    {
      "anonymous": false,
      "inputs": [
        {
          "indexed": true,
          "internalType": "uint256",
          "name": "id",
          "type": "uint256"
        },
        {
          "indexed": true,
          "internalType": "address",
          "name": "owner",
          "type": "address"
        },
        {
          "indexed": true,
          "internalType": "address",
          "name": "tenant",
          "type": "address"
        }
      ],
      "name": "DepositReceived",
      "type": "event"
    },
    {
      "inputs": [
        {
          "internalType": "uint256",
          "name": "contractId",
          "type": "uint256"
        },
        {
          "internalType": "address",
          "name": "_address",
          "type": "address"
        }
      ],
      "name": "acceptApplicant",
      "outputs": [],
      "stateMutability": "nonpayable",
      "type": "function"
    },
    {
      "inputs": [
        {
          "internalType": "uint256",
          "name": "startDate",
          "type": "uint256"
        },
        {
          "internalType": "uint256",
          "name": "endDate",
          "type": "uint256"
        },
        {
          "internalType": "string",
          "name": "location",
          "type": "string"
        },
        {
          "internalType": "uint256",
          "name": "price",
          "type": "uint256"
        }
      ],
      "name": "addContract",
      "outputs": [],
      "stateMutability": "nonpayable",
      "type": "function"
    },
    {
      "inputs": [
        {
          "components": [
            {
              "internalType": "uint256",
              "name": "contractId",
              "type": "uint256"
            },
            {
              "internalType": "uint256",
              "name": "startDate",
              "type": "uint256"
            },
            {
              "internalType": "uint256",
              "name": "endDate",
              "type": "uint256"
            },
            {
              "internalType": "address",
              "name": "owner",
              "type": "address"
            },
            {
              "internalType": "address",
              "name": "tenant",
              "type": "address"
            },
            {
              "internalType": "string",
              "name": "location",
              "type": "string"
            },
            {
              "internalType": "enum IRent.State",
              "name": "state",
              "type": "uint8"
            },
            {
              "internalType": "uint256",
              "name": "price",
              "type": "uint256"
            }
          ],
          "internalType": "struct IRent.Contract[]",
          "name": "_contracts",
          "type": "tuple[]"
        }
      ],
      "name": "addContracts",
      "outputs": [],
      "stateMutability": "nonpayable",
      "type": "function"
    },
    {
      "inputs": [
        {
          "internalType": "uint256",
          "name": "contractId",
          "type": "uint256"
        }
      ],
      "name": "applyForContract",
      "outputs": [],
      "stateMutability": "nonpayable",
      "type": "function"
    },
    {
      "inputs": [],
      "name": "getAllContracts",
      "outputs": [
        {
          "components": [
            {
              "internalType": "uint256",
              "name": "contractId",
              "type": "uint256"
            },
            {
              "internalType": "uint256",
              "name": "startDate",
              "type": "uint256"
            },
            {
              "internalType": "uint256",
              "name": "endDate",
              "type": "uint256"
            },
            {
              "internalType": "address",
              "name": "owner",
              "type": "address"
            },
            {
              "internalType": "address",
              "name": "tenant",
              "type": "address"
            },
            {
              "internalType": "string",
              "name": "location",
              "type": "string"
            },
            {
              "internalType": "enum IRent.State",
              "name": "state",
              "type": "uint8"
            },
            {
              "internalType": "uint256",
              "name": "price",
              "type": "uint256"
            }
          ],
          "internalType": "struct IRent.Contract[]",
          "name": "",
          "type": "tuple[]"
        }
      ],
      "stateMutability": "view",
      "type": "function"
    },
    {
      "inputs": [],
      "name": "getAllOwnersAddress",
      "outputs": [
        {
          "internalType": "address[]",
          "name": "",
          "type": "address[]"
        }
      ],
      "stateMutability": "view",
      "type": "function"
    },
    {
      "inputs": [],
      "name": "getAllTenantsAddress",
      "outputs": [
        {
          "internalType": "address[]",
          "name": "",
          "type": "address[]"
        }
      ],
      "stateMutability": "view",
      "type": "function"
    },
    {
      "inputs": [
        {
          "internalType": "uint256",
          "name": "contractId",
          "type": "uint256"
        }
      ],
      "name": "getApplicants",
      "outputs": [
        {
          "internalType": "address[]",
          "name": "",
          "type": "address[]"
        }
      ],
      "stateMutability": "view",
      "type": "function"
    },
    {
      "inputs": [
        {
          "internalType": "address",
          "name": "_address",
          "type": "address"
        }
      ],
      "name": "getAppliedContractIds",
      "outputs": [
        {
          "internalType": "uint256[]",
          "name": "",
          "type": "uint256[]"
        }
      ],
      "stateMutability": "view",
      "type": "function"
    },
    {
      "inputs": [
        {
          "internalType": "uint256",
          "name": "id",
          "type": "uint256"
        }
      ],
      "name": "getContractById",
      "outputs": [
        {
          "components": [
            {
              "internalType": "uint256",
              "name": "contractId",
              "type": "uint256"
            },
            {
              "internalType": "uint256",
              "name": "startDate",
              "type": "uint256"
            },
            {
              "internalType": "uint256",
              "name": "endDate",
              "type": "uint256"
            },
            {
              "internalType": "address",
              "name": "owner",
              "type": "address"
            },
            {
              "internalType": "address",
              "name": "tenant",
              "type": "address"
            },
            {
              "internalType": "string",
              "name": "location",
              "type": "string"
            },
            {
              "internalType": "enum IRent.State",
              "name": "state",
              "type": "uint8"
            },
            {
              "internalType": "uint256",
              "name": "price",
              "type": "uint256"
            }
          ],
          "internalType": "struct IRent.Contract",
          "name": "",
          "type": "tuple"
        }
      ],
      "stateMutability": "view",
      "type": "function"
    },
    {
      "inputs": [
        {
          "internalType": "address",
          "name": "_address",
          "type": "address"
        }
      ],
      "name": "getContractsByAddress",
      "outputs": [
        {
          "components": [
            {
              "internalType": "uint256",
              "name": "contractId",
              "type": "uint256"
            },
            {
              "internalType": "uint256",
              "name": "startDate",
              "type": "uint256"
            },
            {
              "internalType": "uint256",
              "name": "endDate",
              "type": "uint256"
            },
            {
              "internalType": "address",
              "name": "owner",
              "type": "address"
            },
            {
              "internalType": "address",
              "name": "tenant",
              "type": "address"
            },
            {
              "internalType": "string",
              "name": "location",
              "type": "string"
            },
            {
              "internalType": "enum IRent.State",
              "name": "state",
              "type": "uint8"
            },
            {
              "internalType": "uint256",
              "name": "price",
              "type": "uint256"
            }
          ],
          "internalType": "struct IRent.Contract[]",
          "name": "",
          "type": "tuple[]"
        }
      ],
      "stateMutability": "view",
      "type": "function"
    },
    {
      "inputs": [
        {
          "internalType": "enum IRent.State",
          "name": "state",
          "type": "uint8"
        }
      ],
      "name": "getContractsByState",
      "outputs": [
        {
          "components": [
            {
              "internalType": "uint256",
              "name": "contractId",
              "type": "uint256"
            },
            {
              "internalType": "uint256",
              "name": "startDate",
              "type": "uint256"
            },
            {
              "internalType": "uint256",
              "name": "endDate",
              "type": "uint256"
            },
            {
              "internalType": "address",
              "name": "owner",
              "type": "address"
            },
            {
              "internalType": "address",
              "name": "tenant",
              "type": "address"
            },
            {
              "internalType": "string",
              "name": "location",
              "type": "string"
            },
            {
              "internalType": "enum IRent.State",
              "name": "state",
              "type": "uint8"
            },
            {
              "internalType": "uint256",
              "name": "price",
              "type": "uint256"
            }
          ],
          "internalType": "struct IRent.Contract[]",
          "name": "",
          "type": "tuple[]"
        }
      ],
      "stateMutability": "view",
      "type": "function"
    },
    {
      "inputs": [
        {
          "internalType": "uint256",
          "name": "contractId",
          "type": "uint256"
        }
      ],
      "name": "payDeposit",
      "outputs": [],
      "stateMutability": "payable",
      "type": "function"
    }
  ],
  "bytecode": "0x608060405234801561001057600080fd5b506133c0806100206000396000f3fe6080604052600436106100c25760003560e01c80634cb6f0d31161007f578063aad2eaaf11610059578063aad2eaaf1461026d578063bf03ddef14610296578063e169a34b146102bf578063f44b9a3c146102fc576100c2565b80634cb6f0d3146101c85780636cf5d86e146101f35780638ba9ac6f14610230576100c2565b8063042e45dc146100c7578063112ecc391461010457806318d3ce961461012f57806328cd3f181461015a5780632b674e38146101765780633dd773041461019f575b600080fd5b3480156100d357600080fd5b506100ee60048036038101906100e991906127f5565b610339565b6040516100fb9190612eb4565b60405180910390f35b34801561011057600080fd5b50610119610851565b6040516101269190612e92565b60405180910390f35b34801561013b57600080fd5b50610144610961565b6040516101519190612eb4565b60405180910390f35b610174600480360381019061016f919061281e565b610bae565b005b34801561018257600080fd5b5061019d600480360381019061019891906127b0565b610fad565b005b3480156101ab57600080fd5b506101c660048036038101906101c19190612847565b611188565b005b3480156101d457600080fd5b506101dd611580565b6040516101ea9190612e92565b60405180910390f35b3480156101ff57600080fd5b5061021a6004803603810190610215919061281e565b611690565b6040516102279190612e92565b60405180910390f35b34801561023c57600080fd5b506102576004803603810190610252919061281e565b61180c565b6040516102649190612fb8565b60405180910390f35b34801561027957600080fd5b50610294600480360381019061028f919061281e565b611a5c565b005b3480156102a257600080fd5b506102bd60048036038101906102b89190612883565b611c57565b005b3480156102cb57600080fd5b506102e660048036038101906102e19190612787565b6120ae565b6040516102f39190612ed6565b60405180910390f35b34801561030857600080fd5b50610323600480360381019061031e9190612787565b612145565b6040516103309190612eb4565b60405180910390f35b60606000805b60008054905081101561043e57836003811115610385577f4e487b7100000000000000000000000000000000000000000000000000000000600052602160045260246000fd5b600082815481106103bf577f4e487b7100000000000000000000000000000000000000000000000000000000600052603260045260246000fd5b906000526020600020906008020160060160009054906101000a900460ff166003811115610416577f4e487b7100000000000000000000000000000000000000000000000000000000600052602160045260246000fd5b141561042b57818061042790613251565b9250505b808061043690613251565b91505061033f565b5060008167ffffffffffffffff811115610481577f4e487b7100000000000000000000000000000000000000000000000000000000600052604160045260246000fd5b6040519080825280602002602001820160405280156104ba57816020015b6104a7612547565b81526020019060019003908161049f5790505b5090506000805b60008054905081101561084557856003811115610507577f4e487b7100000000000000000000000000000000000000000000000000000000600052602160045260246000fd5b60008281548110610541577f4e487b7100000000000000000000000000000000000000000000000000000000600052603260045260246000fd5b906000526020600020906008020160060160009054906101000a900460ff166003811115610598577f4e487b7100000000000000000000000000000000000000000000000000000000600052602160045260246000fd5b141561083257600081815481106105d8577f4e487b7100000000000000000000000000000000000000000000000000000000600052603260045260246000fd5b9060005260206000209060080201604051806101000160405290816000820154815260200160018201548152602001600282015481526020016003820160009054906101000a900473ffffffffffffffffffffffffffffffffffffffff1673ffffffffffffffffffffffffffffffffffffffff1673ffffffffffffffffffffffffffffffffffffffff1681526020016004820160009054906101000a900473ffffffffffffffffffffffffffffffffffffffff1673ffffffffffffffffffffffffffffffffffffffff1673ffffffffffffffffffffffffffffffffffffffff1681526020016005820180546106cc9061321f565b80601f01602080910402602001604051908101604052809291908181526020018280546106f89061321f565b80156107455780601f1061071a57610100808354040283529160200191610745565b820191906000526020600020905b81548152906001019060200180831161072857829003601f168201915b505050505081526020016006820160009054906101000a900460ff166003811115610799577f4e487b7100000000000000000000000000000000000000000000000000000000600052602160045260246000fd5b60038111156107d1577f4e487b7100000000000000000000000000000000000000000000000000000000600052602160045260246000fd5b8152602001600782015481525050838381518110610818577f4e487b7100000000000000000000000000000000000000000000000000000000600052603260045260246000fd5b6020026020010181905250818061082e90613251565b9250505b808061083d90613251565b9150506104c1565b50819350505050919050565b606073684367aa423f4c1446d99ae234e172ae1ba2842c73ffffffffffffffffffffffffffffffffffffffff163373ffffffffffffffffffffffffffffffffffffffff16146108d5576040517f08c379a00000000000000000000000000000000000000000000000000000000081526004016108cc90612f18565b60405180910390fd5b600580548060200260200160405190810160405280929190818152602001828054801561095757602002820191906000526020600020905b8160009054906101000a900473ffffffffffffffffffffffffffffffffffffffff1673ffffffffffffffffffffffffffffffffffffffff168152602001906001019080831161090d575b5050505050905090565b60606000805480602002602001604051908101604052809291908181526020016000905b82821015610ba55783829060005260206000209060080201604051806101000160405290816000820154815260200160018201548152602001600282015481526020016003820160009054906101000a900473ffffffffffffffffffffffffffffffffffffffff1673ffffffffffffffffffffffffffffffffffffffff1673ffffffffffffffffffffffffffffffffffffffff1681526020016004820160009054906101000a900473ffffffffffffffffffffffffffffffffffffffff1673ffffffffffffffffffffffffffffffffffffffff1673ffffffffffffffffffffffffffffffffffffffff168152602001600582018054610a839061321f565b80601f0160208091040260200160405190810160405280929190818152602001828054610aaf9061321f565b8015610afc5780601f10610ad157610100808354040283529160200191610afc565b820191906000526020600020905b815481529060010190602001808311610adf57829003601f168201915b505050505081526020016006820160009054906101000a900460ff166003811115610b50577f4e487b7100000000000000000000000000000000000000000000000000000000600052602160045260246000fd5b6003811115610b88577f4e487b7100000000000000000000000000000000000000000000000000000000600052602160045260246000fd5b815260200160078201548152505081526020019060010190610985565b50505050905090565b8060008181548110610be9577f4e487b7100000000000000000000000000000000000000000000000000000000600052603260045260246000fd5b906000526020600020906008020160040160009054906101000a900473ffffffffffffffffffffffffffffffffffffffff1673ffffffffffffffffffffffffffffffffffffffff163373ffffffffffffffffffffffffffffffffffffffff1614610c88576040517f08c379a0000000000000000000000000000000000000000000000000000000008152600401610c7f90612f78565b60405180910390fd5b81600160008281548110610cc5577f4e487b7100000000000000000000000000000000000000000000000000000000600052603260045260246000fd5b906000526020600020906008020160060160009054906101000a900460ff166003811115610d1c577f4e487b7100000000000000000000000000000000000000000000000000000000600052602160045260246000fd5b816003811115610d55577f4e487b7100000000000000000000000000000000000000000000000000000000600052602160045260246000fd5b14610d95576040517f08c379a0000000000000000000000000000000000000000000000000000000008152600401610d8c90612f58565b60405180910390fd5b60008481548110610dcf577f4e487b7100000000000000000000000000000000000000000000000000000000600052603260045260246000fd5b906000526020600020906008020160030160009054906101000a900473ffffffffffffffffffffffffffffffffffffffff1673ffffffffffffffffffffffffffffffffffffffff166108fc349081150290604051600060405180830381858888f19350505050158015610e46573d6000803e3d6000fd5b50600260008581548110610e83577f4e487b7100000000000000000000000000000000000000000000000000000000600052603260045260246000fd5b906000526020600020906008020160060160006101000a81548160ff02191690836003811115610edc577f4e487b7100000000000000000000000000000000000000000000000000000000600052602160045260246000fd5b02179055503373ffffffffffffffffffffffffffffffffffffffff1660008581548110610f32577f4e487b7100000000000000000000000000000000000000000000000000000000600052603260045260246000fd5b906000526020600020906008020160030160009054906101000a900473ffffffffffffffffffffffffffffffffffffffff1673ffffffffffffffffffffffffffffffffffffffff16857f5b3fbe89d042c633e7d6fc9434acfee6e234221722ea42fdfdfa95bb84c69e5460405160405180910390a450505050565b60005b82829050811015611183573073ffffffffffffffffffffffffffffffffffffffff1663bf03ddef848484818110611010577f4e487b7100000000000000000000000000000000000000000000000000000000600052603260045260246000fd5b9050602002810190611022919061307f565b6020013585858581811061105f577f4e487b7100000000000000000000000000000000000000000000000000000000600052603260045260246000fd5b9050602002810190611071919061307f565b604001358686868181106110ae577f4e487b7100000000000000000000000000000000000000000000000000000000600052603260045260246000fd5b90506020028101906110c0919061307f565b8060a001906110cf9190613028565b888888818110611108577f4e487b7100000000000000000000000000000000000000000000000000000000600052603260045260246000fd5b905060200281019061111a919061307f565b60e001356040518663ffffffff1660e01b815260040161113e959493929190612fda565b600060405180830381600087803b15801561115857600080fd5b505af115801561116c573d6000803e3d6000fd5b50505050808061117b90613251565b915050610fb0565b505050565b81600081815481106111c3577f4e487b7100000000000000000000000000000000000000000000000000000000600052603260045260246000fd5b906000526020600020906008020160030160009054906101000a900473ffffffffffffffffffffffffffffffffffffffff1673ffffffffffffffffffffffffffffffffffffffff163373ffffffffffffffffffffffffffffffffffffffff1614611262576040517f08c379a000000000000000000000000000000000000000000000000000000000815260040161125990612ef8565b60405180910390fd5b60016000848154811061129e577f4e487b7100000000000000000000000000000000000000000000000000000000600052603260045260246000fd5b906000526020600020906008020160060160006101000a81548160ff021916908360038111156112f7577f4e487b7100000000000000000000000000000000000000000000000000000000600052602160045260246000fd5b02179055508160008481548110611337577f4e487b7100000000000000000000000000000000000000000000000000000000600052603260045260246000fd5b906000526020600020906008020160040160006101000a81548173ffffffffffffffffffffffffffffffffffffffff021916908373ffffffffffffffffffffffffffffffffffffffff1602179055506002600084815260200190815260200160002060006113a591906125f0565b600160008373ffffffffffffffffffffffffffffffffffffffff1673ffffffffffffffffffffffffffffffffffffffff1681526020019081526020016000208390806001815401808255809150506001900390600052602060002001600090919091909150556000805b6004805490508110156114cc578373ffffffffffffffffffffffffffffffffffffffff166004828154811061146d577f4e487b7100000000000000000000000000000000000000000000000000000000600052603260045260246000fd5b9060005260206000200160009054906101000a900473ffffffffffffffffffffffffffffffffffffffff1673ffffffffffffffffffffffffffffffffffffffff1614156114b957600191505b80806114c490613251565b91505061140f565b5080611536576004839080600181540180825580915050600190039060005260206000200160009091909190916101000a81548173ffffffffffffffffffffffffffffffffffffffff021916908373ffffffffffffffffffffffffffffffffffffffff1602179055505b8273ffffffffffffffffffffffffffffffffffffffff16847f0907ad1362c20b0c1f2fa8e892146569226987c4602687d1feb4633a0f3342ac60405160405180910390a350505050565b606073684367aa423f4c1446d99ae234e172ae1ba2842c73ffffffffffffffffffffffffffffffffffffffff163373ffffffffffffffffffffffffffffffffffffffff1614611604576040517f08c379a00000000000000000000000000000000000000000000000000000000081526004016115fb90612f18565b60405180910390fd5b600480548060200260200160405190810160405280929190818152602001828054801561168657602002820191906000526020600020905b8160009054906101000a900473ffffffffffffffffffffffffffffffffffffffff1673ffffffffffffffffffffffffffffffffffffffff168152602001906001019080831161163c575b5050505050905090565b606081600081815481106116cd577f4e487b7100000000000000000000000000000000000000000000000000000000600052603260045260246000fd5b906000526020600020906008020160030160009054906101000a900473ffffffffffffffffffffffffffffffffffffffff1673ffffffffffffffffffffffffffffffffffffffff163373ffffffffffffffffffffffffffffffffffffffff161461176c576040517f08c379a000000000000000000000000000000000000000000000000000000000815260040161176390612ef8565b60405180910390fd5b600260008481526020019081526020016000208054806020026020016040519081016040528092919081815260200182805480156117ff57602002820191906000526020600020905b8160009054906101000a900473ffffffffffffffffffffffffffffffffffffffff1673ffffffffffffffffffffffffffffffffffffffff16815260200190600101908083116117b5575b5050505050915050919050565b611814612547565b6000828154811061184e577f4e487b7100000000000000000000000000000000000000000000000000000000600052603260045260246000fd5b9060005260206000209060080201604051806101000160405290816000820154815260200160018201548152602001600282015481526020016003820160009054906101000a900473ffffffffffffffffffffffffffffffffffffffff1673ffffffffffffffffffffffffffffffffffffffff1673ffffffffffffffffffffffffffffffffffffffff1681526020016004820160009054906101000a900473ffffffffffffffffffffffffffffffffffffffff1673ffffffffffffffffffffffffffffffffffffffff1673ffffffffffffffffffffffffffffffffffffffff1681526020016005820180546119429061321f565b80601f016020809104026020016040519081016040528092919081815260200182805461196e9061321f565b80156119bb5780601f10611990576101008083540402835291602001916119bb565b820191906000526020600020905b81548152906001019060200180831161199e57829003601f168201915b505050505081526020016006820160009054906101000a900460ff166003811115611a0f577f4e487b7100000000000000000000000000000000000000000000000000000000600052602160045260246000fd5b6003811115611a47577f4e487b7100000000000000000000000000000000000000000000000000000000600052602160045260246000fd5b81526020016007820154815250509050919050565b60008181548110611a96577f4e487b7100000000000000000000000000000000000000000000000000000000600052603260045260246000fd5b906000526020600020906008020160030160009054906101000a900473ffffffffffffffffffffffffffffffffffffffff1673ffffffffffffffffffffffffffffffffffffffff163373ffffffffffffffffffffffffffffffffffffffff161415611b36576040517f08c379a0000000000000000000000000000000000000000000000000000000008152600401611b2d90612f38565b60405180910390fd5b60026000828152602001908152602001600020339080600181540180825580915050600190039060005260206000200160009091909190916101000a81548173ffffffffffffffffffffffffffffffffffffffff021916908373ffffffffffffffffffffffffffffffffffffffff160217905550600360003373ffffffffffffffffffffffffffffffffffffffff1673ffffffffffffffffffffffffffffffffffffffff1681526020019081526020016000208190806001815401808255809150506001900390600052602060002001600090919091909150553373ffffffffffffffffffffffffffffffffffffffff16817f8a4fa5bc36aadd4f6ae5f30b01d7ddac7d85c5aef7424b89d765019d3e5bfbc860405160405180910390a350565b83851080611c655750600084145b611ca4576040517f08c379a0000000000000000000000000000000000000000000000000000000008152600401611c9b90612f98565b60405180910390fd5b60008080549050905060006040518061010001604052808381526020018881526020018781526020013373ffffffffffffffffffffffffffffffffffffffff168152602001600073ffffffffffffffffffffffffffffffffffffffff16815260200186868080601f016020809104026020016040519081016040528093929190818152602001838380828437600081840152601f19601f82011690508083019250505050505050815260200160006003811115611d8a577f4e487b7100000000000000000000000000000000000000000000000000000000600052602160045260246000fd5b815260200184815250908060018154018082558091505060019003906000526020600020906008020160009091909190915060008201518160000155602082015181600101556040820151816002015560608201518160030160006101000a81548173ffffffffffffffffffffffffffffffffffffffff021916908373ffffffffffffffffffffffffffffffffffffffff16021790555060808201518160040160006101000a81548173ffffffffffffffffffffffffffffffffffffffff021916908373ffffffffffffffffffffffffffffffffffffffff16021790555060a0820151816005019080519060200190611e84929190612611565b5060c08201518160060160006101000a81548160ff02191690836003811115611ed6577f4e487b7100000000000000000000000000000000000000000000000000000000600052602160045260246000fd5b021790555060e082015181600701555050600160003373ffffffffffffffffffffffffffffffffffffffff1673ffffffffffffffffffffffffffffffffffffffff1681526020019081526020016000208190806001815401808255809150506001900390600052602060002001600090919091909150556000805b60058054905081101561200e573373ffffffffffffffffffffffffffffffffffffffff1660058281548110611faf577f4e487b7100000000000000000000000000000000000000000000000000000000600052603260045260246000fd5b9060005260206000200160009054906101000a900473ffffffffffffffffffffffffffffffffffffffff1673ffffffffffffffffffffffffffffffffffffffff161415611ffb57600191505b808061200690613251565b915050611f51565b5080612078576005339080600181540180825580915050600190039060005260206000200160009091909190916101000a81548173ffffffffffffffffffffffffffffffffffffffff021916908373ffffffffffffffffffffffffffffffffffffffff1602179055505b817f9e3c7e008a15a3c864482ee94fd7315bcc9d0c04f3a9041ab922f816acffbe0660405160405180910390a250505050505050565b6060600360008373ffffffffffffffffffffffffffffffffffffffff1673ffffffffffffffffffffffffffffffffffffffff16815260200190815260200160002080548060200260200160405190810160405280929190818152602001828054801561213957602002820191906000526020600020905b815481526020019060010190808311612125575b50505050509050919050565b60606000600160008473ffffffffffffffffffffffffffffffffffffffff1673ffffffffffffffffffffffffffffffffffffffff1681526020019081526020016000208054806020026020016040519081016040528092919081815260200182805480156121d257602002820191906000526020600020905b8154815260200190600101908083116121be575b505050505090506000815167ffffffffffffffff81111561221c577f4e487b7100000000000000000000000000000000000000000000000000000000600052604160045260246000fd5b60405190808252806020026020018201604052801561225557816020015b612242612547565b81526020019060019003908161223a5790505b50905060005b825181101561253c57600083828151811061229f577f4e487b7100000000000000000000000000000000000000000000000000000000600052603260045260246000fd5b6020026020010151815481106122de577f4e487b7100000000000000000000000000000000000000000000000000000000600052603260045260246000fd5b9060005260206000209060080201604051806101000160405290816000820154815260200160018201548152602001600282015481526020016003820160009054906101000a900473ffffffffffffffffffffffffffffffffffffffff1673ffffffffffffffffffffffffffffffffffffffff1673ffffffffffffffffffffffffffffffffffffffff1681526020016004820160009054906101000a900473ffffffffffffffffffffffffffffffffffffffff1673ffffffffffffffffffffffffffffffffffffffff1673ffffffffffffffffffffffffffffffffffffffff1681526020016005820180546123d29061321f565b80601f01602080910402602001604051908101604052809291908181526020018280546123fe9061321f565b801561244b5780601f106124205761010080835404028352916020019161244b565b820191906000526020600020905b81548152906001019060200180831161242e57829003601f168201915b505050505081526020016006820160009054906101000a900460ff16600381111561249f577f4e487b7100000000000000000000000000000000000000000000000000000000600052602160045260246000fd5b60038111156124d7577f4e487b7100000000000000000000000000000000000000000000000000000000600052602160045260246000fd5b815260200160078201548152505082828151811061251e577f4e487b7100000000000000000000000000000000000000000000000000000000600052603260045260246000fd5b6020026020010181905250808061253490613251565b91505061225b565b508092505050919050565b604051806101000160405280600081526020016000815260200160008152602001600073ffffffffffffffffffffffffffffffffffffffff168152602001600073ffffffffffffffffffffffffffffffffffffffff16815260200160608152602001600060038111156125e3577f4e487b7100000000000000000000000000000000000000000000000000000000600052602160045260246000fd5b8152602001600081525090565b508054600082559060005260206000209081019061260e9190612697565b50565b82805461261d9061321f565b90600052602060002090601f01602090048101928261263f5760008555612686565b82601f1061265857805160ff1916838001178555612686565b82800160010185558215612686579182015b8281111561268557825182559160200191906001019061266a565b5b5090506126939190612697565b5090565b5b808211156126b0576000816000905550600101612698565b5090565b6000813590506126c38161334c565b92915050565b60008083601f8401126126db57600080fd5b8235905067ffffffffffffffff8111156126f457600080fd5b60208301915083602082028301111561270c57600080fd5b9250929050565b60008135905061272281613363565b92915050565b60008083601f84011261273a57600080fd5b8235905067ffffffffffffffff81111561275357600080fd5b60208301915083600182028301111561276b57600080fd5b9250929050565b60008135905061278181613373565b92915050565b60006020828403121561279957600080fd5b60006127a7848285016126b4565b91505092915050565b600080602083850312156127c357600080fd5b600083013567ffffffffffffffff8111156127dd57600080fd5b6127e9858286016126c9565b92509250509250929050565b60006020828403121561280757600080fd5b600061281584828501612713565b91505092915050565b60006020828403121561283057600080fd5b600061283e84828501612772565b91505092915050565b6000806040838503121561285a57600080fd5b600061286885828601612772565b9250506020612879858286016126b4565b9150509250929050565b60008060008060006080868803121561289b57600080fd5b60006128a988828901612772565b95505060206128ba88828901612772565b945050604086013567ffffffffffffffff8111156128d757600080fd5b6128e388828901612728565b935093505060606128f688828901612772565b9150509295509295909350565b600061290f8383612947565b60208301905092915050565b60006129278383612d14565b905092915050565b600061293b8383612e74565b60208301905092915050565b6129508161317c565b82525050565b6000612961826130d4565b61296b8185613127565b9350612976836130a4565b8060005b838110156129a757815161298e8882612903565b975061299983613100565b92505060018101905061297a565b5085935050505092915050565b60006129bf826130df565b6129c98185613138565b9350836020820285016129db856130b4565b8060005b85811015612a1757848403895281516129f8858261291b565b9450612a038361310d565b925060208a019950506001810190506129df565b50829750879550505050505092915050565b6000612a34826130ea565b612a3e8185613149565b9350612a49836130c4565b8060005b83811015612a7a578151612a61888261292f565b9750612a6c8361311a565b925050600181019050612a4d565b5085935050505092915050565b612a90816131cb565b82525050565b6000612aa2838561316b565b9350612aaf8385846131dd565b612ab883613327565b840190509392505050565b6000612ace826130f5565b612ad8818561315a565b9350612ae88185602086016131ec565b612af181613327565b840191505092915050565b6000612b0960228361316b565b91507f4f6e6c79206f776e65722063616e2063616c6c20746869732066756e6374696f60008301527f6e2e0000000000000000000000000000000000000000000000000000000000006020830152604082019050919050565b6000612b6f60278361316b565b91507f4f6e6c792061646d696e20757365722063616e2063616c6c207468697320667560008301527f6e6374696f6e2e000000000000000000000000000000000000000000000000006020830152604082019050919050565b6000612bd560128361316b565b91507f4f776e65722063616e2774206170706c792e00000000000000000000000000006000830152602082019050919050565b6000612c15601f8361316b565b91507f436f6e7472616374206973206e6f7420696e2076616c69642073746174652e006000830152602082019050919050565b6000612c5560238361316b565b91507f4f6e6c792074656e616e742063616e2063616c6c20746869732066756e63746960008301527f6f6e2e00000000000000000000000000000000000000000000000000000000006020830152604082019050919050565b6000612cbb60318361316b565b91507f456e6420646174652073686f756c64206265206e756c6c206f72206c6174657260008301527f207468616e20737461727420646174652e0000000000000000000000000000006020830152604082019050919050565b600061010083016000830151612d2d6000860182612e74565b506020830151612d406020860182612e74565b506040830151612d536040860182612e74565b506060830151612d666060860182612947565b506080830151612d796080860182612947565b5060a083015184820360a0860152612d918282612ac3565b91505060c0830151612da660c0860182612a87565b5060e0830151612db960e0860182612e74565b508091505092915050565b600061010083016000830151612ddd6000860182612e74565b506020830151612df06020860182612e74565b506040830151612e036040860182612e74565b506060830151612e166060860182612947565b506080830151612e296080860182612947565b5060a083015184820360a0860152612e418282612ac3565b91505060c0830151612e5660c0860182612a87565b5060e0830151612e6960e0860182612e74565b508091505092915050565b612e7d816131c1565b82525050565b612e8c816131c1565b82525050565b60006020820190508181036000830152612eac8184612956565b905092915050565b60006020820190508181036000830152612ece81846129b4565b905092915050565b60006020820190508181036000830152612ef08184612a29565b905092915050565b60006020820190508181036000830152612f1181612afc565b9050919050565b60006020820190508181036000830152612f3181612b62565b9050919050565b60006020820190508181036000830152612f5181612bc8565b9050919050565b60006020820190508181036000830152612f7181612c08565b9050919050565b60006020820190508181036000830152612f9181612c48565b9050919050565b60006020820190508181036000830152612fb181612cae565b9050919050565b60006020820190508181036000830152612fd28184612dc4565b905092915050565b6000608082019050612fef6000830188612e83565b612ffc6020830187612e83565b818103604083015261300f818587612a96565b905061301e6060830184612e83565b9695505050505050565b6000808335600160200384360303811261304157600080fd5b80840192508235915067ffffffffffffffff82111561305f57600080fd5b60208301925060018202360383131561307757600080fd5b509250929050565b6000823560016101000383360303811261309857600080fd5b80830191505092915050565b6000819050602082019050919050565b6000819050602082019050919050565b6000819050602082019050919050565b600081519050919050565b600081519050919050565b600081519050919050565b600081519050919050565b6000602082019050919050565b6000602082019050919050565b6000602082019050919050565b600082825260208201905092915050565b600082825260208201905092915050565b600082825260208201905092915050565b600082825260208201905092915050565b600082825260208201905092915050565b6000613187826131a1565b9050919050565b600081905061319c82613338565b919050565b600073ffffffffffffffffffffffffffffffffffffffff82169050919050565b6000819050919050565b60006131d68261318e565b9050919050565b82818337600083830152505050565b60005b8381101561320a5780820151818401526020810190506131ef565b83811115613219576000848401525b50505050565b6000600282049050600182168061323757607f821691505b6020821081141561324b5761324a6132f8565b5b50919050565b600061325c826131c1565b91507fffffffffffffffffffffffffffffffffffffffffffffffffffffffffffffffff82141561328f5761328e61329a565b5b600182019050919050565b7f4e487b7100000000000000000000000000000000000000000000000000000000600052601160045260246000fd5b7f4e487b7100000000000000000000000000000000000000000000000000000000600052602160045260246000fd5b7f4e487b7100000000000000000000000000000000000000000000000000000000600052602260045260246000fd5b6000601f19601f8301169050919050565b60048110613349576133486132c9565b5b50565b6133558161317c565b811461336057600080fd5b50565b6004811061337057600080fd5b50565b61337c816131c1565b811461338757600080fd5b5056fea26469706673582212207fe5de7beac0324be77e0de4640343d700d39dbb9e4d3d9e674c2a6c7ba0384264736f6c63430008000033",
  "linkReferences": {},
  "deployedLinkReferences": {}
}