{
  "_format": "hh-sol-artifact-1",
  "contractName": "Rent",
  "sourceName": "contracts/Rent.sol",
  "abi": [
    {
      "inputs": [],
      "stateMutability": "nonpayable",
      "type": "constructor"
    },
    {
      "anonymous": false,
      "inputs": [
        {
          "indexed": true,
          "internalType": "uint256",
          "name": "id",
          "type": "uint256"
        },
        {
          "indexed": true,
          "internalType": "address",
          "name": "applicant",
          "type": "address"
        }
      ],
      "name": "AppliedContract",
      "type": "event"
    },
    {
      "anonymous": false,
      "inputs": [
        {
          "indexed": true,
          "internalType": "uint256",
          "name": "id",
          "type": "uint256"
        }
      ],
      "name": "ContractCreated",
      "type": "event"
    },
    {
      "anonymous": false,
      "inputs": [
        {
          "indexed": true,
          "internalType": "uint256",
          "name": "id",
          "type": "uint256"
        },
        {
          "indexed": true,
          "internalType": "address",
          "name": "tenant",
          "type": "address"
        }
      ],
      "name": "ContractLocked",
      "type": "event"
    },
    {
      "anonymous": false,
      "inputs": [
        {
          "indexed": true,
          "internalType": "uint256",
          "name": "id",
          "type": "uint256"
        },
        {
          "indexed": true,
          "internalType": "address",
          "name": "owner",
          "type": "address"
        },
        {
          "indexed": true,
          "internalType": "address",
          "name": "tenant",
          "type": "address"
        }
      ],
      "name": "DepositReceived",
      "type": "event"
    },
    {
      "inputs": [
        {
          "internalType": "uint256",
          "name": "contractId",
          "type": "uint256"
        },
        {
          "internalType": "address",
          "name": "_address",
          "type": "address"
        }
      ],
      "name": "acceptApplicant",
      "outputs": [],
      "stateMutability": "nonpayable",
      "type": "function"
    },
    {
      "inputs": [
        {
          "internalType": "uint256",
          "name": "startDate",
          "type": "uint256"
        },
        {
          "internalType": "uint256",
          "name": "endDate",
          "type": "uint256"
        },
        {
          "internalType": "string",
          "name": "location",
          "type": "string"
        },
        {
          "internalType": "uint256",
          "name": "price",
          "type": "uint256"
        }
      ],
      "name": "addContract",
      "outputs": [],
      "stateMutability": "nonpayable",
      "type": "function"
    },
    {
      "inputs": [
        {
          "internalType": "uint256",
          "name": "contractId",
          "type": "uint256"
        }
      ],
      "name": "applyForContract",
      "outputs": [],
      "stateMutability": "nonpayable",
      "type": "function"
    },
    {
      "inputs": [],
      "name": "getAllContracts",
      "outputs": [
        {
          "components": [
            {
              "internalType": "uint256",
              "name": "contractId",
              "type": "uint256"
            },
            {
              "internalType": "uint256",
              "name": "startDate",
              "type": "uint256"
            },
            {
              "internalType": "uint256",
              "name": "endDate",
              "type": "uint256"
            },
            {
              "internalType": "address",
              "name": "owner",
              "type": "address"
            },
            {
              "internalType": "address",
              "name": "tenant",
              "type": "address"
            },
            {
              "internalType": "string",
              "name": "location",
              "type": "string"
            },
            {
              "internalType": "enum IRent.State",
              "name": "state",
              "type": "uint8"
            },
            {
              "internalType": "uint256",
              "name": "price",
              "type": "uint256"
            }
          ],
          "internalType": "struct IRent.Contract[]",
          "name": "",
          "type": "tuple[]"
        }
      ],
      "stateMutability": "view",
      "type": "function"
    },
    {
      "inputs": [],
      "name": "getAllOwnersAddress",
      "outputs": [
        {
          "internalType": "address[]",
          "name": "",
          "type": "address[]"
        }
      ],
      "stateMutability": "view",
      "type": "function"
    },
    {
      "inputs": [],
      "name": "getAllTenantsAddress",
      "outputs": [
        {
          "internalType": "address[]",
          "name": "",
          "type": "address[]"
        }
      ],
      "stateMutability": "view",
      "type": "function"
    },
    {
      "inputs": [
        {
          "internalType": "uint256",
          "name": "contractId",
          "type": "uint256"
        }
      ],
      "name": "getApplicants",
      "outputs": [
        {
          "internalType": "address[]",
          "name": "",
          "type": "address[]"
        }
      ],
      "stateMutability": "view",
      "type": "function"
    },
    {
      "inputs": [
        {
          "internalType": "address",
          "name": "_address",
          "type": "address"
        }
      ],
      "name": "getAppliedContractIds",
      "outputs": [
        {
          "internalType": "uint256[]",
          "name": "",
          "type": "uint256[]"
        }
      ],
      "stateMutability": "view",
      "type": "function"
    },
    {
      "inputs": [
        {
          "internalType": "uint256",
          "name": "id",
          "type": "uint256"
        }
      ],
      "name": "getContractById",
      "outputs": [
        {
          "components": [
            {
              "internalType": "uint256",
              "name": "contractId",
              "type": "uint256"
            },
            {
              "internalType": "uint256",
              "name": "startDate",
              "type": "uint256"
            },
            {
              "internalType": "uint256",
              "name": "endDate",
              "type": "uint256"
            },
            {
              "internalType": "address",
              "name": "owner",
              "type": "address"
            },
            {
              "internalType": "address",
              "name": "tenant",
              "type": "address"
            },
            {
              "internalType": "string",
              "name": "location",
              "type": "string"
            },
            {
              "internalType": "enum IRent.State",
              "name": "state",
              "type": "uint8"
            },
            {
              "internalType": "uint256",
              "name": "price",
              "type": "uint256"
            }
          ],
          "internalType": "struct IRent.Contract",
          "name": "",
          "type": "tuple"
        }
      ],
      "stateMutability": "view",
      "type": "function"
    },
    {
      "inputs": [
        {
          "internalType": "address",
          "name": "_address",
          "type": "address"
        }
      ],
      "name": "getContractsByAddress",
      "outputs": [
        {
          "components": [
            {
              "internalType": "uint256",
              "name": "contractId",
              "type": "uint256"
            },
            {
              "internalType": "uint256",
              "name": "startDate",
              "type": "uint256"
            },
            {
              "internalType": "uint256",
              "name": "endDate",
              "type": "uint256"
            },
            {
              "internalType": "address",
              "name": "owner",
              "type": "address"
            },
            {
              "internalType": "address",
              "name": "tenant",
              "type": "address"
            },
            {
              "internalType": "string",
              "name": "location",
              "type": "string"
            },
            {
              "internalType": "enum IRent.State",
              "name": "state",
              "type": "uint8"
            },
            {
              "internalType": "uint256",
              "name": "price",
              "type": "uint256"
            }
          ],
          "internalType": "struct IRent.Contract[]",
          "name": "",
          "type": "tuple[]"
        }
      ],
      "stateMutability": "view",
      "type": "function"
    },
    {
      "inputs": [
        {
          "internalType": "enum IRent.State",
          "name": "state",
          "type": "uint8"
        }
      ],
      "name": "getContractsByState",
      "outputs": [
        {
          "components": [
            {
              "internalType": "uint256",
              "name": "contractId",
              "type": "uint256"
            },
            {
              "internalType": "uint256",
              "name": "startDate",
              "type": "uint256"
            },
            {
              "internalType": "uint256",
              "name": "endDate",
              "type": "uint256"
            },
            {
              "internalType": "address",
              "name": "owner",
              "type": "address"
            },
            {
              "internalType": "address",
              "name": "tenant",
              "type": "address"
            },
            {
              "internalType": "string",
              "name": "location",
              "type": "string"
            },
            {
              "internalType": "enum IRent.State",
              "name": "state",
              "type": "uint8"
            },
            {
              "internalType": "uint256",
              "name": "price",
              "type": "uint256"
            }
          ],
          "internalType": "struct IRent.Contract[]",
          "name": "",
          "type": "tuple[]"
        }
      ],
      "stateMutability": "view",
      "type": "function"
    },
    {
      "inputs": [
        {
          "internalType": "uint256",
          "name": "contractId",
          "type": "uint256"
        }
      ],
      "name": "payDeposit",
      "outputs": [],
      "stateMutability": "payable",
      "type": "function"
    }
  ],
  "bytecode": "0x608060405234801561001057600080fd5b50613001806100206000396000f3fe6080604052600436106100a75760003560e01c80636cf5d86e116100645780636cf5d86e146101af5780638ba9ac6f146101ec578063aad2eaaf14610229578063bf03ddef14610252578063e169a34b1461027b578063f44b9a3c146102b8576100a7565b8063042e45dc146100ac578063112ecc39146100e957806318d3ce961461011457806328cd3f181461013f5780633dd773041461015b5780634cb6f0d314610184575b600080fd5b3480156100b857600080fd5b506100d360048036038101906100ce919061254b565b6102f5565b6040516100e09190612bce565b60405180910390f35b3480156100f557600080fd5b506100fe61080d565b60405161010b9190612bac565b60405180910390f35b34801561012057600080fd5b5061012961091d565b6040516101369190612bce565b60405180910390f35b61015960048036038101906101549190612574565b610b6a565b005b34801561016757600080fd5b50610182600480360381019061017d919061259d565b610f69565b005b34801561019057600080fd5b50610199611361565b6040516101a69190612bac565b60405180910390f35b3480156101bb57600080fd5b506101d660048036038101906101d19190612574565b611471565b6040516101e39190612bac565b60405180910390f35b3480156101f857600080fd5b50610213600480360381019061020e9190612574565b6115ed565b6040516102209190612cd2565b60405180910390f35b34801561023557600080fd5b50610250600480360381019061024b9190612574565b61183d565b005b34801561025e57600080fd5b50610279600480360381019061027491906125d9565b611a38565b005b34801561028757600080fd5b506102a2600480360381019061029d9190612522565b611e93565b6040516102af9190612bf0565b60405180910390f35b3480156102c457600080fd5b506102df60048036038101906102da9190612522565b611f2a565b6040516102ec9190612bce565b60405180910390f35b60606000805b6000805490508110156103fa57836003811115610341577f4e487b7100000000000000000000000000000000000000000000000000000000600052602160045260246000fd5b6000828154811061037b577f4e487b7100000000000000000000000000000000000000000000000000000000600052603260045260246000fd5b906000526020600020906008020160060160009054906101000a900460ff1660038111156103d2577f4e487b7100000000000000000000000000000000000000000000000000000000600052602160045260246000fd5b14156103e75781806103e390612e92565b9250505b80806103f290612e92565b9150506102fb565b5060008167ffffffffffffffff81111561043d577f4e487b7100000000000000000000000000000000000000000000000000000000600052604160045260246000fd5b60405190808252806020026020018201604052801561047657816020015b61046361232c565b81526020019060019003908161045b5790505b5090506000805b600080549050811015610801578560038111156104c3577f4e487b7100000000000000000000000000000000000000000000000000000000600052602160045260246000fd5b600082815481106104fd577f4e487b7100000000000000000000000000000000000000000000000000000000600052603260045260246000fd5b906000526020600020906008020160060160009054906101000a900460ff166003811115610554577f4e487b7100000000000000000000000000000000000000000000000000000000600052602160045260246000fd5b14156107ee5760008181548110610594577f4e487b7100000000000000000000000000000000000000000000000000000000600052603260045260246000fd5b9060005260206000209060080201604051806101000160405290816000820154815260200160018201548152602001600282015481526020016003820160009054906101000a900473ffffffffffffffffffffffffffffffffffffffff1673ffffffffffffffffffffffffffffffffffffffff1673ffffffffffffffffffffffffffffffffffffffff1681526020016004820160009054906101000a900473ffffffffffffffffffffffffffffffffffffffff1673ffffffffffffffffffffffffffffffffffffffff1673ffffffffffffffffffffffffffffffffffffffff16815260200160058201805461068890612e60565b80601f01602080910402602001604051908101604052809291908181526020018280546106b490612e60565b80156107015780601f106106d657610100808354040283529160200191610701565b820191906000526020600020905b8154815290600101906020018083116106e457829003601f168201915b505050505081526020016006820160009054906101000a900460ff166003811115610755577f4e487b7100000000000000000000000000000000000000000000000000000000600052602160045260246000fd5b600381111561078d577f4e487b7100000000000000000000000000000000000000000000000000000000600052602160045260246000fd5b81526020016007820154815250508383815181106107d4577f4e487b7100000000000000000000000000000000000000000000000000000000600052603260045260246000fd5b602002602001018190525081806107ea90612e92565b9250505b80806107f990612e92565b91505061047d565b50819350505050919050565b606073684367aa423f4c1446d99ae234e172ae1ba2842c73ffffffffffffffffffffffffffffffffffffffff163373ffffffffffffffffffffffffffffffffffffffff1614610891576040517f08c379a000000000000000000000000000000000000000000000000000000000815260040161088890612c32565b60405180910390fd5b600580548060200260200160405190810160405280929190818152602001828054801561091357602002820191906000526020600020905b8160009054906101000a900473ffffffffffffffffffffffffffffffffffffffff1673ffffffffffffffffffffffffffffffffffffffff16815260200190600101908083116108c9575b5050505050905090565b60606000805480602002602001604051908101604052809291908181526020016000905b82821015610b615783829060005260206000209060080201604051806101000160405290816000820154815260200160018201548152602001600282015481526020016003820160009054906101000a900473ffffffffffffffffffffffffffffffffffffffff1673ffffffffffffffffffffffffffffffffffffffff1673ffffffffffffffffffffffffffffffffffffffff1681526020016004820160009054906101000a900473ffffffffffffffffffffffffffffffffffffffff1673ffffffffffffffffffffffffffffffffffffffff1673ffffffffffffffffffffffffffffffffffffffff168152602001600582018054610a3f90612e60565b80601f0160208091040260200160405190810160405280929190818152602001828054610a6b90612e60565b8015610ab85780601f10610a8d57610100808354040283529160200191610ab8565b820191906000526020600020905b815481529060010190602001808311610a9b57829003601f168201915b505050505081526020016006820160009054906101000a900460ff166003811115610b0c577f4e487b7100000000000000000000000000000000000000000000000000000000600052602160045260246000fd5b6003811115610b44577f4e487b7100000000000000000000000000000000000000000000000000000000600052602160045260246000fd5b815260200160078201548152505081526020019060010190610941565b50505050905090565b8060008181548110610ba5577f4e487b7100000000000000000000000000000000000000000000000000000000600052603260045260246000fd5b906000526020600020906008020160040160009054906101000a900473ffffffffffffffffffffffffffffffffffffffff1673ffffffffffffffffffffffffffffffffffffffff163373ffffffffffffffffffffffffffffffffffffffff1614610c44576040517f08c379a0000000000000000000000000000000000000000000000000000000008152600401610c3b90612c92565b60405180910390fd5b81600160008281548110610c81577f4e487b7100000000000000000000000000000000000000000000000000000000600052603260045260246000fd5b906000526020600020906008020160060160009054906101000a900460ff166003811115610cd8577f4e487b7100000000000000000000000000000000000000000000000000000000600052602160045260246000fd5b816003811115610d11577f4e487b7100000000000000000000000000000000000000000000000000000000600052602160045260246000fd5b14610d51576040517f08c379a0000000000000000000000000000000000000000000000000000000008152600401610d4890612c72565b60405180910390fd5b60008481548110610d8b577f4e487b7100000000000000000000000000000000000000000000000000000000600052603260045260246000fd5b906000526020600020906008020160030160009054906101000a900473ffffffffffffffffffffffffffffffffffffffff1673ffffffffffffffffffffffffffffffffffffffff166108fc349081150290604051600060405180830381858888f19350505050158015610e02573d6000803e3d6000fd5b50600260008581548110610e3f577f4e487b7100000000000000000000000000000000000000000000000000000000600052603260045260246000fd5b906000526020600020906008020160060160006101000a81548160ff02191690836003811115610e98577f4e487b7100000000000000000000000000000000000000000000000000000000600052602160045260246000fd5b02179055503373ffffffffffffffffffffffffffffffffffffffff1660008581548110610eee577f4e487b7100000000000000000000000000000000000000000000000000000000600052603260045260246000fd5b906000526020600020906008020160030160009054906101000a900473ffffffffffffffffffffffffffffffffffffffff1673ffffffffffffffffffffffffffffffffffffffff16857f5b3fbe89d042c633e7d6fc9434acfee6e234221722ea42fdfdfa95bb84c69e5460405160405180910390a450505050565b8160008181548110610fa4577f4e487b7100000000000000000000000000000000000000000000000000000000600052603260045260246000fd5b906000526020600020906008020160030160009054906101000a900473ffffffffffffffffffffffffffffffffffffffff1673ffffffffffffffffffffffffffffffffffffffff163373ffffffffffffffffffffffffffffffffffffffff1614611043576040517f08c379a000000000000000000000000000000000000000000000000000000000815260040161103a90612c12565b60405180910390fd5b60016000848154811061107f577f4e487b7100000000000000000000000000000000000000000000000000000000600052603260045260246000fd5b906000526020600020906008020160060160006101000a81548160ff021916908360038111156110d8577f4e487b7100000000000000000000000000000000000000000000000000000000600052602160045260246000fd5b02179055508160008481548110611118577f4e487b7100000000000000000000000000000000000000000000000000000000600052603260045260246000fd5b906000526020600020906008020160040160006101000a81548173ffffffffffffffffffffffffffffffffffffffff021916908373ffffffffffffffffffffffffffffffffffffffff16021790555060026000848152602001908152602001600020600061118691906123d5565b600160008373ffffffffffffffffffffffffffffffffffffffff1673ffffffffffffffffffffffffffffffffffffffff1681526020019081526020016000208390806001815401808255809150506001900390600052602060002001600090919091909150556000805b6004805490508110156112ad578373ffffffffffffffffffffffffffffffffffffffff166004828154811061124e577f4e487b7100000000000000000000000000000000000000000000000000000000600052603260045260246000fd5b9060005260206000200160009054906101000a900473ffffffffffffffffffffffffffffffffffffffff1673ffffffffffffffffffffffffffffffffffffffff16141561129a57600191505b80806112a590612e92565b9150506111f0565b5080611317576004839080600181540180825580915050600190039060005260206000200160009091909190916101000a81548173ffffffffffffffffffffffffffffffffffffffff021916908373ffffffffffffffffffffffffffffffffffffffff1602179055505b8273ffffffffffffffffffffffffffffffffffffffff16847f0907ad1362c20b0c1f2fa8e892146569226987c4602687d1feb4633a0f3342ac60405160405180910390a350505050565b606073684367aa423f4c1446d99ae234e172ae1ba2842c73ffffffffffffffffffffffffffffffffffffffff163373ffffffffffffffffffffffffffffffffffffffff16146113e5576040517f08c379a00000000000000000000000000000000000000000000000000000000081526004016113dc90612c32565b60405180910390fd5b600480548060200260200160405190810160405280929190818152602001828054801561146757602002820191906000526020600020905b8160009054906101000a900473ffffffffffffffffffffffffffffffffffffffff1673ffffffffffffffffffffffffffffffffffffffff168152602001906001019080831161141d575b5050505050905090565b606081600081815481106114ae577f4e487b7100000000000000000000000000000000000000000000000000000000600052603260045260246000fd5b906000526020600020906008020160030160009054906101000a900473ffffffffffffffffffffffffffffffffffffffff1673ffffffffffffffffffffffffffffffffffffffff163373ffffffffffffffffffffffffffffffffffffffff161461154d576040517f08c379a000000000000000000000000000000000000000000000000000000000815260040161154490612c12565b60405180910390fd5b600260008481526020019081526020016000208054806020026020016040519081016040528092919081815260200182805480156115e057602002820191906000526020600020905b8160009054906101000a900473ffffffffffffffffffffffffffffffffffffffff1673ffffffffffffffffffffffffffffffffffffffff1681526020019060010190808311611596575b5050505050915050919050565b6115f561232c565b6000828154811061162f577f4e487b7100000000000000000000000000000000000000000000000000000000600052603260045260246000fd5b9060005260206000209060080201604051806101000160405290816000820154815260200160018201548152602001600282015481526020016003820160009054906101000a900473ffffffffffffffffffffffffffffffffffffffff1673ffffffffffffffffffffffffffffffffffffffff1673ffffffffffffffffffffffffffffffffffffffff1681526020016004820160009054906101000a900473ffffffffffffffffffffffffffffffffffffffff1673ffffffffffffffffffffffffffffffffffffffff1673ffffffffffffffffffffffffffffffffffffffff16815260200160058201805461172390612e60565b80601f016020809104026020016040519081016040528092919081815260200182805461174f90612e60565b801561179c5780601f106117715761010080835404028352916020019161179c565b820191906000526020600020905b81548152906001019060200180831161177f57829003601f168201915b505050505081526020016006820160009054906101000a900460ff1660038111156117f0577f4e487b7100000000000000000000000000000000000000000000000000000000600052602160045260246000fd5b6003811115611828577f4e487b7100000000000000000000000000000000000000000000000000000000600052602160045260246000fd5b81526020016007820154815250509050919050565b60008181548110611877577f4e487b7100000000000000000000000000000000000000000000000000000000600052603260045260246000fd5b906000526020600020906008020160030160009054906101000a900473ffffffffffffffffffffffffffffffffffffffff1673ffffffffffffffffffffffffffffffffffffffff163373ffffffffffffffffffffffffffffffffffffffff161415611917576040517f08c379a000000000000000000000000000000000000000000000000000000000815260040161190e90612c52565b60405180910390fd5b60026000828152602001908152602001600020339080600181540180825580915050600190039060005260206000200160009091909190916101000a81548173ffffffffffffffffffffffffffffffffffffffff021916908373ffffffffffffffffffffffffffffffffffffffff160217905550600360003373ffffffffffffffffffffffffffffffffffffffff1673ffffffffffffffffffffffffffffffffffffffff1681526020019081526020016000208190806001815401808255809150506001900390600052602060002001600090919091909150553373ffffffffffffffffffffffffffffffffffffffff16817f8a4fa5bc36aadd4f6ae5f30b01d7ddac7d85c5aef7424b89d765019d3e5bfbc860405160405180910390a350565b83851080611a465750600084145b611a85576040517f08c379a0000000000000000000000000000000000000000000000000000000008152600401611a7c90612cb2565b60405180910390fd5b60008080549050905060006040518061010001604052808381526020018881526020018781526020013373ffffffffffffffffffffffffffffffffffffffff168152602001600073ffffffffffffffffffffffffffffffffffffffff16815260200186868080601f016020809104026020016040519081016040528093929190818152602001838380828437600081840152601f19601f82011690508083019250505050505050815260200160006003811115611b6b577f4e487b7100000000000000000000000000000000000000000000000000000000600052602160045260246000fd5b815260200184815250908060018154018082558091505060019003906000526020600020906008020160009091909190915060008201518160000155602082015181600101556040820151816002015560608201518160030160006101000a81548173ffffffffffffffffffffffffffffffffffffffff021916908373ffffffffffffffffffffffffffffffffffffffff16021790555060808201518160040160006101000a81548173ffffffffffffffffffffffffffffffffffffffff021916908373ffffffffffffffffffffffffffffffffffffffff16021790555060a0820151816005019080519060200190611c659291906123f6565b5060c08201518160060160006101000a81548160ff02191690836003811115611cb7577f4e487b7100000000000000000000000000000000000000000000000000000000600052602160045260246000fd5b021790555060e082015181600701555050600160003373ffffffffffffffffffffffffffffffffffffffff1673ffffffffffffffffffffffffffffffffffffffff1681526020019081526020016000208190806001815401808255809150506001900390600052602060002001600090919091909150556000805b600580549050811015611df3573373ffffffffffffffffffffffffffffffffffffffff1660058281548110611d90577f4e487b7100000000000000000000000000000000000000000000000000000000600052603260045260246000fd5b9060005260206000200160009054906101000a900473ffffffffffffffffffffffffffffffffffffffff1673ffffffffffffffffffffffffffffffffffffffff161415611de05760019150611df3565b8080611deb90612e92565b915050611d32565b5080611e5d576005339080600181540180825580915050600190039060005260206000200160009091909190916101000a81548173ffffffffffffffffffffffffffffffffffffffff021916908373ffffffffffffffffffffffffffffffffffffffff1602179055505b817f9e3c7e008a15a3c864482ee94fd7315bcc9d0c04f3a9041ab922f816acffbe0660405160405180910390a250505050505050565b6060600360008373ffffffffffffffffffffffffffffffffffffffff1673ffffffffffffffffffffffffffffffffffffffff168152602001908152602001600020805480602002602001604051908101604052809291908181526020018280548015611f1e57602002820191906000526020600020905b815481526020019060010190808311611f0a575b50505050509050919050565b60606000600160008473ffffffffffffffffffffffffffffffffffffffff1673ffffffffffffffffffffffffffffffffffffffff168152602001908152602001600020805480602002602001604051908101604052809291908181526020018280548015611fb757602002820191906000526020600020905b815481526020019060010190808311611fa3575b505050505090506000815167ffffffffffffffff811115612001577f4e487b7100000000000000000000000000000000000000000000000000000000600052604160045260246000fd5b60405190808252806020026020018201604052801561203a57816020015b61202761232c565b81526020019060019003908161201f5790505b50905060005b8251811015612321576000838281518110612084577f4e487b7100000000000000000000000000000000000000000000000000000000600052603260045260246000fd5b6020026020010151815481106120c3577f4e487b7100000000000000000000000000000000000000000000000000000000600052603260045260246000fd5b9060005260206000209060080201604051806101000160405290816000820154815260200160018201548152602001600282015481526020016003820160009054906101000a900473ffffffffffffffffffffffffffffffffffffffff1673ffffffffffffffffffffffffffffffffffffffff1673ffffffffffffffffffffffffffffffffffffffff1681526020016004820160009054906101000a900473ffffffffffffffffffffffffffffffffffffffff1673ffffffffffffffffffffffffffffffffffffffff1673ffffffffffffffffffffffffffffffffffffffff1681526020016005820180546121b790612e60565b80601f01602080910402602001604051908101604052809291908181526020018280546121e390612e60565b80156122305780601f1061220557610100808354040283529160200191612230565b820191906000526020600020905b81548152906001019060200180831161221357829003601f168201915b505050505081526020016006820160009054906101000a900460ff166003811115612284577f4e487b7100000000000000000000000000000000000000000000000000000000600052602160045260246000fd5b60038111156122bc577f4e487b7100000000000000000000000000000000000000000000000000000000600052602160045260246000fd5b8152602001600782015481525050828281518110612303577f4e487b7100000000000000000000000000000000000000000000000000000000600052603260045260246000fd5b6020026020010181905250808061231990612e92565b915050612040565b508092505050919050565b604051806101000160405280600081526020016000815260200160008152602001600073ffffffffffffffffffffffffffffffffffffffff168152602001600073ffffffffffffffffffffffffffffffffffffffff16815260200160608152602001600060038111156123c8577f4e487b7100000000000000000000000000000000000000000000000000000000600052602160045260246000fd5b8152602001600081525090565b50805460008255906000526020600020908101906123f3919061247c565b50565b82805461240290612e60565b90600052602060002090601f016020900481019282612424576000855561246b565b82601f1061243d57805160ff191683800117855561246b565b8280016001018555821561246b579182015b8281111561246a57825182559160200191906001019061244f565b5b509050612478919061247c565b5090565b5b8082111561249557600081600090555060010161247d565b5090565b6000813590506124a881612f8d565b92915050565b6000813590506124bd81612fa4565b92915050565b60008083601f8401126124d557600080fd5b8235905067ffffffffffffffff8111156124ee57600080fd5b60208301915083600182028301111561250657600080fd5b9250929050565b60008135905061251c81612fb4565b92915050565b60006020828403121561253457600080fd5b600061254284828501612499565b91505092915050565b60006020828403121561255d57600080fd5b600061256b848285016124ae565b91505092915050565b60006020828403121561258657600080fd5b60006125948482850161250d565b91505092915050565b600080604083850312156125b057600080fd5b60006125be8582860161250d565b92505060206125cf85828601612499565b9150509250929050565b6000806000806000608086880312156125f157600080fd5b60006125ff8882890161250d565b95505060206126108882890161250d565b945050604086013567ffffffffffffffff81111561262d57600080fd5b612639888289016124c3565b9350935050606061264c8882890161250d565b9150509295509295909350565b6000612665838361269d565b60208301905092915050565b600061267d8383612a3d565b905092915050565b60006126918383612b9d565b60208301905092915050565b6126a681612dcc565b82525050565b60006126b782612d24565b6126c18185612d77565b93506126cc83612cf4565b8060005b838110156126fd5781516126e48882612659565b97506126ef83612d50565b9250506001810190506126d0565b5085935050505092915050565b600061271582612d2f565b61271f8185612d88565b93508360208202850161273185612d04565b8060005b8581101561276d578484038952815161274e8582612671565b945061275983612d5d565b925060208a01995050600181019050612735565b50829750879550505050505092915050565b600061278a82612d3a565b6127948185612d99565b935061279f83612d14565b8060005b838110156127d05781516127b78882612685565b97506127c283612d6a565b9250506001810190506127a3565b5085935050505092915050565b6127e681612e1b565b82525050565b60006127f782612d45565b6128018185612daa565b9350612811818560208601612e2d565b61281a81612f68565b840191505092915050565b6000612832602283612dbb565b91507f4f6e6c79206f776e65722063616e2063616c6c20746869732066756e6374696f60008301527f6e2e0000000000000000000000000000000000000000000000000000000000006020830152604082019050919050565b6000612898602783612dbb565b91507f4f6e6c792061646d696e20757365722063616e2063616c6c207468697320667560008301527f6e6374696f6e2e000000000000000000000000000000000000000000000000006020830152604082019050919050565b60006128fe601283612dbb565b91507f4f776e65722063616e2774206170706c792e00000000000000000000000000006000830152602082019050919050565b600061293e601f83612dbb565b91507f436f6e7472616374206973206e6f7420696e2076616c69642073746174652e006000830152602082019050919050565b600061297e602383612dbb565b91507f4f6e6c792074656e616e742063616e2063616c6c20746869732066756e63746960008301527f6f6e2e00000000000000000000000000000000000000000000000000000000006020830152604082019050919050565b60006129e4603183612dbb565b91507f456e6420646174652073686f756c64206265206e756c6c206f72206c6174657260008301527f207468616e20737461727420646174652e0000000000000000000000000000006020830152604082019050919050565b600061010083016000830151612a566000860182612b9d565b506020830151612a696020860182612b9d565b506040830151612a7c6040860182612b9d565b506060830151612a8f606086018261269d565b506080830151612aa2608086018261269d565b5060a083015184820360a0860152612aba82826127ec565b91505060c0830151612acf60c08601826127dd565b5060e0830151612ae260e0860182612b9d565b508091505092915050565b600061010083016000830151612b066000860182612b9d565b506020830151612b196020860182612b9d565b506040830151612b2c6040860182612b9d565b506060830151612b3f606086018261269d565b506080830151612b52608086018261269d565b5060a083015184820360a0860152612b6a82826127ec565b91505060c0830151612b7f60c08601826127dd565b5060e0830151612b9260e0860182612b9d565b508091505092915050565b612ba681612e11565b82525050565b60006020820190508181036000830152612bc681846126ac565b905092915050565b60006020820190508181036000830152612be8818461270a565b905092915050565b60006020820190508181036000830152612c0a818461277f565b905092915050565b60006020820190508181036000830152612c2b81612825565b9050919050565b60006020820190508181036000830152612c4b8161288b565b9050919050565b60006020820190508181036000830152612c6b816128f1565b9050919050565b60006020820190508181036000830152612c8b81612931565b9050919050565b60006020820190508181036000830152612cab81612971565b9050919050565b60006020820190508181036000830152612ccb816129d7565b9050919050565b60006020820190508181036000830152612cec8184612aed565b905092915050565b6000819050602082019050919050565b6000819050602082019050919050565b6000819050602082019050919050565b600081519050919050565b600081519050919050565b600081519050919050565b600081519050919050565b6000602082019050919050565b6000602082019050919050565b6000602082019050919050565b600082825260208201905092915050565b600082825260208201905092915050565b600082825260208201905092915050565b600082825260208201905092915050565b600082825260208201905092915050565b6000612dd782612df1565b9050919050565b6000819050612dec82612f79565b919050565b600073ffffffffffffffffffffffffffffffffffffffff82169050919050565b6000819050919050565b6000612e2682612dde565b9050919050565b60005b83811015612e4b578082015181840152602081019050612e30565b83811115612e5a576000848401525b50505050565b60006002820490506001821680612e7857607f821691505b60208210811415612e8c57612e8b612f39565b5b50919050565b6000612e9d82612e11565b91507fffffffffffffffffffffffffffffffffffffffffffffffffffffffffffffffff821415612ed057612ecf612edb565b5b600182019050919050565b7f4e487b7100000000000000000000000000000000000000000000000000000000600052601160045260246000fd5b7f4e487b7100000000000000000000000000000000000000000000000000000000600052602160045260246000fd5b7f4e487b7100000000000000000000000000000000000000000000000000000000600052602260045260246000fd5b6000601f19601f8301169050919050565b60048110612f8a57612f89612f0a565b5b50565b612f9681612dcc565b8114612fa157600080fd5b50565b60048110612fb157600080fd5b50565b612fbd81612e11565b8114612fc857600080fd5b5056fea264697066735822122013c611ffd5c23bb28adba9f90575b6dd6049196f86ffec52992457b5b14381ae64736f6c63430008000033",
  "linkReferences": {},
  "deployedLinkReferences": {}
}