{
  "_format": "hh-sol-artifact-1",
  "contractName": "Rent",
  "sourceName": "contracts/Rent.sol",
  "abi": [
    {
      "inputs": [],
      "stateMutability": "nonpayable",
      "type": "constructor"
    },
    {
      "anonymous": false,
      "inputs": [
        {
          "indexed": true,
          "internalType": "uint256",
          "name": "id",
          "type": "uint256"
        },
        {
          "indexed": true,
          "internalType": "address",
          "name": "applicant",
          "type": "address"
        }
      ],
      "name": "ApplicationAccepted",
      "type": "event"
    },
    {
      "anonymous": false,
      "inputs": [
        {
          "indexed": true,
          "internalType": "uint256",
          "name": "id",
          "type": "uint256"
        }
      ],
      "name": "ContractCreated",
      "type": "event"
    },
    {
      "anonymous": false,
      "inputs": [
        {
          "indexed": true,
          "internalType": "uint256",
          "name": "id",
          "type": "uint256"
        },
        {
          "indexed": true,
          "internalType": "address",
          "name": "tenant",
          "type": "address"
        }
      ],
      "name": "ContractLocked",
      "type": "event"
    },
    {
      "anonymous": false,
      "inputs": [
        {
          "indexed": true,
          "internalType": "uint256",
          "name": "id",
          "type": "uint256"
        },
        {
          "indexed": true,
          "internalType": "address",
          "name": "owner",
          "type": "address"
        },
        {
          "indexed": true,
          "internalType": "address",
          "name": "tenant",
          "type": "address"
        }
      ],
      "name": "DepositReceived",
      "type": "event"
    },
    {
      "inputs": [
        {
          "internalType": "uint256",
          "name": "contractId",
          "type": "uint256"
        },
        {
          "internalType": "address",
          "name": "_address",
          "type": "address"
        }
      ],
      "name": "acceptApplicant",
      "outputs": [],
      "stateMutability": "nonpayable",
      "type": "function"
    },
    {
      "inputs": [
        {
          "internalType": "uint256",
          "name": "startDate",
          "type": "uint256"
        },
        {
          "internalType": "uint256",
          "name": "endDate",
          "type": "uint256"
        },
        {
          "internalType": "string",
          "name": "location",
          "type": "string"
        },
        {
          "internalType": "uint256",
          "name": "price",
          "type": "uint256"
        }
      ],
      "name": "addContract",
      "outputs": [],
      "stateMutability": "nonpayable",
      "type": "function"
    },
    {
      "inputs": [
        {
          "components": [
            {
              "internalType": "uint256",
              "name": "contractId",
              "type": "uint256"
            },
            {
              "internalType": "uint256",
              "name": "startDate",
              "type": "uint256"
            },
            {
              "internalType": "uint256",
              "name": "endDate",
              "type": "uint256"
            },
            {
              "internalType": "address",
              "name": "owner",
              "type": "address"
            },
            {
              "internalType": "address",
              "name": "tenant",
              "type": "address"
            },
            {
              "internalType": "string",
              "name": "location",
              "type": "string"
            },
            {
              "internalType": "enum IRent.State",
              "name": "state",
              "type": "uint8"
            },
            {
              "internalType": "uint256",
              "name": "price",
              "type": "uint256"
            }
          ],
          "internalType": "struct IRent.Contract[]",
          "name": "_contracts",
          "type": "tuple[]"
        }
      ],
      "name": "addContracts",
      "outputs": [],
      "stateMutability": "nonpayable",
      "type": "function"
    },
    {
      "inputs": [
        {
          "internalType": "uint256",
          "name": "contractId",
          "type": "uint256"
        }
      ],
      "name": "applyForContract",
      "outputs": [],
      "stateMutability": "nonpayable",
      "type": "function"
    },
    {
      "inputs": [
        {
          "internalType": "uint256",
          "name": "contractId",
          "type": "uint256"
        }
      ],
      "name": "getApplicants",
      "outputs": [
        {
          "internalType": "address[]",
          "name": "",
          "type": "address[]"
        }
      ],
      "stateMutability": "view",
      "type": "function"
    },
    {
      "inputs": [
        {
          "internalType": "uint256",
          "name": "id",
          "type": "uint256"
        }
      ],
      "name": "getContractById",
      "outputs": [
        {
          "components": [
            {
              "internalType": "uint256",
              "name": "contractId",
              "type": "uint256"
            },
            {
              "internalType": "uint256",
              "name": "startDate",
              "type": "uint256"
            },
            {
              "internalType": "uint256",
              "name": "endDate",
              "type": "uint256"
            },
            {
              "internalType": "address",
              "name": "owner",
              "type": "address"
            },
            {
              "internalType": "address",
              "name": "tenant",
              "type": "address"
            },
            {
              "internalType": "string",
              "name": "location",
              "type": "string"
            },
            {
              "internalType": "enum IRent.State",
              "name": "state",
              "type": "uint8"
            },
            {
              "internalType": "uint256",
              "name": "price",
              "type": "uint256"
            }
          ],
          "internalType": "struct IRent.Contract",
          "name": "",
          "type": "tuple"
        }
      ],
      "stateMutability": "view",
      "type": "function"
    },
    {
      "inputs": [
        {
          "internalType": "address",
          "name": "_address",
          "type": "address"
        }
      ],
      "name": "getContractsByAddress",
      "outputs": [
        {
          "components": [
            {
              "internalType": "uint256",
              "name": "contractId",
              "type": "uint256"
            },
            {
              "internalType": "uint256",
              "name": "startDate",
              "type": "uint256"
            },
            {
              "internalType": "uint256",
              "name": "endDate",
              "type": "uint256"
            },
            {
              "internalType": "address",
              "name": "owner",
              "type": "address"
            },
            {
              "internalType": "address",
              "name": "tenant",
              "type": "address"
            },
            {
              "internalType": "string",
              "name": "location",
              "type": "string"
            },
            {
              "internalType": "enum IRent.State",
              "name": "state",
              "type": "uint8"
            },
            {
              "internalType": "uint256",
              "name": "price",
              "type": "uint256"
            }
          ],
          "internalType": "struct IRent.Contract[]",
          "name": "",
          "type": "tuple[]"
        }
      ],
      "stateMutability": "view",
      "type": "function"
    },
    {
      "inputs": [
        {
          "internalType": "enum IRent.State",
          "name": "state",
          "type": "uint8"
        }
      ],
      "name": "getContractsByState",
      "outputs": [
        {
          "components": [
            {
              "internalType": "uint256",
              "name": "contractId",
              "type": "uint256"
            },
            {
              "internalType": "uint256",
              "name": "startDate",
              "type": "uint256"
            },
            {
              "internalType": "uint256",
              "name": "endDate",
              "type": "uint256"
            },
            {
              "internalType": "address",
              "name": "owner",
              "type": "address"
            },
            {
              "internalType": "address",
              "name": "tenant",
              "type": "address"
            },
            {
              "internalType": "string",
              "name": "location",
              "type": "string"
            },
            {
              "internalType": "enum IRent.State",
              "name": "state",
              "type": "uint8"
            },
            {
              "internalType": "uint256",
              "name": "price",
              "type": "uint256"
            }
          ],
          "internalType": "struct IRent.Contract[]",
          "name": "",
          "type": "tuple[]"
        }
      ],
      "stateMutability": "view",
      "type": "function"
    },
    {
      "inputs": [
        {
          "internalType": "uint256",
          "name": "contractId",
          "type": "uint256"
        }
      ],
      "name": "payDeposit",
      "outputs": [],
      "stateMutability": "payable",
      "type": "function"
    }
  ],
  "bytecode": "0x608060405234801561001057600080fd5b50612a9a806100206000396000f3fe6080604052600436106100865760003560e01c80636cf5d86e116100595780636cf5d86e146101365780638ba9ac6f14610173578063aad2eaaf146101b0578063bf03ddef146101d9578063f44b9a3c1461020257610086565b8063042e45dc1461008b57806328cd3f18146100c85780632b674e38146100e45780633dd773041461010d575b600080fd5b34801561009757600080fd5b506100b260048036038101906100ad9190611fc6565b61023f565b6040516100bf91906125e9565b60405180910390f35b6100e260048036038101906100dd9190611fef565b610757565b005b3480156100f057600080fd5b5061010b60048036038101906101069190611f81565b610be3565b005b34801561011957600080fd5b50610134600480360381019061012f9190612018565b610dbe565b005b34801561014257600080fd5b5061015d60048036038101906101589190611fef565b61108a565b60405161016a91906125c7565b60405180910390f35b34801561017f57600080fd5b5061019a60048036038101906101959190611fef565b611206565b6040516101a791906126cb565b60405180910390f35b3480156101bc57600080fd5b506101d760048036038101906101d29190611fef565b611456565b005b3480156101e557600080fd5b5061020060048036038101906101fb9190612054565b6115eb565b005b34801561020e57600080fd5b5061022960048036038101906102249190611f58565b611916565b60405161023691906125e9565b60405180910390f35b60606000805b6000805490508110156103445783600381111561028b577f4e487b7100000000000000000000000000000000000000000000000000000000600052602160045260246000fd5b600082815481106102c5577f4e487b7100000000000000000000000000000000000000000000000000000000600052603260045260246000fd5b906000526020600020906008020160060160009054906101000a900460ff16600381111561031c577f4e487b7100000000000000000000000000000000000000000000000000000000600052602160045260246000fd5b141561033157818061032d9061292b565b9250505b808061033c9061292b565b915050610245565b5060008167ffffffffffffffff811115610387577f4e487b7100000000000000000000000000000000000000000000000000000000600052604160045260246000fd5b6040519080825280602002602001820160405280156103c057816020015b6103ad611d18565b8152602001906001900390816103a55790505b5090506000805b60008054905081101561074b5785600381111561040d577f4e487b7100000000000000000000000000000000000000000000000000000000600052602160045260246000fd5b60008281548110610447577f4e487b7100000000000000000000000000000000000000000000000000000000600052603260045260246000fd5b906000526020600020906008020160060160009054906101000a900460ff16600381111561049e577f4e487b7100000000000000000000000000000000000000000000000000000000600052602160045260246000fd5b141561073857600081815481106104de577f4e487b7100000000000000000000000000000000000000000000000000000000600052603260045260246000fd5b9060005260206000209060080201604051806101000160405290816000820154815260200160018201548152602001600282015481526020016003820160009054906101000a900473ffffffffffffffffffffffffffffffffffffffff1673ffffffffffffffffffffffffffffffffffffffff1673ffffffffffffffffffffffffffffffffffffffff1681526020016004820160009054906101000a900473ffffffffffffffffffffffffffffffffffffffff1673ffffffffffffffffffffffffffffffffffffffff1673ffffffffffffffffffffffffffffffffffffffff1681526020016005820180546105d2906128f9565b80601f01602080910402602001604051908101604052809291908181526020018280546105fe906128f9565b801561064b5780601f106106205761010080835404028352916020019161064b565b820191906000526020600020905b81548152906001019060200180831161062e57829003601f168201915b505050505081526020016006820160009054906101000a900460ff16600381111561069f577f4e487b7100000000000000000000000000000000000000000000000000000000600052602160045260246000fd5b60038111156106d7577f4e487b7100000000000000000000000000000000000000000000000000000000600052602160045260246000fd5b815260200160078201548152505083838151811061071e577f4e487b7100000000000000000000000000000000000000000000000000000000600052603260045260246000fd5b602002602001018190525081806107349061292b565b9250505b80806107439061292b565b9150506103c7565b50819350505050919050565b8060008181548110610792577f4e487b7100000000000000000000000000000000000000000000000000000000600052603260045260246000fd5b906000526020600020906008020160040160009054906101000a900473ffffffffffffffffffffffffffffffffffffffff1673ffffffffffffffffffffffffffffffffffffffff163373ffffffffffffffffffffffffffffffffffffffff1614610831576040517f08c379a00000000000000000000000000000000000000000000000000000000081526004016108289061268b565b60405180910390fd5b8160016000828154811061086e577f4e487b7100000000000000000000000000000000000000000000000000000000600052603260045260246000fd5b906000526020600020906008020160060160009054906101000a900460ff1660038111156108c5577f4e487b7100000000000000000000000000000000000000000000000000000000600052602160045260246000fd5b8160038111156108fe577f4e487b7100000000000000000000000000000000000000000000000000000000600052602160045260246000fd5b1461093e576040517f08c379a00000000000000000000000000000000000000000000000000000000081526004016109359061266b565b60405180910390fd5b60008481548110610978577f4e487b7100000000000000000000000000000000000000000000000000000000600052603260045260246000fd5b90600052602060002090600802016007015434146109cb576040517f08c379a00000000000000000000000000000000000000000000000000000000081526004016109c29061262b565b60405180910390fd5b60008481548110610a05577f4e487b7100000000000000000000000000000000000000000000000000000000600052603260045260246000fd5b906000526020600020906008020160030160009054906101000a900473ffffffffffffffffffffffffffffffffffffffff1673ffffffffffffffffffffffffffffffffffffffff166108fc349081150290604051600060405180830381858888f19350505050158015610a7c573d6000803e3d6000fd5b50600260008581548110610ab9577f4e487b7100000000000000000000000000000000000000000000000000000000600052603260045260246000fd5b906000526020600020906008020160060160006101000a81548160ff02191690836003811115610b12577f4e487b7100000000000000000000000000000000000000000000000000000000600052602160045260246000fd5b02179055503373ffffffffffffffffffffffffffffffffffffffff1660008581548110610b68577f4e487b7100000000000000000000000000000000000000000000000000000000600052603260045260246000fd5b906000526020600020906008020160030160009054906101000a900473ffffffffffffffffffffffffffffffffffffffff1673ffffffffffffffffffffffffffffffffffffffff16857f5b3fbe89d042c633e7d6fc9434acfee6e234221722ea42fdfdfa95bb84c69e5460405160405180910390a450505050565b60005b82829050811015610db9573073ffffffffffffffffffffffffffffffffffffffff1663bf03ddef848484818110610c46577f4e487b7100000000000000000000000000000000000000000000000000000000600052603260045260246000fd5b9050602002810190610c589190612792565b60200135858585818110610c95577f4e487b7100000000000000000000000000000000000000000000000000000000600052603260045260246000fd5b9050602002810190610ca79190612792565b60400135868686818110610ce4577f4e487b7100000000000000000000000000000000000000000000000000000000600052603260045260246000fd5b9050602002810190610cf69190612792565b8060a00190610d05919061273b565b888888818110610d3e577f4e487b7100000000000000000000000000000000000000000000000000000000600052603260045260246000fd5b9050602002810190610d509190612792565b60e001356040518663ffffffff1660e01b8152600401610d749594939291906126ed565b600060405180830381600087803b158015610d8e57600080fd5b505af1158015610da2573d6000803e3d6000fd5b505050508080610db19061292b565b915050610be6565b505050565b8160008181548110610df9577f4e487b7100000000000000000000000000000000000000000000000000000000600052603260045260246000fd5b906000526020600020906008020160030160009054906101000a900473ffffffffffffffffffffffffffffffffffffffff1673ffffffffffffffffffffffffffffffffffffffff163373ffffffffffffffffffffffffffffffffffffffff1614610e98576040517f08c379a0000000000000000000000000000000000000000000000000000000008152600401610e8f9061260b565b60405180910390fd5b600160008481548110610ed4577f4e487b7100000000000000000000000000000000000000000000000000000000600052603260045260246000fd5b906000526020600020906008020160060160006101000a81548160ff02191690836003811115610f2d577f4e487b7100000000000000000000000000000000000000000000000000000000600052602160045260246000fd5b02179055508160008481548110610f6d577f4e487b7100000000000000000000000000000000000000000000000000000000600052603260045260246000fd5b906000526020600020906008020160040160006101000a81548173ffffffffffffffffffffffffffffffffffffffff021916908373ffffffffffffffffffffffffffffffffffffffff1602179055508173ffffffffffffffffffffffffffffffffffffffff16837f0907ad1362c20b0c1f2fa8e892146569226987c4602687d1feb4633a0f3342ac60405160405180910390a360026000848152602001908152602001600020600061101f9190611dc1565b600160008373ffffffffffffffffffffffffffffffffffffffff1673ffffffffffffffffffffffffffffffffffffffff168152602001908152602001600020839080600181540180825580915050600190039060005260206000200160009091909190915055505050565b606081600081815481106110c7577f4e487b7100000000000000000000000000000000000000000000000000000000600052603260045260246000fd5b906000526020600020906008020160030160009054906101000a900473ffffffffffffffffffffffffffffffffffffffff1673ffffffffffffffffffffffffffffffffffffffff163373ffffffffffffffffffffffffffffffffffffffff1614611166576040517f08c379a000000000000000000000000000000000000000000000000000000000815260040161115d9061260b565b60405180910390fd5b600260008481526020019081526020016000208054806020026020016040519081016040528092919081815260200182805480156111f957602002820191906000526020600020905b8160009054906101000a900473ffffffffffffffffffffffffffffffffffffffff1673ffffffffffffffffffffffffffffffffffffffff16815260200190600101908083116111af575b5050505050915050919050565b61120e611d18565b60008281548110611248577f4e487b7100000000000000000000000000000000000000000000000000000000600052603260045260246000fd5b9060005260206000209060080201604051806101000160405290816000820154815260200160018201548152602001600282015481526020016003820160009054906101000a900473ffffffffffffffffffffffffffffffffffffffff1673ffffffffffffffffffffffffffffffffffffffff1673ffffffffffffffffffffffffffffffffffffffff1681526020016004820160009054906101000a900473ffffffffffffffffffffffffffffffffffffffff1673ffffffffffffffffffffffffffffffffffffffff1673ffffffffffffffffffffffffffffffffffffffff16815260200160058201805461133c906128f9565b80601f0160208091040260200160405190810160405280929190818152602001828054611368906128f9565b80156113b55780601f1061138a576101008083540402835291602001916113b5565b820191906000526020600020905b81548152906001019060200180831161139857829003601f168201915b505050505081526020016006820160009054906101000a900460ff166003811115611409577f4e487b7100000000000000000000000000000000000000000000000000000000600052602160045260246000fd5b6003811115611441577f4e487b7100000000000000000000000000000000000000000000000000000000600052602160045260246000fd5b81526020016007820154815250509050919050565b60008181548110611490577f4e487b7100000000000000000000000000000000000000000000000000000000600052603260045260246000fd5b906000526020600020906008020160030160009054906101000a900473ffffffffffffffffffffffffffffffffffffffff1673ffffffffffffffffffffffffffffffffffffffff163373ffffffffffffffffffffffffffffffffffffffff161415611530576040517f08c379a00000000000000000000000000000000000000000000000000000000081526004016115279061264b565b60405180910390fd5b60026000828152602001908152602001600020339080600181540180825580915050600190039060005260206000200160009091909190916101000a81548173ffffffffffffffffffffffffffffffffffffffff021916908373ffffffffffffffffffffffffffffffffffffffff1602179055503373ffffffffffffffffffffffffffffffffffffffff16817f7ac6f8ad3a8d0f5e51f7d46371ddeb6e2d196578f72b4bb2d7b0884a420d509c60405160405180910390a350565b838510806115f95750600084145b611638576040517f08c379a000000000000000000000000000000000000000000000000000000000815260040161162f906126ab565b60405180910390fd5b60008080549050905060006040518061010001604052808381526020018881526020018781526020013373ffffffffffffffffffffffffffffffffffffffff168152602001600073ffffffffffffffffffffffffffffffffffffffff16815260200186868080601f016020809104026020016040519081016040528093929190818152602001838380828437600081840152601f19601f8201169050808301925050505050505081526020016000600381111561171e577f4e487b7100000000000000000000000000000000000000000000000000000000600052602160045260246000fd5b815260200184815250908060018154018082558091505060019003906000526020600020906008020160009091909190915060008201518160000155602082015181600101556040820151816002015560608201518160030160006101000a81548173ffffffffffffffffffffffffffffffffffffffff021916908373ffffffffffffffffffffffffffffffffffffffff16021790555060808201518160040160006101000a81548173ffffffffffffffffffffffffffffffffffffffff021916908373ffffffffffffffffffffffffffffffffffffffff16021790555060a0820151816005019080519060200190611818929190611de2565b5060c08201518160060160006101000a81548160ff0219169083600381111561186a577f4e487b7100000000000000000000000000000000000000000000000000000000600052602160045260246000fd5b021790555060e082015181600701555050600160003373ffffffffffffffffffffffffffffffffffffffff1673ffffffffffffffffffffffffffffffffffffffff168152602001908152602001600020819080600181540180825580915050600190039060005260206000200160009091909190915055807f9e3c7e008a15a3c864482ee94fd7315bcc9d0c04f3a9041ab922f816acffbe0660405160405180910390a2505050505050565b60606000600160008473ffffffffffffffffffffffffffffffffffffffff1673ffffffffffffffffffffffffffffffffffffffff1681526020019081526020016000208054806020026020016040519081016040528092919081815260200182805480156119a357602002820191906000526020600020905b81548152602001906001019080831161198f575b505050505090506000815167ffffffffffffffff8111156119ed577f4e487b7100000000000000000000000000000000000000000000000000000000600052604160045260246000fd5b604051908082528060200260200182016040528015611a2657816020015b611a13611d18565b815260200190600190039081611a0b5790505b50905060005b8251811015611d0d576000838281518110611a70577f4e487b7100000000000000000000000000000000000000000000000000000000600052603260045260246000fd5b602002602001015181548110611aaf577f4e487b7100000000000000000000000000000000000000000000000000000000600052603260045260246000fd5b9060005260206000209060080201604051806101000160405290816000820154815260200160018201548152602001600282015481526020016003820160009054906101000a900473ffffffffffffffffffffffffffffffffffffffff1673ffffffffffffffffffffffffffffffffffffffff1673ffffffffffffffffffffffffffffffffffffffff1681526020016004820160009054906101000a900473ffffffffffffffffffffffffffffffffffffffff1673ffffffffffffffffffffffffffffffffffffffff1673ffffffffffffffffffffffffffffffffffffffff168152602001600582018054611ba3906128f9565b80601f0160208091040260200160405190810160405280929190818152602001828054611bcf906128f9565b8015611c1c5780601f10611bf157610100808354040283529160200191611c1c565b820191906000526020600020905b815481529060010190602001808311611bff57829003601f168201915b505050505081526020016006820160009054906101000a900460ff166003811115611c70577f4e487b7100000000000000000000000000000000000000000000000000000000600052602160045260246000fd5b6003811115611ca8577f4e487b7100000000000000000000000000000000000000000000000000000000600052602160045260246000fd5b8152602001600782015481525050828281518110611cef577f4e487b7100000000000000000000000000000000000000000000000000000000600052603260045260246000fd5b60200260200101819052508080611d059061292b565b915050611a2c565b508092505050919050565b604051806101000160405280600081526020016000815260200160008152602001600073ffffffffffffffffffffffffffffffffffffffff168152602001600073ffffffffffffffffffffffffffffffffffffffff1681526020016060815260200160006003811115611db4577f4e487b7100000000000000000000000000000000000000000000000000000000600052602160045260246000fd5b8152602001600081525090565b5080546000825590600052602060002090810190611ddf9190611e68565b50565b828054611dee906128f9565b90600052602060002090601f016020900481019282611e105760008555611e57565b82601f10611e2957805160ff1916838001178555611e57565b82800160010185558215611e57579182015b82811115611e56578251825591602001919060010190611e3b565b5b509050611e649190611e68565b5090565b5b80821115611e81576000816000905550600101611e69565b5090565b600081359050611e9481612a26565b92915050565b60008083601f840112611eac57600080fd5b8235905067ffffffffffffffff811115611ec557600080fd5b602083019150836020820283011115611edd57600080fd5b9250929050565b600081359050611ef381612a3d565b92915050565b60008083601f840112611f0b57600080fd5b8235905067ffffffffffffffff811115611f2457600080fd5b602083019150836001820283011115611f3c57600080fd5b9250929050565b600081359050611f5281612a4d565b92915050565b600060208284031215611f6a57600080fd5b6000611f7884828501611e85565b91505092915050565b60008060208385031215611f9457600080fd5b600083013567ffffffffffffffff811115611fae57600080fd5b611fba85828601611e9a565b92509250509250929050565b600060208284031215611fd857600080fd5b6000611fe684828501611ee4565b91505092915050565b60006020828403121561200157600080fd5b600061200f84828501611f43565b91505092915050565b6000806040838503121561202b57600080fd5b600061203985828601611f43565b925050602061204a85828601611e85565b9150509250929050565b60008060008060006080868803121561206c57600080fd5b600061207a88828901611f43565b955050602061208b88828901611f43565b945050604086013567ffffffffffffffff8111156120a857600080fd5b6120b488828901611ef9565b935093505060606120c788828901611f43565b9150509295509295909350565b60006120e08383612100565b60208301905092915050565b60006120f88383612449565b905092915050565b61210981612856565b82525050565b600061211a826127d7565b6121248185612812565b935061212f836127b7565b8060005b8381101561216057815161214788826120d4565b9750612152836127f8565b925050600181019050612133565b5085935050505092915050565b6000612178826127e2565b6121828185612823565b935083602082028501612194856127c7565b8060005b858110156121d057848403895281516121b185826120ec565b94506121bc83612805565b925060208a01995050600181019050612198565b50829750879550505050505092915050565b6121eb816128a5565b82525050565b60006121fd8385612845565b935061220a8385846128b7565b61221383612a01565b840190509392505050565b6000612229826127ed565b6122338185612834565b93506122438185602086016128c6565b61224c81612a01565b840191505092915050565b6000612264602283612845565b91507f4f6e6c79206f776e65722063616e2063616c6c20746869732066756e6374696f60008301527f6e2e0000000000000000000000000000000000000000000000000000000000006020830152604082019050919050565b60006122ca601383612845565b91507f507269636520697320696e636f72726563742e000000000000000000000000006000830152602082019050919050565b600061230a601283612845565b91507f4f776e65722063616e2774206170706c792e00000000000000000000000000006000830152602082019050919050565b600061234a601f83612845565b91507f436f6e7472616374206973206e6f7420696e2076616c69642073746174652e006000830152602082019050919050565b600061238a602383612845565b91507f4f6e6c792074656e616e742063616e2063616c6c20746869732066756e63746960008301527f6f6e2e00000000000000000000000000000000000000000000000000000000006020830152604082019050919050565b60006123f0603183612845565b91507f456e6420646174652073686f756c64206265206e756c6c206f72206c6174657260008301527f207468616e20737461727420646174652e0000000000000000000000000000006020830152604082019050919050565b60006101008301600083015161246260008601826125a9565b50602083015161247560208601826125a9565b50604083015161248860408601826125a9565b50606083015161249b6060860182612100565b5060808301516124ae6080860182612100565b5060a083015184820360a08601526124c6828261221e565b91505060c08301516124db60c08601826121e2565b5060e08301516124ee60e08601826125a9565b508091505092915050565b60006101008301600083015161251260008601826125a9565b50602083015161252560208601826125a9565b50604083015161253860408601826125a9565b50606083015161254b6060860182612100565b50608083015161255e6080860182612100565b5060a083015184820360a0860152612576828261221e565b91505060c083015161258b60c08601826121e2565b5060e083015161259e60e08601826125a9565b508091505092915050565b6125b28161289b565b82525050565b6125c18161289b565b82525050565b600060208201905081810360008301526125e1818461210f565b905092915050565b60006020820190508181036000830152612603818461216d565b905092915050565b6000602082019050818103600083015261262481612257565b9050919050565b60006020820190508181036000830152612644816122bd565b9050919050565b60006020820190508181036000830152612664816122fd565b9050919050565b600060208201905081810360008301526126848161233d565b9050919050565b600060208201905081810360008301526126a48161237d565b9050919050565b600060208201905081810360008301526126c4816123e3565b9050919050565b600060208201905081810360008301526126e581846124f9565b905092915050565b600060808201905061270260008301886125b8565b61270f60208301876125b8565b81810360408301526127228185876121f1565b905061273160608301846125b8565b9695505050505050565b6000808335600160200384360303811261275457600080fd5b80840192508235915067ffffffffffffffff82111561277257600080fd5b60208301925060018202360383131561278a57600080fd5b509250929050565b600082356001610100038336030381126127ab57600080fd5b80830191505092915050565b6000819050602082019050919050565b6000819050602082019050919050565b600081519050919050565b600081519050919050565b600081519050919050565b6000602082019050919050565b6000602082019050919050565b600082825260208201905092915050565b600082825260208201905092915050565b600082825260208201905092915050565b600082825260208201905092915050565b60006128618261287b565b9050919050565b600081905061287682612a12565b919050565b600073ffffffffffffffffffffffffffffffffffffffff82169050919050565b6000819050919050565b60006128b082612868565b9050919050565b82818337600083830152505050565b60005b838110156128e45780820151818401526020810190506128c9565b838111156128f3576000848401525b50505050565b6000600282049050600182168061291157607f821691505b60208210811415612925576129246129d2565b5b50919050565b60006129368261289b565b91507fffffffffffffffffffffffffffffffffffffffffffffffffffffffffffffffff82141561296957612968612974565b5b600182019050919050565b7f4e487b7100000000000000000000000000000000000000000000000000000000600052601160045260246000fd5b7f4e487b7100000000000000000000000000000000000000000000000000000000600052602160045260246000fd5b7f4e487b7100000000000000000000000000000000000000000000000000000000600052602260045260246000fd5b6000601f19601f8301169050919050565b60048110612a2357612a226129a3565b5b50565b612a2f81612856565b8114612a3a57600080fd5b50565b60048110612a4a57600080fd5b50565b612a568161289b565b8114612a6157600080fd5b5056fea2646970667358221220b81778470bf0c1f93936f790c9ddb673d5c0ca15efe0f955e7c6f9d8efa0608464736f6c63430008000033",
  "linkReferences": {},
  "deployedLinkReferences": {}
}