{
  "_format": "hh-sol-artifact-1",
  "contractName": "Rent",
  "sourceName": "contracts/Rent.sol",
  "abi": [
    {
      "inputs": [],
      "stateMutability": "nonpayable",
      "type": "constructor"
    },
    {
      "anonymous": false,
      "inputs": [
        {
          "indexed": true,
          "internalType": "uint256",
          "name": "id",
          "type": "uint256"
        },
        {
          "indexed": true,
          "internalType": "address",
          "name": "applicant",
          "type": "address"
        }
      ],
      "name": "ApplicationAccepted",
      "type": "event"
    },
    {
      "anonymous": false,
      "inputs": [
        {
          "indexed": true,
          "internalType": "uint256",
          "name": "id",
          "type": "uint256"
        }
      ],
      "name": "ContractCreated",
      "type": "event"
    },
    {
      "anonymous": false,
      "inputs": [
        {
          "indexed": true,
          "internalType": "uint256",
          "name": "id",
          "type": "uint256"
        },
        {
          "indexed": true,
          "internalType": "address",
          "name": "tenant",
          "type": "address"
        }
      ],
      "name": "ContractLocked",
      "type": "event"
    },
    {
      "anonymous": false,
      "inputs": [
        {
          "indexed": true,
          "internalType": "uint256",
          "name": "id",
          "type": "uint256"
        },
        {
          "indexed": true,
          "internalType": "address",
          "name": "owner",
          "type": "address"
        },
        {
          "indexed": true,
          "internalType": "address",
          "name": "tenant",
          "type": "address"
        }
      ],
      "name": "DepositReceived",
      "type": "event"
    },
    {
      "inputs": [
        {
          "internalType": "uint256",
          "name": "contractId",
          "type": "uint256"
        },
        {
          "internalType": "address",
          "name": "_address",
          "type": "address"
        }
      ],
      "name": "acceptApplicant",
      "outputs": [],
      "stateMutability": "nonpayable",
      "type": "function"
    },
    {
      "inputs": [
        {
          "internalType": "uint256",
          "name": "startDate",
          "type": "uint256"
        },
        {
          "internalType": "uint256",
          "name": "endDate",
          "type": "uint256"
        },
        {
          "internalType": "string",
          "name": "location",
          "type": "string"
        },
        {
          "internalType": "uint256",
          "name": "price",
          "type": "uint256"
        }
      ],
      "name": "addContract",
      "outputs": [],
      "stateMutability": "nonpayable",
      "type": "function"
    },
    {
      "inputs": [
        {
          "components": [
            {
              "internalType": "uint256",
              "name": "contractId",
              "type": "uint256"
            },
            {
              "internalType": "uint256",
              "name": "startDate",
              "type": "uint256"
            },
            {
              "internalType": "uint256",
              "name": "endDate",
              "type": "uint256"
            },
            {
              "internalType": "address",
              "name": "owner",
              "type": "address"
            },
            {
              "internalType": "address",
              "name": "tenant",
              "type": "address"
            },
            {
              "internalType": "string",
              "name": "location",
              "type": "string"
            },
            {
              "internalType": "enum IRent.State",
              "name": "state",
              "type": "uint8"
            },
            {
              "internalType": "uint256",
              "name": "price",
              "type": "uint256"
            }
          ],
          "internalType": "struct IRent.Contract[]",
          "name": "_contracts",
          "type": "tuple[]"
        }
      ],
      "name": "addContracts",
      "outputs": [],
      "stateMutability": "nonpayable",
      "type": "function"
    },
    {
      "inputs": [
        {
          "internalType": "uint256",
          "name": "contractId",
          "type": "uint256"
        }
      ],
      "name": "applyForContract",
      "outputs": [],
      "stateMutability": "nonpayable",
      "type": "function"
    },
    {
      "inputs": [
        {
          "internalType": "uint256",
          "name": "contractId",
          "type": "uint256"
        }
      ],
      "name": "getApplicants",
      "outputs": [
        {
          "internalType": "address[]",
          "name": "",
          "type": "address[]"
        }
      ],
      "stateMutability": "view",
      "type": "function"
    },
    {
      "inputs": [
        {
          "internalType": "address",
          "name": "_address",
          "type": "address"
        }
      ],
      "name": "getAppliedContracts",
      "outputs": [
        {
          "components": [
            {
              "internalType": "uint256",
              "name": "contractId",
              "type": "uint256"
            },
            {
              "internalType": "uint256",
              "name": "startDate",
              "type": "uint256"
            },
            {
              "internalType": "uint256",
              "name": "endDate",
              "type": "uint256"
            },
            {
              "internalType": "address",
              "name": "owner",
              "type": "address"
            },
            {
              "internalType": "address",
              "name": "tenant",
              "type": "address"
            },
            {
              "internalType": "string",
              "name": "location",
              "type": "string"
            },
            {
              "internalType": "enum IRent.State",
              "name": "state",
              "type": "uint8"
            },
            {
              "internalType": "uint256",
              "name": "price",
              "type": "uint256"
            }
          ],
          "internalType": "struct IRent.Contract[]",
          "name": "",
          "type": "tuple[]"
        }
      ],
      "stateMutability": "view",
      "type": "function"
    },
    {
      "inputs": [
        {
          "internalType": "uint256",
          "name": "id",
          "type": "uint256"
        }
      ],
      "name": "getContractById",
      "outputs": [
        {
          "components": [
            {
              "internalType": "uint256",
              "name": "contractId",
              "type": "uint256"
            },
            {
              "internalType": "uint256",
              "name": "startDate",
              "type": "uint256"
            },
            {
              "internalType": "uint256",
              "name": "endDate",
              "type": "uint256"
            },
            {
              "internalType": "address",
              "name": "owner",
              "type": "address"
            },
            {
              "internalType": "address",
              "name": "tenant",
              "type": "address"
            },
            {
              "internalType": "string",
              "name": "location",
              "type": "string"
            },
            {
              "internalType": "enum IRent.State",
              "name": "state",
              "type": "uint8"
            },
            {
              "internalType": "uint256",
              "name": "price",
              "type": "uint256"
            }
          ],
          "internalType": "struct IRent.Contract",
          "name": "",
          "type": "tuple"
        }
      ],
      "stateMutability": "view",
      "type": "function"
    },
    {
      "inputs": [
        {
          "internalType": "address",
          "name": "_address",
          "type": "address"
        }
      ],
      "name": "getContractsByAddress",
      "outputs": [
        {
          "components": [
            {
              "internalType": "uint256",
              "name": "contractId",
              "type": "uint256"
            },
            {
              "internalType": "uint256",
              "name": "startDate",
              "type": "uint256"
            },
            {
              "internalType": "uint256",
              "name": "endDate",
              "type": "uint256"
            },
            {
              "internalType": "address",
              "name": "owner",
              "type": "address"
            },
            {
              "internalType": "address",
              "name": "tenant",
              "type": "address"
            },
            {
              "internalType": "string",
              "name": "location",
              "type": "string"
            },
            {
              "internalType": "enum IRent.State",
              "name": "state",
              "type": "uint8"
            },
            {
              "internalType": "uint256",
              "name": "price",
              "type": "uint256"
            }
          ],
          "internalType": "struct IRent.Contract[]",
          "name": "",
          "type": "tuple[]"
        }
      ],
      "stateMutability": "view",
      "type": "function"
    },
    {
      "inputs": [
        {
          "internalType": "enum IRent.State",
          "name": "state",
          "type": "uint8"
        }
      ],
      "name": "getContractsByState",
      "outputs": [
        {
          "components": [
            {
              "internalType": "uint256",
              "name": "contractId",
              "type": "uint256"
            },
            {
              "internalType": "uint256",
              "name": "startDate",
              "type": "uint256"
            },
            {
              "internalType": "uint256",
              "name": "endDate",
              "type": "uint256"
            },
            {
              "internalType": "address",
              "name": "owner",
              "type": "address"
            },
            {
              "internalType": "address",
              "name": "tenant",
              "type": "address"
            },
            {
              "internalType": "string",
              "name": "location",
              "type": "string"
            },
            {
              "internalType": "enum IRent.State",
              "name": "state",
              "type": "uint8"
            },
            {
              "internalType": "uint256",
              "name": "price",
              "type": "uint256"
            }
          ],
          "internalType": "struct IRent.Contract[]",
          "name": "",
          "type": "tuple[]"
        }
      ],
      "stateMutability": "view",
      "type": "function"
    },
    {
      "inputs": [
        {
          "internalType": "uint256",
          "name": "contractId",
          "type": "uint256"
        }
      ],
      "name": "payDeposit",
      "outputs": [],
      "stateMutability": "payable",
      "type": "function"
    }
  ],
  "bytecode": "0x608060405234801561001057600080fd5b50612c24806100206000396000f3fe6080604052600436106100905760003560e01c80636cf5d86e116100595780636cf5d86e1461017d5780638ba9ac6f146101ba578063aad2eaaf146101f7578063bf03ddef14610220578063f44b9a3c1461024957610090565b80626cee0e14610095578063042e45dc146100d257806328cd3f181461010f5780632b674e381461012b5780633dd7730414610154575b600080fd5b3480156100a157600080fd5b506100bc60048036038101906100b79190612142565b610286565b6040516100c99190612793565b60405180910390f35b3480156100de57600080fd5b506100f960048036038101906100f491906121b0565b610450565b6040516101069190612793565b60405180910390f35b610129600480360381019061012491906121d9565b610968565b005b34801561013757600080fd5b50610152600480360381019061014d919061216b565b610d67565b005b34801561016057600080fd5b5061017b60048036038101906101769190612202565b610f42565b005b34801561018957600080fd5b506101a4600480360381019061019f91906121d9565b61120e565b6040516101b19190612771565b60405180910390f35b3480156101c657600080fd5b506101e160048036038101906101dc91906121d9565b61138a565b6040516101ee9190612855565b60405180910390f35b34801561020357600080fd5b5061021e600480360381019061021991906121d9565b6115da565b005b34801561022c57600080fd5b506102476004803603810190610242919061223e565b6117d5565b005b34801561025557600080fd5b50610270600480360381019061026b9190612142565b611b00565b60405161027d9190612793565b60405180910390f35b60606000600360008473ffffffffffffffffffffffffffffffffffffffff1673ffffffffffffffffffffffffffffffffffffffff16815260200190815260200160002080548060200260200160405190810160405280929190818152602001828054801561031357602002820191906000526020600020905b8154815260200190600101908083116102ff575b505050505090506000815167ffffffffffffffff81111561035d577f4e487b7100000000000000000000000000000000000000000000000000000000600052604160045260246000fd5b60405190808252806020026020018201604052801561039657816020015b610383611f02565b81526020019060019003908161037b5790505b50905060005b8251811015610445576103ee8382815181106103e1577f4e487b7100000000000000000000000000000000000000000000000000000000600052603260045260246000fd5b602002602001015161138a565b828281518110610427577f4e487b7100000000000000000000000000000000000000000000000000000000600052603260045260246000fd5b6020026020010181905250808061043d90612ab5565b91505061039c565b508092505050919050565b60606000805b6000805490508110156105555783600381111561049c577f4e487b7100000000000000000000000000000000000000000000000000000000600052602160045260246000fd5b600082815481106104d6577f4e487b7100000000000000000000000000000000000000000000000000000000600052603260045260246000fd5b906000526020600020906008020160060160009054906101000a900460ff16600381111561052d577f4e487b7100000000000000000000000000000000000000000000000000000000600052602160045260246000fd5b141561054257818061053e90612ab5565b9250505b808061054d90612ab5565b915050610456565b5060008167ffffffffffffffff811115610598577f4e487b7100000000000000000000000000000000000000000000000000000000600052604160045260246000fd5b6040519080825280602002602001820160405280156105d157816020015b6105be611f02565b8152602001906001900390816105b65790505b5090506000805b60008054905081101561095c5785600381111561061e577f4e487b7100000000000000000000000000000000000000000000000000000000600052602160045260246000fd5b60008281548110610658577f4e487b7100000000000000000000000000000000000000000000000000000000600052603260045260246000fd5b906000526020600020906008020160060160009054906101000a900460ff1660038111156106af577f4e487b7100000000000000000000000000000000000000000000000000000000600052602160045260246000fd5b141561094957600081815481106106ef577f4e487b7100000000000000000000000000000000000000000000000000000000600052603260045260246000fd5b9060005260206000209060080201604051806101000160405290816000820154815260200160018201548152602001600282015481526020016003820160009054906101000a900473ffffffffffffffffffffffffffffffffffffffff1673ffffffffffffffffffffffffffffffffffffffff1673ffffffffffffffffffffffffffffffffffffffff1681526020016004820160009054906101000a900473ffffffffffffffffffffffffffffffffffffffff1673ffffffffffffffffffffffffffffffffffffffff1673ffffffffffffffffffffffffffffffffffffffff1681526020016005820180546107e390612a83565b80601f016020809104026020016040519081016040528092919081815260200182805461080f90612a83565b801561085c5780601f106108315761010080835404028352916020019161085c565b820191906000526020600020905b81548152906001019060200180831161083f57829003601f168201915b505050505081526020016006820160009054906101000a900460ff1660038111156108b0577f4e487b7100000000000000000000000000000000000000000000000000000000600052602160045260246000fd5b60038111156108e8577f4e487b7100000000000000000000000000000000000000000000000000000000600052602160045260246000fd5b815260200160078201548152505083838151811061092f577f4e487b7100000000000000000000000000000000000000000000000000000000600052603260045260246000fd5b6020026020010181905250818061094590612ab5565b9250505b808061095490612ab5565b9150506105d8565b50819350505050919050565b80600081815481106109a3577f4e487b7100000000000000000000000000000000000000000000000000000000600052603260045260246000fd5b906000526020600020906008020160040160009054906101000a900473ffffffffffffffffffffffffffffffffffffffff1673ffffffffffffffffffffffffffffffffffffffff163373ffffffffffffffffffffffffffffffffffffffff1614610a42576040517f08c379a0000000000000000000000000000000000000000000000000000000008152600401610a3990612815565b60405180910390fd5b81600160008281548110610a7f577f4e487b7100000000000000000000000000000000000000000000000000000000600052603260045260246000fd5b906000526020600020906008020160060160009054906101000a900460ff166003811115610ad6577f4e487b7100000000000000000000000000000000000000000000000000000000600052602160045260246000fd5b816003811115610b0f577f4e487b7100000000000000000000000000000000000000000000000000000000600052602160045260246000fd5b14610b4f576040517f08c379a0000000000000000000000000000000000000000000000000000000008152600401610b46906127f5565b60405180910390fd5b60008481548110610b89577f4e487b7100000000000000000000000000000000000000000000000000000000600052603260045260246000fd5b906000526020600020906008020160030160009054906101000a900473ffffffffffffffffffffffffffffffffffffffff1673ffffffffffffffffffffffffffffffffffffffff166108fc349081150290604051600060405180830381858888f19350505050158015610c00573d6000803e3d6000fd5b50600260008581548110610c3d577f4e487b7100000000000000000000000000000000000000000000000000000000600052603260045260246000fd5b906000526020600020906008020160060160006101000a81548160ff02191690836003811115610c96577f4e487b7100000000000000000000000000000000000000000000000000000000600052602160045260246000fd5b02179055503373ffffffffffffffffffffffffffffffffffffffff1660008581548110610cec577f4e487b7100000000000000000000000000000000000000000000000000000000600052603260045260246000fd5b906000526020600020906008020160030160009054906101000a900473ffffffffffffffffffffffffffffffffffffffff1673ffffffffffffffffffffffffffffffffffffffff16857f5b3fbe89d042c633e7d6fc9434acfee6e234221722ea42fdfdfa95bb84c69e5460405160405180910390a450505050565b60005b82829050811015610f3d573073ffffffffffffffffffffffffffffffffffffffff1663bf03ddef848484818110610dca577f4e487b7100000000000000000000000000000000000000000000000000000000600052603260045260246000fd5b9050602002810190610ddc919061291c565b60200135858585818110610e19577f4e487b7100000000000000000000000000000000000000000000000000000000600052603260045260246000fd5b9050602002810190610e2b919061291c565b60400135868686818110610e68577f4e487b7100000000000000000000000000000000000000000000000000000000600052603260045260246000fd5b9050602002810190610e7a919061291c565b8060a00190610e8991906128c5565b888888818110610ec2577f4e487b7100000000000000000000000000000000000000000000000000000000600052603260045260246000fd5b9050602002810190610ed4919061291c565b60e001356040518663ffffffff1660e01b8152600401610ef8959493929190612877565b600060405180830381600087803b158015610f1257600080fd5b505af1158015610f26573d6000803e3d6000fd5b505050508080610f3590612ab5565b915050610d6a565b505050565b8160008181548110610f7d577f4e487b7100000000000000000000000000000000000000000000000000000000600052603260045260246000fd5b906000526020600020906008020160030160009054906101000a900473ffffffffffffffffffffffffffffffffffffffff1673ffffffffffffffffffffffffffffffffffffffff163373ffffffffffffffffffffffffffffffffffffffff161461101c576040517f08c379a0000000000000000000000000000000000000000000000000000000008152600401611013906127b5565b60405180910390fd5b600160008481548110611058577f4e487b7100000000000000000000000000000000000000000000000000000000600052603260045260246000fd5b906000526020600020906008020160060160006101000a81548160ff021916908360038111156110b1577f4e487b7100000000000000000000000000000000000000000000000000000000600052602160045260246000fd5b021790555081600084815481106110f1577f4e487b7100000000000000000000000000000000000000000000000000000000600052603260045260246000fd5b906000526020600020906008020160040160006101000a81548173ffffffffffffffffffffffffffffffffffffffff021916908373ffffffffffffffffffffffffffffffffffffffff1602179055508173ffffffffffffffffffffffffffffffffffffffff16837f0907ad1362c20b0c1f2fa8e892146569226987c4602687d1feb4633a0f3342ac60405160405180910390a36002600084815260200190815260200160002060006111a39190611fab565b600160008373ffffffffffffffffffffffffffffffffffffffff1673ffffffffffffffffffffffffffffffffffffffff168152602001908152602001600020839080600181540180825580915050600190039060005260206000200160009091909190915055505050565b6060816000818154811061124b577f4e487b7100000000000000000000000000000000000000000000000000000000600052603260045260246000fd5b906000526020600020906008020160030160009054906101000a900473ffffffffffffffffffffffffffffffffffffffff1673ffffffffffffffffffffffffffffffffffffffff163373ffffffffffffffffffffffffffffffffffffffff16146112ea576040517f08c379a00000000000000000000000000000000000000000000000000000000081526004016112e1906127b5565b60405180910390fd5b6002600084815260200190815260200160002080548060200260200160405190810160405280929190818152602001828054801561137d57602002820191906000526020600020905b8160009054906101000a900473ffffffffffffffffffffffffffffffffffffffff1673ffffffffffffffffffffffffffffffffffffffff1681526020019060010190808311611333575b5050505050915050919050565b611392611f02565b600082815481106113cc577f4e487b7100000000000000000000000000000000000000000000000000000000600052603260045260246000fd5b9060005260206000209060080201604051806101000160405290816000820154815260200160018201548152602001600282015481526020016003820160009054906101000a900473ffffffffffffffffffffffffffffffffffffffff1673ffffffffffffffffffffffffffffffffffffffff1673ffffffffffffffffffffffffffffffffffffffff1681526020016004820160009054906101000a900473ffffffffffffffffffffffffffffffffffffffff1673ffffffffffffffffffffffffffffffffffffffff1673ffffffffffffffffffffffffffffffffffffffff1681526020016005820180546114c090612a83565b80601f01602080910402602001604051908101604052809291908181526020018280546114ec90612a83565b80156115395780601f1061150e57610100808354040283529160200191611539565b820191906000526020600020905b81548152906001019060200180831161151c57829003601f168201915b505050505081526020016006820160009054906101000a900460ff16600381111561158d577f4e487b7100000000000000000000000000000000000000000000000000000000600052602160045260246000fd5b60038111156115c5577f4e487b7100000000000000000000000000000000000000000000000000000000600052602160045260246000fd5b81526020016007820154815250509050919050565b60008181548110611614577f4e487b7100000000000000000000000000000000000000000000000000000000600052603260045260246000fd5b906000526020600020906008020160030160009054906101000a900473ffffffffffffffffffffffffffffffffffffffff1673ffffffffffffffffffffffffffffffffffffffff163373ffffffffffffffffffffffffffffffffffffffff1614156116b4576040517f08c379a00000000000000000000000000000000000000000000000000000000081526004016116ab906127d5565b60405180910390fd5b60026000828152602001908152602001600020339080600181540180825580915050600190039060005260206000200160009091909190916101000a81548173ffffffffffffffffffffffffffffffffffffffff021916908373ffffffffffffffffffffffffffffffffffffffff160217905550600360003373ffffffffffffffffffffffffffffffffffffffff1673ffffffffffffffffffffffffffffffffffffffff1681526020019081526020016000208190806001815401808255809150506001900390600052602060002001600090919091909150553373ffffffffffffffffffffffffffffffffffffffff16817f7ac6f8ad3a8d0f5e51f7d46371ddeb6e2d196578f72b4bb2d7b0884a420d509c60405160405180910390a350565b838510806117e35750600084145b611822576040517f08c379a000000000000000000000000000000000000000000000000000000000815260040161181990612835565b60405180910390fd5b60008080549050905060006040518061010001604052808381526020018881526020018781526020013373ffffffffffffffffffffffffffffffffffffffff168152602001600073ffffffffffffffffffffffffffffffffffffffff16815260200186868080601f016020809104026020016040519081016040528093929190818152602001838380828437600081840152601f19601f82011690508083019250505050505050815260200160006003811115611908577f4e487b7100000000000000000000000000000000000000000000000000000000600052602160045260246000fd5b815260200184815250908060018154018082558091505060019003906000526020600020906008020160009091909190915060008201518160000155602082015181600101556040820151816002015560608201518160030160006101000a81548173ffffffffffffffffffffffffffffffffffffffff021916908373ffffffffffffffffffffffffffffffffffffffff16021790555060808201518160040160006101000a81548173ffffffffffffffffffffffffffffffffffffffff021916908373ffffffffffffffffffffffffffffffffffffffff16021790555060a0820151816005019080519060200190611a02929190611fcc565b5060c08201518160060160006101000a81548160ff02191690836003811115611a54577f4e487b7100000000000000000000000000000000000000000000000000000000600052602160045260246000fd5b021790555060e082015181600701555050600160003373ffffffffffffffffffffffffffffffffffffffff1673ffffffffffffffffffffffffffffffffffffffff168152602001908152602001600020819080600181540180825580915050600190039060005260206000200160009091909190915055807f9e3c7e008a15a3c864482ee94fd7315bcc9d0c04f3a9041ab922f816acffbe0660405160405180910390a2505050505050565b60606000600160008473ffffffffffffffffffffffffffffffffffffffff1673ffffffffffffffffffffffffffffffffffffffff168152602001908152602001600020805480602002602001604051908101604052809291908181526020018280548015611b8d57602002820191906000526020600020905b815481526020019060010190808311611b79575b505050505090506000815167ffffffffffffffff811115611bd7577f4e487b7100000000000000000000000000000000000000000000000000000000600052604160045260246000fd5b604051908082528060200260200182016040528015611c1057816020015b611bfd611f02565b815260200190600190039081611bf55790505b50905060005b8251811015611ef7576000838281518110611c5a577f4e487b7100000000000000000000000000000000000000000000000000000000600052603260045260246000fd5b602002602001015181548110611c99577f4e487b7100000000000000000000000000000000000000000000000000000000600052603260045260246000fd5b9060005260206000209060080201604051806101000160405290816000820154815260200160018201548152602001600282015481526020016003820160009054906101000a900473ffffffffffffffffffffffffffffffffffffffff1673ffffffffffffffffffffffffffffffffffffffff1673ffffffffffffffffffffffffffffffffffffffff1681526020016004820160009054906101000a900473ffffffffffffffffffffffffffffffffffffffff1673ffffffffffffffffffffffffffffffffffffffff1673ffffffffffffffffffffffffffffffffffffffff168152602001600582018054611d8d90612a83565b80601f0160208091040260200160405190810160405280929190818152602001828054611db990612a83565b8015611e065780601f10611ddb57610100808354040283529160200191611e06565b820191906000526020600020905b815481529060010190602001808311611de957829003601f168201915b505050505081526020016006820160009054906101000a900460ff166003811115611e5a577f4e487b7100000000000000000000000000000000000000000000000000000000600052602160045260246000fd5b6003811115611e92577f4e487b7100000000000000000000000000000000000000000000000000000000600052602160045260246000fd5b8152602001600782015481525050828281518110611ed9577f4e487b7100000000000000000000000000000000000000000000000000000000600052603260045260246000fd5b60200260200101819052508080611eef90612ab5565b915050611c16565b508092505050919050565b604051806101000160405280600081526020016000815260200160008152602001600073ffffffffffffffffffffffffffffffffffffffff168152602001600073ffffffffffffffffffffffffffffffffffffffff1681526020016060815260200160006003811115611f9e577f4e487b7100000000000000000000000000000000000000000000000000000000600052602160045260246000fd5b8152602001600081525090565b5080546000825590600052602060002090810190611fc99190612052565b50565b828054611fd890612a83565b90600052602060002090601f016020900481019282611ffa5760008555612041565b82601f1061201357805160ff1916838001178555612041565b82800160010185558215612041579182015b82811115612040578251825591602001919060010190612025565b5b50905061204e9190612052565b5090565b5b8082111561206b576000816000905550600101612053565b5090565b60008135905061207e81612bb0565b92915050565b60008083601f84011261209657600080fd5b8235905067ffffffffffffffff8111156120af57600080fd5b6020830191508360208202830111156120c757600080fd5b9250929050565b6000813590506120dd81612bc7565b92915050565b60008083601f8401126120f557600080fd5b8235905067ffffffffffffffff81111561210e57600080fd5b60208301915083600182028301111561212657600080fd5b9250929050565b60008135905061213c81612bd7565b92915050565b60006020828403121561215457600080fd5b60006121628482850161206f565b91505092915050565b6000806020838503121561217e57600080fd5b600083013567ffffffffffffffff81111561219857600080fd5b6121a485828601612084565b92509250509250929050565b6000602082840312156121c257600080fd5b60006121d0848285016120ce565b91505092915050565b6000602082840312156121eb57600080fd5b60006121f98482850161212d565b91505092915050565b6000806040838503121561221557600080fd5b60006122238582860161212d565b92505060206122348582860161206f565b9150509250929050565b60008060008060006080868803121561225657600080fd5b60006122648882890161212d565b95505060206122758882890161212d565b945050604086013567ffffffffffffffff81111561229257600080fd5b61229e888289016120e3565b935093505060606122b18882890161212d565b9150509295509295909350565b60006122ca83836122ea565b60208301905092915050565b60006122e283836125f3565b905092915050565b6122f3816129e0565b82525050565b600061230482612961565b61230e818561299c565b935061231983612941565b8060005b8381101561234a57815161233188826122be565b975061233c83612982565b92505060018101905061231d565b5085935050505092915050565b60006123628261296c565b61236c81856129ad565b93508360208202850161237e85612951565b8060005b858110156123ba578484038952815161239b85826122d6565b94506123a68361298f565b925060208a01995050600181019050612382565b50829750879550505050505092915050565b6123d581612a2f565b82525050565b60006123e783856129cf565b93506123f4838584612a41565b6123fd83612b8b565b840190509392505050565b600061241382612977565b61241d81856129be565b935061242d818560208601612a50565b61243681612b8b565b840191505092915050565b600061244e6022836129cf565b91507f4f6e6c79206f776e65722063616e2063616c6c20746869732066756e6374696f60008301527f6e2e0000000000000000000000000000000000000000000000000000000000006020830152604082019050919050565b60006124b46012836129cf565b91507f4f776e65722063616e2774206170706c792e00000000000000000000000000006000830152602082019050919050565b60006124f4601f836129cf565b91507f436f6e7472616374206973206e6f7420696e2076616c69642073746174652e006000830152602082019050919050565b60006125346023836129cf565b91507f4f6e6c792074656e616e742063616e2063616c6c20746869732066756e63746960008301527f6f6e2e00000000000000000000000000000000000000000000000000000000006020830152604082019050919050565b600061259a6031836129cf565b91507f456e6420646174652073686f756c64206265206e756c6c206f72206c6174657260008301527f207468616e20737461727420646174652e0000000000000000000000000000006020830152604082019050919050565b60006101008301600083015161260c6000860182612753565b50602083015161261f6020860182612753565b5060408301516126326040860182612753565b50606083015161264560608601826122ea565b50608083015161265860808601826122ea565b5060a083015184820360a08601526126708282612408565b91505060c083015161268560c08601826123cc565b5060e083015161269860e0860182612753565b508091505092915050565b6000610100830160008301516126bc6000860182612753565b5060208301516126cf6020860182612753565b5060408301516126e26040860182612753565b5060608301516126f560608601826122ea565b50608083015161270860808601826122ea565b5060a083015184820360a08601526127208282612408565b91505060c083015161273560c08601826123cc565b5060e083015161274860e0860182612753565b508091505092915050565b61275c81612a25565b82525050565b61276b81612a25565b82525050565b6000602082019050818103600083015261278b81846122f9565b905092915050565b600060208201905081810360008301526127ad8184612357565b905092915050565b600060208201905081810360008301526127ce81612441565b9050919050565b600060208201905081810360008301526127ee816124a7565b9050919050565b6000602082019050818103600083015261280e816124e7565b9050919050565b6000602082019050818103600083015261282e81612527565b9050919050565b6000602082019050818103600083015261284e8161258d565b9050919050565b6000602082019050818103600083015261286f81846126a3565b905092915050565b600060808201905061288c6000830188612762565b6128996020830187612762565b81810360408301526128ac8185876123db565b90506128bb6060830184612762565b9695505050505050565b600080833560016020038436030381126128de57600080fd5b80840192508235915067ffffffffffffffff8211156128fc57600080fd5b60208301925060018202360383131561291457600080fd5b509250929050565b6000823560016101000383360303811261293557600080fd5b80830191505092915050565b6000819050602082019050919050565b6000819050602082019050919050565b600081519050919050565b600081519050919050565b600081519050919050565b6000602082019050919050565b6000602082019050919050565b600082825260208201905092915050565b600082825260208201905092915050565b600082825260208201905092915050565b600082825260208201905092915050565b60006129eb82612a05565b9050919050565b6000819050612a0082612b9c565b919050565b600073ffffffffffffffffffffffffffffffffffffffff82169050919050565b6000819050919050565b6000612a3a826129f2565b9050919050565b82818337600083830152505050565b60005b83811015612a6e578082015181840152602081019050612a53565b83811115612a7d576000848401525b50505050565b60006002820490506001821680612a9b57607f821691505b60208210811415612aaf57612aae612b5c565b5b50919050565b6000612ac082612a25565b91507fffffffffffffffffffffffffffffffffffffffffffffffffffffffffffffffff821415612af357612af2612afe565b5b600182019050919050565b7f4e487b7100000000000000000000000000000000000000000000000000000000600052601160045260246000fd5b7f4e487b7100000000000000000000000000000000000000000000000000000000600052602160045260246000fd5b7f4e487b7100000000000000000000000000000000000000000000000000000000600052602260045260246000fd5b6000601f19601f8301169050919050565b60048110612bad57612bac612b2d565b5b50565b612bb9816129e0565b8114612bc457600080fd5b50565b60048110612bd457600080fd5b50565b612be081612a25565b8114612beb57600080fd5b5056fea2646970667358221220159fc86a243dd991682ce54a3a7f4097b5adacbbb04b1e6abe017d62c408dcd664736f6c63430008000033",
  "linkReferences": {},
  "deployedLinkReferences": {}
}