{
  "_format": "hh-sol-artifact-1",
  "contractName": "Rent",
  "sourceName": "contracts/Rent.sol",
  "abi": [
    {
      "inputs": [],
      "stateMutability": "nonpayable",
      "type": "constructor"
    },
    {
      "anonymous": false,
      "inputs": [
        {
          "indexed": true,
          "internalType": "uint256",
          "name": "id",
          "type": "uint256"
        },
        {
          "indexed": true,
          "internalType": "address",
          "name": "applicant",
          "type": "address"
        }
      ],
      "name": "ApplicationAccepted",
      "type": "event"
    },
    {
      "anonymous": false,
      "inputs": [
        {
          "indexed": true,
          "internalType": "uint256",
          "name": "id",
          "type": "uint256"
        }
      ],
      "name": "ContractCreated",
      "type": "event"
    },
    {
      "anonymous": false,
      "inputs": [
        {
          "indexed": true,
          "internalType": "uint256",
          "name": "id",
          "type": "uint256"
        },
        {
          "indexed": true,
          "internalType": "address",
          "name": "tenant",
          "type": "address"
        }
      ],
      "name": "ContractLocked",
      "type": "event"
    },
    {
      "anonymous": false,
      "inputs": [
        {
          "indexed": true,
          "internalType": "uint256",
          "name": "id",
          "type": "uint256"
        },
        {
          "indexed": true,
          "internalType": "address",
          "name": "owner",
          "type": "address"
        },
        {
          "indexed": true,
          "internalType": "address",
          "name": "tenant",
          "type": "address"
        }
      ],
      "name": "DepositReceived",
      "type": "event"
    },
    {
      "inputs": [
        {
          "internalType": "uint256",
          "name": "contractId",
          "type": "uint256"
        },
        {
          "internalType": "address",
          "name": "_address",
          "type": "address"
        }
      ],
      "name": "acceptApplicant",
      "outputs": [],
      "stateMutability": "nonpayable",
      "type": "function"
    },
    {
      "inputs": [
        {
          "internalType": "uint256",
          "name": "startDate",
          "type": "uint256"
        },
        {
          "internalType": "uint256",
          "name": "endDate",
          "type": "uint256"
        },
        {
          "internalType": "string",
          "name": "location",
          "type": "string"
        },
        {
          "internalType": "uint256",
          "name": "price",
          "type": "uint256"
        }
      ],
      "name": "addContract",
      "outputs": [],
      "stateMutability": "nonpayable",
      "type": "function"
    },
    {
      "inputs": [
        {
          "components": [
            {
              "internalType": "uint256",
              "name": "contractId",
              "type": "uint256"
            },
            {
              "internalType": "uint256",
              "name": "startDate",
              "type": "uint256"
            },
            {
              "internalType": "uint256",
              "name": "endDate",
              "type": "uint256"
            },
            {
              "internalType": "address",
              "name": "owner",
              "type": "address"
            },
            {
              "internalType": "address",
              "name": "tenant",
              "type": "address"
            },
            {
              "internalType": "string",
              "name": "location",
              "type": "string"
            },
            {
              "internalType": "enum IRent.State",
              "name": "state",
              "type": "uint8"
            },
            {
              "internalType": "uint256",
              "name": "price",
              "type": "uint256"
            }
          ],
          "internalType": "struct IRent.Contract[]",
          "name": "_contracts",
          "type": "tuple[]"
        }
      ],
      "name": "addContracts",
      "outputs": [],
      "stateMutability": "nonpayable",
      "type": "function"
    },
    {
      "inputs": [
        {
          "internalType": "uint256",
          "name": "contractId",
          "type": "uint256"
        }
      ],
      "name": "applyForContract",
      "outputs": [],
      "stateMutability": "nonpayable",
      "type": "function"
    },
    {
      "inputs": [
        {
          "internalType": "uint256",
          "name": "contractId",
          "type": "uint256"
        }
      ],
      "name": "getApplicants",
      "outputs": [
        {
          "internalType": "address[]",
          "name": "",
          "type": "address[]"
        }
      ],
      "stateMutability": "view",
      "type": "function"
    },
    {
      "inputs": [
        {
          "internalType": "address",
          "name": "_address",
          "type": "address"
        }
      ],
      "name": "getAppliedContracts",
      "outputs": [
        {
          "components": [
            {
              "internalType": "uint256",
              "name": "contractId",
              "type": "uint256"
            },
            {
              "internalType": "uint256",
              "name": "startDate",
              "type": "uint256"
            },
            {
              "internalType": "uint256",
              "name": "endDate",
              "type": "uint256"
            },
            {
              "internalType": "address",
              "name": "owner",
              "type": "address"
            },
            {
              "internalType": "address",
              "name": "tenant",
              "type": "address"
            },
            {
              "internalType": "string",
              "name": "location",
              "type": "string"
            },
            {
              "internalType": "enum IRent.State",
              "name": "state",
              "type": "uint8"
            },
            {
              "internalType": "uint256",
              "name": "price",
              "type": "uint256"
            }
          ],
          "internalType": "struct IRent.Contract[]",
          "name": "",
          "type": "tuple[]"
        }
      ],
      "stateMutability": "view",
      "type": "function"
    },
    {
      "inputs": [
        {
          "internalType": "uint256",
          "name": "id",
          "type": "uint256"
        }
      ],
      "name": "getContractById",
      "outputs": [
        {
          "components": [
            {
              "internalType": "uint256",
              "name": "contractId",
              "type": "uint256"
            },
            {
              "internalType": "uint256",
              "name": "startDate",
              "type": "uint256"
            },
            {
              "internalType": "uint256",
              "name": "endDate",
              "type": "uint256"
            },
            {
              "internalType": "address",
              "name": "owner",
              "type": "address"
            },
            {
              "internalType": "address",
              "name": "tenant",
              "type": "address"
            },
            {
              "internalType": "string",
              "name": "location",
              "type": "string"
            },
            {
              "internalType": "enum IRent.State",
              "name": "state",
              "type": "uint8"
            },
            {
              "internalType": "uint256",
              "name": "price",
              "type": "uint256"
            }
          ],
          "internalType": "struct IRent.Contract",
          "name": "",
          "type": "tuple"
        }
      ],
      "stateMutability": "view",
      "type": "function"
    },
    {
      "inputs": [
        {
          "internalType": "address",
          "name": "_address",
          "type": "address"
        }
      ],
      "name": "getContractsByAddress",
      "outputs": [
        {
          "components": [
            {
              "internalType": "uint256",
              "name": "contractId",
              "type": "uint256"
            },
            {
              "internalType": "uint256",
              "name": "startDate",
              "type": "uint256"
            },
            {
              "internalType": "uint256",
              "name": "endDate",
              "type": "uint256"
            },
            {
              "internalType": "address",
              "name": "owner",
              "type": "address"
            },
            {
              "internalType": "address",
              "name": "tenant",
              "type": "address"
            },
            {
              "internalType": "string",
              "name": "location",
              "type": "string"
            },
            {
              "internalType": "enum IRent.State",
              "name": "state",
              "type": "uint8"
            },
            {
              "internalType": "uint256",
              "name": "price",
              "type": "uint256"
            }
          ],
          "internalType": "struct IRent.Contract[]",
          "name": "",
          "type": "tuple[]"
        }
      ],
      "stateMutability": "view",
      "type": "function"
    },
    {
      "inputs": [
        {
          "internalType": "enum IRent.State",
          "name": "state",
          "type": "uint8"
        }
      ],
      "name": "getContractsByState",
      "outputs": [
        {
          "components": [
            {
              "internalType": "uint256",
              "name": "contractId",
              "type": "uint256"
            },
            {
              "internalType": "uint256",
              "name": "startDate",
              "type": "uint256"
            },
            {
              "internalType": "uint256",
              "name": "endDate",
              "type": "uint256"
            },
            {
              "internalType": "address",
              "name": "owner",
              "type": "address"
            },
            {
              "internalType": "address",
              "name": "tenant",
              "type": "address"
            },
            {
              "internalType": "string",
              "name": "location",
              "type": "string"
            },
            {
              "internalType": "enum IRent.State",
              "name": "state",
              "type": "uint8"
            },
            {
              "internalType": "uint256",
              "name": "price",
              "type": "uint256"
            }
          ],
          "internalType": "struct IRent.Contract[]",
          "name": "",
          "type": "tuple[]"
        }
      ],
      "stateMutability": "view",
      "type": "function"
    },
    {
      "inputs": [
        {
          "internalType": "uint256",
          "name": "contractId",
          "type": "uint256"
        }
      ],
      "name": "payDeposit",
      "outputs": [],
      "stateMutability": "payable",
      "type": "function"
    }
  ],
  "bytecode": "0x608060405234801561001057600080fd5b50612d11806100206000396000f3fe6080604052600436106100905760003560e01c80636cf5d86e116100595780636cf5d86e1461017d5780638ba9ac6f146101ba578063aad2eaaf146101f7578063bf03ddef14610220578063f44b9a3c1461024957610090565b80626cee0e14610095578063042e45dc146100d257806328cd3f181461010f5780632b674e381461012b5780633dd7730414610154575b600080fd5b3480156100a157600080fd5b506100bc60048036038101906100b791906121cf565b610286565b6040516100c99190612860565b60405180910390f35b3480156100de57600080fd5b506100f960048036038101906100f4919061223d565b610450565b6040516101069190612860565b60405180910390f35b61012960048036038101906101249190612266565b610968565b005b34801561013757600080fd5b50610152600480360381019061014d91906121f8565b610df4565b005b34801561016057600080fd5b5061017b6004803603810190610176919061228f565b610fcf565b005b34801561018957600080fd5b506101a4600480360381019061019f9190612266565b61129b565b6040516101b1919061283e565b60405180910390f35b3480156101c657600080fd5b506101e160048036038101906101dc9190612266565b611417565b6040516101ee9190612942565b60405180910390f35b34801561020357600080fd5b5061021e60048036038101906102199190612266565b611667565b005b34801561022c57600080fd5b50610247600480360381019061024291906122cb565b611862565b005b34801561025557600080fd5b50610270600480360381019061026b91906121cf565b611b8d565b60405161027d9190612860565b60405180910390f35b60606000600360008473ffffffffffffffffffffffffffffffffffffffff1673ffffffffffffffffffffffffffffffffffffffff16815260200190815260200160002080548060200260200160405190810160405280929190818152602001828054801561031357602002820191906000526020600020905b8154815260200190600101908083116102ff575b505050505090506000815167ffffffffffffffff81111561035d577f4e487b7100000000000000000000000000000000000000000000000000000000600052604160045260246000fd5b60405190808252806020026020018201604052801561039657816020015b610383611f8f565b81526020019060019003908161037b5790505b50905060005b8251811015610445576103ee8382815181106103e1577f4e487b7100000000000000000000000000000000000000000000000000000000600052603260045260246000fd5b6020026020010151611417565b828281518110610427577f4e487b7100000000000000000000000000000000000000000000000000000000600052603260045260246000fd5b6020026020010181905250808061043d90612ba2565b91505061039c565b508092505050919050565b60606000805b6000805490508110156105555783600381111561049c577f4e487b7100000000000000000000000000000000000000000000000000000000600052602160045260246000fd5b600082815481106104d6577f4e487b7100000000000000000000000000000000000000000000000000000000600052603260045260246000fd5b906000526020600020906008020160060160009054906101000a900460ff16600381111561052d577f4e487b7100000000000000000000000000000000000000000000000000000000600052602160045260246000fd5b141561054257818061053e90612ba2565b9250505b808061054d90612ba2565b915050610456565b5060008167ffffffffffffffff811115610598577f4e487b7100000000000000000000000000000000000000000000000000000000600052604160045260246000fd5b6040519080825280602002602001820160405280156105d157816020015b6105be611f8f565b8152602001906001900390816105b65790505b5090506000805b60008054905081101561095c5785600381111561061e577f4e487b7100000000000000000000000000000000000000000000000000000000600052602160045260246000fd5b60008281548110610658577f4e487b7100000000000000000000000000000000000000000000000000000000600052603260045260246000fd5b906000526020600020906008020160060160009054906101000a900460ff1660038111156106af577f4e487b7100000000000000000000000000000000000000000000000000000000600052602160045260246000fd5b141561094957600081815481106106ef577f4e487b7100000000000000000000000000000000000000000000000000000000600052603260045260246000fd5b9060005260206000209060080201604051806101000160405290816000820154815260200160018201548152602001600282015481526020016003820160009054906101000a900473ffffffffffffffffffffffffffffffffffffffff1673ffffffffffffffffffffffffffffffffffffffff1673ffffffffffffffffffffffffffffffffffffffff1681526020016004820160009054906101000a900473ffffffffffffffffffffffffffffffffffffffff1673ffffffffffffffffffffffffffffffffffffffff1673ffffffffffffffffffffffffffffffffffffffff1681526020016005820180546107e390612b70565b80601f016020809104026020016040519081016040528092919081815260200182805461080f90612b70565b801561085c5780601f106108315761010080835404028352916020019161085c565b820191906000526020600020905b81548152906001019060200180831161083f57829003601f168201915b505050505081526020016006820160009054906101000a900460ff1660038111156108b0577f4e487b7100000000000000000000000000000000000000000000000000000000600052602160045260246000fd5b60038111156108e8577f4e487b7100000000000000000000000000000000000000000000000000000000600052602160045260246000fd5b815260200160078201548152505083838151811061092f577f4e487b7100000000000000000000000000000000000000000000000000000000600052603260045260246000fd5b6020026020010181905250818061094590612ba2565b9250505b808061095490612ba2565b9150506105d8565b50819350505050919050565b80600081815481106109a3577f4e487b7100000000000000000000000000000000000000000000000000000000600052603260045260246000fd5b906000526020600020906008020160040160009054906101000a900473ffffffffffffffffffffffffffffffffffffffff1673ffffffffffffffffffffffffffffffffffffffff163373ffffffffffffffffffffffffffffffffffffffff1614610a42576040517f08c379a0000000000000000000000000000000000000000000000000000000008152600401610a3990612902565b60405180910390fd5b81600160008281548110610a7f577f4e487b7100000000000000000000000000000000000000000000000000000000600052603260045260246000fd5b906000526020600020906008020160060160009054906101000a900460ff166003811115610ad6577f4e487b7100000000000000000000000000000000000000000000000000000000600052602160045260246000fd5b816003811115610b0f577f4e487b7100000000000000000000000000000000000000000000000000000000600052602160045260246000fd5b14610b4f576040517f08c379a0000000000000000000000000000000000000000000000000000000008152600401610b46906128e2565b60405180910390fd5b60008481548110610b89577f4e487b7100000000000000000000000000000000000000000000000000000000600052603260045260246000fd5b9060005260206000209060080201600701543414610bdc576040517f08c379a0000000000000000000000000000000000000000000000000000000008152600401610bd3906128a2565b60405180910390fd5b60008481548110610c16577f4e487b7100000000000000000000000000000000000000000000000000000000600052603260045260246000fd5b906000526020600020906008020160030160009054906101000a900473ffffffffffffffffffffffffffffffffffffffff1673ffffffffffffffffffffffffffffffffffffffff166108fc349081150290604051600060405180830381858888f19350505050158015610c8d573d6000803e3d6000fd5b50600260008581548110610cca577f4e487b7100000000000000000000000000000000000000000000000000000000600052603260045260246000fd5b906000526020600020906008020160060160006101000a81548160ff02191690836003811115610d23577f4e487b7100000000000000000000000000000000000000000000000000000000600052602160045260246000fd5b02179055503373ffffffffffffffffffffffffffffffffffffffff1660008581548110610d79577f4e487b7100000000000000000000000000000000000000000000000000000000600052603260045260246000fd5b906000526020600020906008020160030160009054906101000a900473ffffffffffffffffffffffffffffffffffffffff1673ffffffffffffffffffffffffffffffffffffffff16857f5b3fbe89d042c633e7d6fc9434acfee6e234221722ea42fdfdfa95bb84c69e5460405160405180910390a450505050565b60005b82829050811015610fca573073ffffffffffffffffffffffffffffffffffffffff1663bf03ddef848484818110610e57577f4e487b7100000000000000000000000000000000000000000000000000000000600052603260045260246000fd5b9050602002810190610e699190612a09565b60200135858585818110610ea6577f4e487b7100000000000000000000000000000000000000000000000000000000600052603260045260246000fd5b9050602002810190610eb89190612a09565b60400135868686818110610ef5577f4e487b7100000000000000000000000000000000000000000000000000000000600052603260045260246000fd5b9050602002810190610f079190612a09565b8060a00190610f1691906129b2565b888888818110610f4f577f4e487b7100000000000000000000000000000000000000000000000000000000600052603260045260246000fd5b9050602002810190610f619190612a09565b60e001356040518663ffffffff1660e01b8152600401610f85959493929190612964565b600060405180830381600087803b158015610f9f57600080fd5b505af1158015610fb3573d6000803e3d6000fd5b505050508080610fc290612ba2565b915050610df7565b505050565b816000818154811061100a577f4e487b7100000000000000000000000000000000000000000000000000000000600052603260045260246000fd5b906000526020600020906008020160030160009054906101000a900473ffffffffffffffffffffffffffffffffffffffff1673ffffffffffffffffffffffffffffffffffffffff163373ffffffffffffffffffffffffffffffffffffffff16146110a9576040517f08c379a00000000000000000000000000000000000000000000000000000000081526004016110a090612882565b60405180910390fd5b6001600084815481106110e5577f4e487b7100000000000000000000000000000000000000000000000000000000600052603260045260246000fd5b906000526020600020906008020160060160006101000a81548160ff0219169083600381111561113e577f4e487b7100000000000000000000000000000000000000000000000000000000600052602160045260246000fd5b0217905550816000848154811061117e577f4e487b7100000000000000000000000000000000000000000000000000000000600052603260045260246000fd5b906000526020600020906008020160040160006101000a81548173ffffffffffffffffffffffffffffffffffffffff021916908373ffffffffffffffffffffffffffffffffffffffff1602179055508173ffffffffffffffffffffffffffffffffffffffff16837f0907ad1362c20b0c1f2fa8e892146569226987c4602687d1feb4633a0f3342ac60405160405180910390a36002600084815260200190815260200160002060006112309190612038565b600160008373ffffffffffffffffffffffffffffffffffffffff1673ffffffffffffffffffffffffffffffffffffffff168152602001908152602001600020839080600181540180825580915050600190039060005260206000200160009091909190915055505050565b606081600081815481106112d8577f4e487b7100000000000000000000000000000000000000000000000000000000600052603260045260246000fd5b906000526020600020906008020160030160009054906101000a900473ffffffffffffffffffffffffffffffffffffffff1673ffffffffffffffffffffffffffffffffffffffff163373ffffffffffffffffffffffffffffffffffffffff1614611377576040517f08c379a000000000000000000000000000000000000000000000000000000000815260040161136e90612882565b60405180910390fd5b6002600084815260200190815260200160002080548060200260200160405190810160405280929190818152602001828054801561140a57602002820191906000526020600020905b8160009054906101000a900473ffffffffffffffffffffffffffffffffffffffff1673ffffffffffffffffffffffffffffffffffffffff16815260200190600101908083116113c0575b5050505050915050919050565b61141f611f8f565b60008281548110611459577f4e487b7100000000000000000000000000000000000000000000000000000000600052603260045260246000fd5b9060005260206000209060080201604051806101000160405290816000820154815260200160018201548152602001600282015481526020016003820160009054906101000a900473ffffffffffffffffffffffffffffffffffffffff1673ffffffffffffffffffffffffffffffffffffffff1673ffffffffffffffffffffffffffffffffffffffff1681526020016004820160009054906101000a900473ffffffffffffffffffffffffffffffffffffffff1673ffffffffffffffffffffffffffffffffffffffff1673ffffffffffffffffffffffffffffffffffffffff16815260200160058201805461154d90612b70565b80601f016020809104026020016040519081016040528092919081815260200182805461157990612b70565b80156115c65780601f1061159b576101008083540402835291602001916115c6565b820191906000526020600020905b8154815290600101906020018083116115a957829003601f168201915b505050505081526020016006820160009054906101000a900460ff16600381111561161a577f4e487b7100000000000000000000000000000000000000000000000000000000600052602160045260246000fd5b6003811115611652577f4e487b7100000000000000000000000000000000000000000000000000000000600052602160045260246000fd5b81526020016007820154815250509050919050565b600081815481106116a1577f4e487b7100000000000000000000000000000000000000000000000000000000600052603260045260246000fd5b906000526020600020906008020160030160009054906101000a900473ffffffffffffffffffffffffffffffffffffffff1673ffffffffffffffffffffffffffffffffffffffff163373ffffffffffffffffffffffffffffffffffffffff161415611741576040517f08c379a0000000000000000000000000000000000000000000000000000000008152600401611738906128c2565b60405180910390fd5b60026000828152602001908152602001600020339080600181540180825580915050600190039060005260206000200160009091909190916101000a81548173ffffffffffffffffffffffffffffffffffffffff021916908373ffffffffffffffffffffffffffffffffffffffff160217905550600360003373ffffffffffffffffffffffffffffffffffffffff1673ffffffffffffffffffffffffffffffffffffffff1681526020019081526020016000208190806001815401808255809150506001900390600052602060002001600090919091909150553373ffffffffffffffffffffffffffffffffffffffff16817f7ac6f8ad3a8d0f5e51f7d46371ddeb6e2d196578f72b4bb2d7b0884a420d509c60405160405180910390a350565b838510806118705750600084145b6118af576040517f08c379a00000000000000000000000000000000000000000000000000000000081526004016118a690612922565b60405180910390fd5b60008080549050905060006040518061010001604052808381526020018881526020018781526020013373ffffffffffffffffffffffffffffffffffffffff168152602001600073ffffffffffffffffffffffffffffffffffffffff16815260200186868080601f016020809104026020016040519081016040528093929190818152602001838380828437600081840152601f19601f82011690508083019250505050505050815260200160006003811115611995577f4e487b7100000000000000000000000000000000000000000000000000000000600052602160045260246000fd5b815260200184815250908060018154018082558091505060019003906000526020600020906008020160009091909190915060008201518160000155602082015181600101556040820151816002015560608201518160030160006101000a81548173ffffffffffffffffffffffffffffffffffffffff021916908373ffffffffffffffffffffffffffffffffffffffff16021790555060808201518160040160006101000a81548173ffffffffffffffffffffffffffffffffffffffff021916908373ffffffffffffffffffffffffffffffffffffffff16021790555060a0820151816005019080519060200190611a8f929190612059565b5060c08201518160060160006101000a81548160ff02191690836003811115611ae1577f4e487b7100000000000000000000000000000000000000000000000000000000600052602160045260246000fd5b021790555060e082015181600701555050600160003373ffffffffffffffffffffffffffffffffffffffff1673ffffffffffffffffffffffffffffffffffffffff168152602001908152602001600020819080600181540180825580915050600190039060005260206000200160009091909190915055807f9e3c7e008a15a3c864482ee94fd7315bcc9d0c04f3a9041ab922f816acffbe0660405160405180910390a2505050505050565b60606000600160008473ffffffffffffffffffffffffffffffffffffffff1673ffffffffffffffffffffffffffffffffffffffff168152602001908152602001600020805480602002602001604051908101604052809291908181526020018280548015611c1a57602002820191906000526020600020905b815481526020019060010190808311611c06575b505050505090506000815167ffffffffffffffff811115611c64577f4e487b7100000000000000000000000000000000000000000000000000000000600052604160045260246000fd5b604051908082528060200260200182016040528015611c9d57816020015b611c8a611f8f565b815260200190600190039081611c825790505b50905060005b8251811015611f84576000838281518110611ce7577f4e487b7100000000000000000000000000000000000000000000000000000000600052603260045260246000fd5b602002602001015181548110611d26577f4e487b7100000000000000000000000000000000000000000000000000000000600052603260045260246000fd5b9060005260206000209060080201604051806101000160405290816000820154815260200160018201548152602001600282015481526020016003820160009054906101000a900473ffffffffffffffffffffffffffffffffffffffff1673ffffffffffffffffffffffffffffffffffffffff1673ffffffffffffffffffffffffffffffffffffffff1681526020016004820160009054906101000a900473ffffffffffffffffffffffffffffffffffffffff1673ffffffffffffffffffffffffffffffffffffffff1673ffffffffffffffffffffffffffffffffffffffff168152602001600582018054611e1a90612b70565b80601f0160208091040260200160405190810160405280929190818152602001828054611e4690612b70565b8015611e935780601f10611e6857610100808354040283529160200191611e93565b820191906000526020600020905b815481529060010190602001808311611e7657829003601f168201915b505050505081526020016006820160009054906101000a900460ff166003811115611ee7577f4e487b7100000000000000000000000000000000000000000000000000000000600052602160045260246000fd5b6003811115611f1f577f4e487b7100000000000000000000000000000000000000000000000000000000600052602160045260246000fd5b8152602001600782015481525050828281518110611f66577f4e487b7100000000000000000000000000000000000000000000000000000000600052603260045260246000fd5b60200260200101819052508080611f7c90612ba2565b915050611ca3565b508092505050919050565b604051806101000160405280600081526020016000815260200160008152602001600073ffffffffffffffffffffffffffffffffffffffff168152602001600073ffffffffffffffffffffffffffffffffffffffff168152602001606081526020016000600381111561202b577f4e487b7100000000000000000000000000000000000000000000000000000000600052602160045260246000fd5b8152602001600081525090565b508054600082559060005260206000209081019061205691906120df565b50565b82805461206590612b70565b90600052602060002090601f01602090048101928261208757600085556120ce565b82601f106120a057805160ff19168380011785556120ce565b828001600101855582156120ce579182015b828111156120cd5782518255916020019190600101906120b2565b5b5090506120db91906120df565b5090565b5b808211156120f85760008160009055506001016120e0565b5090565b60008135905061210b81612c9d565b92915050565b60008083601f84011261212357600080fd5b8235905067ffffffffffffffff81111561213c57600080fd5b60208301915083602082028301111561215457600080fd5b9250929050565b60008135905061216a81612cb4565b92915050565b60008083601f84011261218257600080fd5b8235905067ffffffffffffffff81111561219b57600080fd5b6020830191508360018202830111156121b357600080fd5b9250929050565b6000813590506121c981612cc4565b92915050565b6000602082840312156121e157600080fd5b60006121ef848285016120fc565b91505092915050565b6000806020838503121561220b57600080fd5b600083013567ffffffffffffffff81111561222557600080fd5b61223185828601612111565b92509250509250929050565b60006020828403121561224f57600080fd5b600061225d8482850161215b565b91505092915050565b60006020828403121561227857600080fd5b6000612286848285016121ba565b91505092915050565b600080604083850312156122a257600080fd5b60006122b0858286016121ba565b92505060206122c1858286016120fc565b9150509250929050565b6000806000806000608086880312156122e357600080fd5b60006122f1888289016121ba565b9550506020612302888289016121ba565b945050604086013567ffffffffffffffff81111561231f57600080fd5b61232b88828901612170565b9350935050606061233e888289016121ba565b9150509295509295909350565b60006123578383612377565b60208301905092915050565b600061236f83836126c0565b905092915050565b61238081612acd565b82525050565b600061239182612a4e565b61239b8185612a89565b93506123a683612a2e565b8060005b838110156123d75781516123be888261234b565b97506123c983612a6f565b9250506001810190506123aa565b5085935050505092915050565b60006123ef82612a59565b6123f98185612a9a565b93508360208202850161240b85612a3e565b8060005b8581101561244757848403895281516124288582612363565b945061243383612a7c565b925060208a0199505060018101905061240f565b50829750879550505050505092915050565b61246281612b1c565b82525050565b60006124748385612abc565b9350612481838584612b2e565b61248a83612c78565b840190509392505050565b60006124a082612a64565b6124aa8185612aab565b93506124ba818560208601612b3d565b6124c381612c78565b840191505092915050565b60006124db602283612abc565b91507f4f6e6c79206f776e65722063616e2063616c6c20746869732066756e6374696f60008301527f6e2e0000000000000000000000000000000000000000000000000000000000006020830152604082019050919050565b6000612541601383612abc565b91507f507269636520697320696e636f72726563742e000000000000000000000000006000830152602082019050919050565b6000612581601283612abc565b91507f4f776e65722063616e2774206170706c792e00000000000000000000000000006000830152602082019050919050565b60006125c1601f83612abc565b91507f436f6e7472616374206973206e6f7420696e2076616c69642073746174652e006000830152602082019050919050565b6000612601602383612abc565b91507f4f6e6c792074656e616e742063616e2063616c6c20746869732066756e63746960008301527f6f6e2e00000000000000000000000000000000000000000000000000000000006020830152604082019050919050565b6000612667603183612abc565b91507f456e6420646174652073686f756c64206265206e756c6c206f72206c6174657260008301527f207468616e20737461727420646174652e0000000000000000000000000000006020830152604082019050919050565b6000610100830160008301516126d96000860182612820565b5060208301516126ec6020860182612820565b5060408301516126ff6040860182612820565b5060608301516127126060860182612377565b5060808301516127256080860182612377565b5060a083015184820360a086015261273d8282612495565b91505060c083015161275260c0860182612459565b5060e083015161276560e0860182612820565b508091505092915050565b6000610100830160008301516127896000860182612820565b50602083015161279c6020860182612820565b5060408301516127af6040860182612820565b5060608301516127c26060860182612377565b5060808301516127d56080860182612377565b5060a083015184820360a08601526127ed8282612495565b91505060c083015161280260c0860182612459565b5060e083015161281560e0860182612820565b508091505092915050565b61282981612b12565b82525050565b61283881612b12565b82525050565b600060208201905081810360008301526128588184612386565b905092915050565b6000602082019050818103600083015261287a81846123e4565b905092915050565b6000602082019050818103600083015261289b816124ce565b9050919050565b600060208201905081810360008301526128bb81612534565b9050919050565b600060208201905081810360008301526128db81612574565b9050919050565b600060208201905081810360008301526128fb816125b4565b9050919050565b6000602082019050818103600083015261291b816125f4565b9050919050565b6000602082019050818103600083015261293b8161265a565b9050919050565b6000602082019050818103600083015261295c8184612770565b905092915050565b6000608082019050612979600083018861282f565b612986602083018761282f565b8181036040830152612999818587612468565b90506129a8606083018461282f565b9695505050505050565b600080833560016020038436030381126129cb57600080fd5b80840192508235915067ffffffffffffffff8211156129e957600080fd5b602083019250600182023603831315612a0157600080fd5b509250929050565b60008235600161010003833603038112612a2257600080fd5b80830191505092915050565b6000819050602082019050919050565b6000819050602082019050919050565b600081519050919050565b600081519050919050565b600081519050919050565b6000602082019050919050565b6000602082019050919050565b600082825260208201905092915050565b600082825260208201905092915050565b600082825260208201905092915050565b600082825260208201905092915050565b6000612ad882612af2565b9050919050565b6000819050612aed82612c89565b919050565b600073ffffffffffffffffffffffffffffffffffffffff82169050919050565b6000819050919050565b6000612b2782612adf565b9050919050565b82818337600083830152505050565b60005b83811015612b5b578082015181840152602081019050612b40565b83811115612b6a576000848401525b50505050565b60006002820490506001821680612b8857607f821691505b60208210811415612b9c57612b9b612c49565b5b50919050565b6000612bad82612b12565b91507fffffffffffffffffffffffffffffffffffffffffffffffffffffffffffffffff821415612be057612bdf612beb565b5b600182019050919050565b7f4e487b7100000000000000000000000000000000000000000000000000000000600052601160045260246000fd5b7f4e487b7100000000000000000000000000000000000000000000000000000000600052602160045260246000fd5b7f4e487b7100000000000000000000000000000000000000000000000000000000600052602260045260246000fd5b6000601f19601f8301169050919050565b60048110612c9a57612c99612c1a565b5b50565b612ca681612acd565b8114612cb157600080fd5b50565b60048110612cc157600080fd5b50565b612ccd81612b12565b8114612cd857600080fd5b5056fea26469706673582212201ce3ee941449e6c0ddb44d12fbf370ca18873d1fe699701ef4c2b3d4f1b23c7964736f6c63430008000033",
  "linkReferences": {},
  "deployedLinkReferences": {}
}