{
  "_format": "hh-sol-artifact-1",
  "contractName": "Score",
  "sourceName": "contracts/Score.sol",
  "abi": [
    {
      "inputs": [],
      "stateMutability": "nonpayable",
      "type": "constructor"
    },
    {
      "anonymous": false,
      "inputs": [
        {
          "indexed": true,
          "internalType": "uint256",
          "name": "id",
          "type": "uint256"
        },
        {
          "indexed": true,
          "internalType": "address",
          "name": "applicant",
          "type": "address"
        }
      ],
      "name": "ApplicationAccepted",
      "type": "event"
    },
    {
      "anonymous": false,
      "inputs": [
        {
          "indexed": true,
          "internalType": "uint256",
          "name": "id",
          "type": "uint256"
        }
      ],
      "name": "ContractCreated",
      "type": "event"
    },
    {
      "anonymous": false,
      "inputs": [
        {
          "indexed": true,
          "internalType": "uint256",
          "name": "id",
          "type": "uint256"
        },
        {
          "indexed": true,
          "internalType": "address",
          "name": "tenant",
          "type": "address"
        }
      ],
      "name": "ContractLocked",
      "type": "event"
    },
    {
      "anonymous": false,
      "inputs": [
        {
          "indexed": true,
          "internalType": "uint256",
          "name": "id",
          "type": "uint256"
        },
        {
          "indexed": true,
          "internalType": "address",
          "name": "owner",
          "type": "address"
        },
        {
          "indexed": true,
          "internalType": "address",
          "name": "tenant",
          "type": "address"
        }
      ],
      "name": "DepositReceived",
      "type": "event"
    },
    {
      "inputs": [
        {
          "internalType": "uint256",
          "name": "contractId",
          "type": "uint256"
        },
        {
          "internalType": "address",
          "name": "_address",
          "type": "address"
        }
      ],
      "name": "acceptApplicant",
      "outputs": [],
      "stateMutability": "nonpayable",
      "type": "function"
    },
    {
      "inputs": [
        {
          "internalType": "uint256",
          "name": "startDate",
          "type": "uint256"
        },
        {
          "internalType": "uint256",
          "name": "endDate",
          "type": "uint256"
        },
        {
          "internalType": "string",
          "name": "location",
          "type": "string"
        },
        {
          "internalType": "uint256",
          "name": "price",
          "type": "uint256"
        }
      ],
      "name": "addContract",
      "outputs": [],
      "stateMutability": "nonpayable",
      "type": "function"
    },
    {
      "inputs": [
        {
          "components": [
            {
              "internalType": "uint256",
              "name": "contractId",
              "type": "uint256"
            },
            {
              "internalType": "uint256",
              "name": "startDate",
              "type": "uint256"
            },
            {
              "internalType": "uint256",
              "name": "endDate",
              "type": "uint256"
            },
            {
              "internalType": "address",
              "name": "owner",
              "type": "address"
            },
            {
              "internalType": "address",
              "name": "tenant",
              "type": "address"
            },
            {
              "internalType": "string",
              "name": "location",
              "type": "string"
            },
            {
              "internalType": "enum IRent.State",
              "name": "state",
              "type": "uint8"
            },
            {
              "internalType": "uint256",
              "name": "price",
              "type": "uint256"
            }
          ],
          "internalType": "struct IRent.Contract[]",
          "name": "_contracts",
          "type": "tuple[]"
        }
      ],
      "name": "addContracts",
      "outputs": [],
      "stateMutability": "nonpayable",
      "type": "function"
    },
    {
      "inputs": [
        {
          "internalType": "uint256",
          "name": "_contractId",
          "type": "uint256"
        },
        {
          "internalType": "uint256",
          "name": "_star",
          "type": "uint256"
        },
        {
          "internalType": "string",
          "name": "_review",
          "type": "string"
        }
      ],
      "name": "addReview",
      "outputs": [],
      "stateMutability": "nonpayable",
      "type": "function"
    },
    {
      "inputs": [
        {
          "internalType": "uint256",
          "name": "contractId",
          "type": "uint256"
        }
      ],
      "name": "applyForContract",
      "outputs": [],
      "stateMutability": "nonpayable",
      "type": "function"
    },
    {
      "inputs": [
        {
          "internalType": "address",
          "name": "_address",
          "type": "address"
        }
      ],
      "name": "calculateOwnerScore",
      "outputs": [
        {
          "internalType": "uint256",
          "name": "",
          "type": "uint256"
        }
      ],
      "stateMutability": "nonpayable",
      "type": "function"
    },
    {
      "inputs": [
        {
          "internalType": "address",
          "name": "_address",
          "type": "address"
        }
      ],
      "name": "calculateTenantScore",
      "outputs": [
        {
          "internalType": "uint256",
          "name": "",
          "type": "uint256"
        }
      ],
      "stateMutability": "nonpayable",
      "type": "function"
    },
    {
      "inputs": [
        {
          "internalType": "uint256",
          "name": "contractId",
          "type": "uint256"
        }
      ],
      "name": "getApplicants",
      "outputs": [
        {
          "internalType": "address[]",
          "name": "",
          "type": "address[]"
        }
      ],
      "stateMutability": "view",
      "type": "function"
    },
    {
      "inputs": [
        {
          "internalType": "uint256",
          "name": "id",
          "type": "uint256"
        }
      ],
      "name": "getContractById",
      "outputs": [
        {
          "components": [
            {
              "internalType": "uint256",
              "name": "contractId",
              "type": "uint256"
            },
            {
              "internalType": "uint256",
              "name": "startDate",
              "type": "uint256"
            },
            {
              "internalType": "uint256",
              "name": "endDate",
              "type": "uint256"
            },
            {
              "internalType": "address",
              "name": "owner",
              "type": "address"
            },
            {
              "internalType": "address",
              "name": "tenant",
              "type": "address"
            },
            {
              "internalType": "string",
              "name": "location",
              "type": "string"
            },
            {
              "internalType": "enum IRent.State",
              "name": "state",
              "type": "uint8"
            },
            {
              "internalType": "uint256",
              "name": "price",
              "type": "uint256"
            }
          ],
          "internalType": "struct IRent.Contract",
          "name": "",
          "type": "tuple"
        }
      ],
      "stateMutability": "view",
      "type": "function"
    },
    {
      "inputs": [
        {
          "internalType": "address",
          "name": "_address",
          "type": "address"
        }
      ],
      "name": "getContractsByAddress",
      "outputs": [
        {
          "components": [
            {
              "internalType": "uint256",
              "name": "contractId",
              "type": "uint256"
            },
            {
              "internalType": "uint256",
              "name": "startDate",
              "type": "uint256"
            },
            {
              "internalType": "uint256",
              "name": "endDate",
              "type": "uint256"
            },
            {
              "internalType": "address",
              "name": "owner",
              "type": "address"
            },
            {
              "internalType": "address",
              "name": "tenant",
              "type": "address"
            },
            {
              "internalType": "string",
              "name": "location",
              "type": "string"
            },
            {
              "internalType": "enum IRent.State",
              "name": "state",
              "type": "uint8"
            },
            {
              "internalType": "uint256",
              "name": "price",
              "type": "uint256"
            }
          ],
          "internalType": "struct IRent.Contract[]",
          "name": "",
          "type": "tuple[]"
        }
      ],
      "stateMutability": "view",
      "type": "function"
    },
    {
      "inputs": [
        {
          "internalType": "enum IRent.State",
          "name": "state",
          "type": "uint8"
        }
      ],
      "name": "getContractsByState",
      "outputs": [
        {
          "components": [
            {
              "internalType": "uint256",
              "name": "contractId",
              "type": "uint256"
            },
            {
              "internalType": "uint256",
              "name": "startDate",
              "type": "uint256"
            },
            {
              "internalType": "uint256",
              "name": "endDate",
              "type": "uint256"
            },
            {
              "internalType": "address",
              "name": "owner",
              "type": "address"
            },
            {
              "internalType": "address",
              "name": "tenant",
              "type": "address"
            },
            {
              "internalType": "string",
              "name": "location",
              "type": "string"
            },
            {
              "internalType": "enum IRent.State",
              "name": "state",
              "type": "uint8"
            },
            {
              "internalType": "uint256",
              "name": "price",
              "type": "uint256"
            }
          ],
          "internalType": "struct IRent.Contract[]",
          "name": "",
          "type": "tuple[]"
        }
      ],
      "stateMutability": "view",
      "type": "function"
    },
    {
      "inputs": [
        {
          "internalType": "uint256",
          "name": "_contractId",
          "type": "uint256"
        }
      ],
      "name": "getReviews",
      "outputs": [
        {
          "components": [
            {
              "internalType": "uint256",
              "name": "reviewId",
              "type": "uint256"
            },
            {
              "internalType": "uint256",
              "name": "contractId",
              "type": "uint256"
            },
            {
              "internalType": "address",
              "name": "tenant",
              "type": "address"
            },
            {
              "internalType": "uint256",
              "name": "star",
              "type": "uint256"
            },
            {
              "internalType": "string",
              "name": "review",
              "type": "string"
            }
          ],
          "internalType": "struct Score.Review[]",
          "name": "",
          "type": "tuple[]"
        }
      ],
      "stateMutability": "view",
      "type": "function"
    },
    {
      "inputs": [
        {
          "internalType": "address",
          "name": "_address",
          "type": "address"
        }
      ],
      "name": "getScore",
      "outputs": [
        {
          "internalType": "uint256",
          "name": "",
          "type": "uint256"
        }
      ],
      "stateMutability": "view",
      "type": "function"
    },
    {
      "inputs": [
        {
          "internalType": "uint256",
          "name": "contractId",
          "type": "uint256"
        }
      ],
      "name": "payDeposit",
      "outputs": [],
      "stateMutability": "payable",
      "type": "function"
    }
  ],
  "bytecode": "0x608060405273f6395b9f0b5f6ba3e58e69e316b9251e3ac601a8600360006101000a81548173ffffffffffffffffffffffffffffffffffffffff021916908373ffffffffffffffffffffffffffffffffffffffff16021790555034801561006557600080fd5b506140ec806100756000396000f3fe6080604052600436106100dd5760003560e01c8063830f110b1161007f578063aad2eaaf11610059578063aad2eaaf146102e7578063bf03ddef14610310578063d47875d014610339578063f44b9a3c14610376576100dd565b8063830f110b146102305780638ba9ac6f1461026d5780639d4a2255146102aa576100dd565b80632b674e38116100bb5780632b674e38146101785780633dd77304146101a15780633e9e27aa146101ca5780636cf5d86e146101f3576100dd565b8063042e45dc146100e257806328cd3f181461011f5780632940b8ab1461013b575b600080fd5b3480156100ee57600080fd5b50610109600480360381019061010491906131a9565b6103b3565b6040516101169190613995565b60405180910390f35b610139600480360381019061013491906131d2565b6108cb565b005b34801561014757600080fd5b50610162600480360381019061015d91906130fa565b610d57565b60405161016f9190613aeb565b60405180910390f35b34801561018457600080fd5b5061019f600480360381019061019a9190613123565b611106565b005b3480156101ad57600080fd5b506101c860048036038101906101c391906131fb565b6112e1565b005b3480156101d657600080fd5b506101f160048036038101906101ec91906132b7565b6115ad565b005b3480156101ff57600080fd5b5061021a600480360381019061021591906131d2565b6116e3565b6040516102279190613973565b60405180910390f35b34801561023c57600080fd5b50610257600480360381019061025291906130fa565b61185f565b6040516102649190613aeb565b60405180910390f35b34801561027957600080fd5b50610294600480360381019061028f91906131d2565b611cf3565b6040516102a19190613ac9565b60405180910390f35b3480156102b657600080fd5b506102d160048036038101906102cc91906131d2565b611f43565b6040516102de91906139b7565b60405180910390f35b3480156102f357600080fd5b5061030e600480360381019061030991906131d2565b612231565b005b34801561031c57600080fd5b5061033760048036038101906103329190613237565b6123c6565b005b34801561034557600080fd5b50610360600480360381019061035b91906130fa565b6126f1565b60405161036d9190613aeb565b60405180910390f35b34801561038257600080fd5b5061039d600480360381019061039891906130fa565b61273a565b6040516103aa9190613995565b60405180910390f35b60606000805b6000805490508110156104b8578360038111156103ff577f4e487b7100000000000000000000000000000000000000000000000000000000600052602160045260246000fd5b60008281548110610439577f4e487b7100000000000000000000000000000000000000000000000000000000600052603260045260246000fd5b906000526020600020906008020160060160009054906101000a900460ff166003811115610490577f4e487b7100000000000000000000000000000000000000000000000000000000600052602160045260246000fd5b14156104a55781806104a190613f1f565b9250505b80806104b090613f1f565b9150506103b9565b5060008167ffffffffffffffff8111156104fb577f4e487b7100000000000000000000000000000000000000000000000000000000600052604160045260246000fd5b60405190808252806020026020018201604052801561053457816020015b610521612c01565b8152602001906001900390816105195790505b5090506000805b6000805490508110156108bf57856003811115610581577f4e487b7100000000000000000000000000000000000000000000000000000000600052602160045260246000fd5b600082815481106105bb577f4e487b7100000000000000000000000000000000000000000000000000000000600052603260045260246000fd5b906000526020600020906008020160060160009054906101000a900460ff166003811115610612577f4e487b7100000000000000000000000000000000000000000000000000000000600052602160045260246000fd5b14156108ac5760008181548110610652577f4e487b7100000000000000000000000000000000000000000000000000000000600052603260045260246000fd5b9060005260206000209060080201604051806101000160405290816000820154815260200160018201548152602001600282015481526020016003820160009054906101000a900473ffffffffffffffffffffffffffffffffffffffff1673ffffffffffffffffffffffffffffffffffffffff1673ffffffffffffffffffffffffffffffffffffffff1681526020016004820160009054906101000a900473ffffffffffffffffffffffffffffffffffffffff1673ffffffffffffffffffffffffffffffffffffffff1673ffffffffffffffffffffffffffffffffffffffff16815260200160058201805461074690613eed565b80601f016020809104026020016040519081016040528092919081815260200182805461077290613eed565b80156107bf5780601f10610794576101008083540402835291602001916107bf565b820191906000526020600020905b8154815290600101906020018083116107a257829003601f168201915b505050505081526020016006820160009054906101000a900460ff166003811115610813577f4e487b7100000000000000000000000000000000000000000000000000000000600052602160045260246000fd5b600381111561084b577f4e487b7100000000000000000000000000000000000000000000000000000000600052602160045260246000fd5b8152602001600782015481525050838381518110610892577f4e487b7100000000000000000000000000000000000000000000000000000000600052603260045260246000fd5b602002602001018190525081806108a890613f1f565b9250505b80806108b790613f1f565b91505061053b565b50819350505050919050565b8060008181548110610906577f4e487b7100000000000000000000000000000000000000000000000000000000600052603260045260246000fd5b906000526020600020906008020160040160009054906101000a900473ffffffffffffffffffffffffffffffffffffffff1673ffffffffffffffffffffffffffffffffffffffff163373ffffffffffffffffffffffffffffffffffffffff16146109a5576040517f08c379a000000000000000000000000000000000000000000000000000000000815260040161099c90613a89565b60405180910390fd5b816001600082815481106109e2577f4e487b7100000000000000000000000000000000000000000000000000000000600052603260045260246000fd5b906000526020600020906008020160060160009054906101000a900460ff166003811115610a39577f4e487b7100000000000000000000000000000000000000000000000000000000600052602160045260246000fd5b816003811115610a72577f4e487b7100000000000000000000000000000000000000000000000000000000600052602160045260246000fd5b14610ab2576040517f08c379a0000000000000000000000000000000000000000000000000000000008152600401610aa990613a69565b60405180910390fd5b60008481548110610aec577f4e487b7100000000000000000000000000000000000000000000000000000000600052603260045260246000fd5b9060005260206000209060080201600701543414610b3f576040517f08c379a0000000000000000000000000000000000000000000000000000000008152600401610b3690613a29565b60405180910390fd5b60008481548110610b79577f4e487b7100000000000000000000000000000000000000000000000000000000600052603260045260246000fd5b906000526020600020906008020160030160009054906101000a900473ffffffffffffffffffffffffffffffffffffffff1673ffffffffffffffffffffffffffffffffffffffff166108fc349081150290604051600060405180830381858888f19350505050158015610bf0573d6000803e3d6000fd5b50600260008581548110610c2d577f4e487b7100000000000000000000000000000000000000000000000000000000600052603260045260246000fd5b906000526020600020906008020160060160006101000a81548160ff02191690836003811115610c86577f4e487b7100000000000000000000000000000000000000000000000000000000600052602160045260246000fd5b02179055503373ffffffffffffffffffffffffffffffffffffffff1660008581548110610cdc577f4e487b7100000000000000000000000000000000000000000000000000000000600052603260045260246000fd5b906000526020600020906008020160030160009054906101000a900473ffffffffffffffffffffffffffffffffffffffff1673ffffffffffffffffffffffffffffffffffffffff16857f5b3fbe89d042c633e7d6fc9434acfee6e234221722ea42fdfdfa95bb84c69e5460405160405180910390a450505050565b6000806101f4610d66846126f1565b1790506000600360009054906101000a900473ffffffffffffffffffffffffffffffffffffffff16905060008173ffffffffffffffffffffffffffffffffffffffff1663f44b9a3c866040518263ffffffff1660e01b8152600401610dcb9190613958565b60006040518083038186803b158015610de357600080fd5b505afa158015610df7573d6000803e3d6000fd5b505050506040513d6000823e3d601f19601f82011682018060405250810190610e209190613168565b905060008060005b8351811015610ff557838181518110610e6a577f4e487b7100000000000000000000000000000000000000000000000000000000600052603260045260246000fd5b602002602001015160200151848281518110610eaf577f4e487b7100000000000000000000000000000000000000000000000000000000600052603260045260246000fd5b602002602001015160400151610ec59190613e16565b82610ed09190613d35565b915060006003811115610f0c577f4e487b7100000000000000000000000000000000000000000000000000000000600052602160045260246000fd5b848281518110610f45577f4e487b7100000000000000000000000000000000000000000000000000000000600052603260045260246000fd5b602002602001015160c001516003811115610f89577f4e487b7100000000000000000000000000000000000000000000000000000000600052602160045260246000fd5b1415610fe257838181518110610fc8577f4e487b7100000000000000000000000000000000000000000000000000000000600052603260045260246000fd5b602002602001015160e0015183610fdf9190613d35565b92505b8080610fed90613f1f565b915050610e28565b506110356040518060400160405280600681526020017f616d6f756e74000000000000000000000000000000000000000000000000000081525083612b3c565b6110746040518060400160405280600881526020017f6475726174696f6e00000000000000000000000000000000000000000000000081525082612b3c565b60006103e86001836110869190613dbc565b6110909190613d8b565b600a8461109d9190613dbc565b876110a89190613d35565b6110b29190613d35565b905080600460008a73ffffffffffffffffffffffffffffffffffffffff1673ffffffffffffffffffffffffffffffffffffffff16815260200190815260200160002081905550809650505050505050919050565b60005b828290508110156112dc573073ffffffffffffffffffffffffffffffffffffffff1663bf03ddef848484818110611169577f4e487b7100000000000000000000000000000000000000000000000000000000600052603260045260246000fd5b905060200281019061117b9190613bab565b602001358585858181106111b8577f4e487b7100000000000000000000000000000000000000000000000000000000600052603260045260246000fd5b90506020028101906111ca9190613bab565b60400135868686818110611207577f4e487b7100000000000000000000000000000000000000000000000000000000600052603260045260246000fd5b90506020028101906112199190613bab565b8060a001906112289190613b54565b888888818110611261577f4e487b7100000000000000000000000000000000000000000000000000000000600052603260045260246000fd5b90506020028101906112739190613bab565b60e001356040518663ffffffff1660e01b8152600401611297959493929190613b06565b600060405180830381600087803b1580156112b157600080fd5b505af11580156112c5573d6000803e3d6000fd5b5050505080806112d490613f1f565b915050611109565b505050565b816000818154811061131c577f4e487b7100000000000000000000000000000000000000000000000000000000600052603260045260246000fd5b906000526020600020906008020160030160009054906101000a900473ffffffffffffffffffffffffffffffffffffffff1673ffffffffffffffffffffffffffffffffffffffff163373ffffffffffffffffffffffffffffffffffffffff16146113bb576040517f08c379a00000000000000000000000000000000000000000000000000000000081526004016113b290613a09565b60405180910390fd5b6001600084815481106113f7577f4e487b7100000000000000000000000000000000000000000000000000000000600052603260045260246000fd5b906000526020600020906008020160060160006101000a81548160ff02191690836003811115611450577f4e487b7100000000000000000000000000000000000000000000000000000000600052602160045260246000fd5b02179055508160008481548110611490577f4e487b7100000000000000000000000000000000000000000000000000000000600052603260045260246000fd5b906000526020600020906008020160040160006101000a81548173ffffffffffffffffffffffffffffffffffffffff021916908373ffffffffffffffffffffffffffffffffffffffff1602179055508173ffffffffffffffffffffffffffffffffffffffff16837f0907ad1362c20b0c1f2fa8e892146569226987c4602687d1feb4633a0f3342ac60405160405180910390a36002600084815260200190815260200160002060006115429190612caa565b600160008373ffffffffffffffffffffffffffffffffffffffff1673ffffffffffffffffffffffffffffffffffffffff168152602001908152602001600020839080600181540180825580915050600190039060005260206000200160009091909190915055505050565b6000600580549050905060056040518060a001604052808381526020018681526020013373ffffffffffffffffffffffffffffffffffffffff168152602001858152602001848152509080600181540180825580915050600190039060005260206000209060050201600090919091909150600082015181600001556020820151816001015560408201518160020160006101000a81548173ffffffffffffffffffffffffffffffffffffffff021916908373ffffffffffffffffffffffffffffffffffffffff1602179055506060820151816003015560808201518160040190805190602001906116a0929190612ccb565b5050506006600085815260200190815260200160002081908060018154018082558091505060019003906000526020600020016000909190919091505550505050565b60608160008181548110611720577f4e487b7100000000000000000000000000000000000000000000000000000000600052603260045260246000fd5b906000526020600020906008020160030160009054906101000a900473ffffffffffffffffffffffffffffffffffffffff1673ffffffffffffffffffffffffffffffffffffffff163373ffffffffffffffffffffffffffffffffffffffff16146117bf576040517f08c379a00000000000000000000000000000000000000000000000000000000081526004016117b690613a09565b60405180910390fd5b6002600084815260200190815260200160002080548060200260200160405190810160405280929190818152602001828054801561185257602002820191906000526020600020905b8160009054906101000a900473ffffffffffffffffffffffffffffffffffffffff1673ffffffffffffffffffffffffffffffffffffffff1681526020019060010190808311611808575b5050505050915050919050565b6000806101f461186e846126f1565b1790506000600360009054906101000a900473ffffffffffffffffffffffffffffffffffffffff16905060008173ffffffffffffffffffffffffffffffffffffffff1663f44b9a3c866040518263ffffffff1660e01b81526004016118d39190613958565b60006040518083038186803b1580156118eb57600080fd5b505afa1580156118ff573d6000803e3d6000fd5b505050506040513d6000823e3d601f19601f820116820180604052508101906119289190613168565b905060008060008060005b8551811015611b6157600061198b87838151811061197a577f4e487b7100000000000000000000000000000000000000000000000000000000600052603260045260246000fd5b602002602001015160000151611f43565b90508682815181106119c6577f4e487b7100000000000000000000000000000000000000000000000000000000600052603260045260246000fd5b602002602001015160200151878381518110611a0b577f4e487b7100000000000000000000000000000000000000000000000000000000600052603260045260246000fd5b602002602001015160400151611a219190613e16565b84611a2c9190613d35565b935042878381518110611a68577f4e487b7100000000000000000000000000000000000000000000000000000000600052603260045260246000fd5b6020026020010151604001511115611acd57868281518110611ab3577f4e487b7100000000000000000000000000000000000000000000000000000000600052603260045260246000fd5b602002602001015160e0015183611aca9190613d35565b92505b60005b8151811015611b4c57818381518110611b12577f4e487b7100000000000000000000000000000000000000000000000000000000600052603260045260246000fd5b60200260200101516060015186611b299190613d35565b95508680611b3690613f1f565b9750508080611b4490613f1f565b915050611ad0565b50508080611b5990613f1f565b915050611933565b5060008484611b709190613d8b565b905060006004821115611b8657600a9050611b95565b6003821115611b9457600590505b5b611bd46040518060400160405280600981526020017f7374617253636f7265000000000000000000000000000000000000000000000081525082612b3c565b611c136040518060400160405280600881526020017f6475726174696f6e00000000000000000000000000000000000000000000000081525085612b3c565b611c526040518060400160405280600881526020017f707269636553756d00000000000000000000000000000000000000000000000081525084612b3c565b6000600a84611c619190613dbc565b6103e8600187611c719190613dbc565b611c7b9190613d8b565b838c611c879190613d35565b611c919190613d35565b611c9b9190613d35565b905080600460008e73ffffffffffffffffffffffffffffffffffffffff1673ffffffffffffffffffffffffffffffffffffffff16815260200190815260200160002081905550809a5050505050505050505050919050565b611cfb612c01565b60008281548110611d35577f4e487b7100000000000000000000000000000000000000000000000000000000600052603260045260246000fd5b9060005260206000209060080201604051806101000160405290816000820154815260200160018201548152602001600282015481526020016003820160009054906101000a900473ffffffffffffffffffffffffffffffffffffffff1673ffffffffffffffffffffffffffffffffffffffff1673ffffffffffffffffffffffffffffffffffffffff1681526020016004820160009054906101000a900473ffffffffffffffffffffffffffffffffffffffff1673ffffffffffffffffffffffffffffffffffffffff1673ffffffffffffffffffffffffffffffffffffffff168152602001600582018054611e2990613eed565b80601f0160208091040260200160405190810160405280929190818152602001828054611e5590613eed565b8015611ea25780601f10611e7757610100808354040283529160200191611ea2565b820191906000526020600020905b815481529060010190602001808311611e8557829003601f168201915b505050505081526020016006820160009054906101000a900460ff166003811115611ef6577f4e487b7100000000000000000000000000000000000000000000000000000000600052602160045260246000fd5b6003811115611f2e577f4e487b7100000000000000000000000000000000000000000000000000000000600052602160045260246000fd5b81526020016007820154815250509050919050565b6060600060066000848152602001908152602001600020805480602002602001604051908101604052809291908181526020018280548015611fa457602002820191906000526020600020905b815481526020019060010190808311611f90575b505050505090506000815167ffffffffffffffff811115611fee577f4e487b7100000000000000000000000000000000000000000000000000000000600052604160045260246000fd5b60405190808252806020026020018201604052801561202757816020015b612014612d51565b81526020019060019003908161200c5790505b50905060005b8251811015612226576005838281518110612071577f4e487b7100000000000000000000000000000000000000000000000000000000600052603260045260246000fd5b6020026020010151815481106120b0577f4e487b7100000000000000000000000000000000000000000000000000000000600052603260045260246000fd5b90600052602060002090600502016040518060a001604052908160008201548152602001600182015481526020016002820160009054906101000a900473ffffffffffffffffffffffffffffffffffffffff1673ffffffffffffffffffffffffffffffffffffffff1673ffffffffffffffffffffffffffffffffffffffff1681526020016003820154815260200160048201805461214d90613eed565b80601f016020809104026020016040519081016040528092919081815260200182805461217990613eed565b80156121c65780601f1061219b576101008083540402835291602001916121c6565b820191906000526020600020905b8154815290600101906020018083116121a957829003601f168201915b505050505081525050828281518110612208577f4e487b7100000000000000000000000000000000000000000000000000000000600052603260045260246000fd5b6020026020010181905250808061221e90613f1f565b91505061202d565b508092505050919050565b6000818154811061226b577f4e487b7100000000000000000000000000000000000000000000000000000000600052603260045260246000fd5b906000526020600020906008020160030160009054906101000a900473ffffffffffffffffffffffffffffffffffffffff1673ffffffffffffffffffffffffffffffffffffffff163373ffffffffffffffffffffffffffffffffffffffff16141561230b576040517f08c379a000000000000000000000000000000000000000000000000000000000815260040161230290613a49565b60405180910390fd5b60026000828152602001908152602001600020339080600181540180825580915050600190039060005260206000200160009091909190916101000a81548173ffffffffffffffffffffffffffffffffffffffff021916908373ffffffffffffffffffffffffffffffffffffffff1602179055503373ffffffffffffffffffffffffffffffffffffffff16817f7ac6f8ad3a8d0f5e51f7d46371ddeb6e2d196578f72b4bb2d7b0884a420d509c60405160405180910390a350565b838510806123d45750600084145b612413576040517f08c379a000000000000000000000000000000000000000000000000000000000815260040161240a90613aa9565b60405180910390fd5b60008080549050905060006040518061010001604052808381526020018881526020018781526020013373ffffffffffffffffffffffffffffffffffffffff168152602001600073ffffffffffffffffffffffffffffffffffffffff16815260200186868080601f016020809104026020016040519081016040528093929190818152602001838380828437600081840152601f19601f820116905080830192505050505050508152602001600060038111156124f9577f4e487b7100000000000000000000000000000000000000000000000000000000600052602160045260246000fd5b815260200184815250908060018154018082558091505060019003906000526020600020906008020160009091909190915060008201518160000155602082015181600101556040820151816002015560608201518160030160006101000a81548173ffffffffffffffffffffffffffffffffffffffff021916908373ffffffffffffffffffffffffffffffffffffffff16021790555060808201518160040160006101000a81548173ffffffffffffffffffffffffffffffffffffffff021916908373ffffffffffffffffffffffffffffffffffffffff16021790555060a08201518160050190805190602001906125f3929190612ccb565b5060c08201518160060160006101000a81548160ff02191690836003811115612645577f4e487b7100000000000000000000000000000000000000000000000000000000600052602160045260246000fd5b021790555060e082015181600701555050600160003373ffffffffffffffffffffffffffffffffffffffff1673ffffffffffffffffffffffffffffffffffffffff168152602001908152602001600020819080600181540180825580915050600190039060005260206000200160009091909190915055807f9e3c7e008a15a3c864482ee94fd7315bcc9d0c04f3a9041ab922f816acffbe0660405160405180910390a2505050505050565b6000600460008373ffffffffffffffffffffffffffffffffffffffff1673ffffffffffffffffffffffffffffffffffffffff168152602001908152602001600020549050919050565b60606000600160008473ffffffffffffffffffffffffffffffffffffffff1673ffffffffffffffffffffffffffffffffffffffff1681526020019081526020016000208054806020026020016040519081016040528092919081815260200182805480156127c757602002820191906000526020600020905b8154815260200190600101908083116127b3575b505050505090506000815167ffffffffffffffff811115612811577f4e487b7100000000000000000000000000000000000000000000000000000000600052604160045260246000fd5b60405190808252806020026020018201604052801561284a57816020015b612837612c01565b81526020019060019003908161282f5790505b50905060005b8251811015612b31576000838281518110612894577f4e487b7100000000000000000000000000000000000000000000000000000000600052603260045260246000fd5b6020026020010151815481106128d3577f4e487b7100000000000000000000000000000000000000000000000000000000600052603260045260246000fd5b9060005260206000209060080201604051806101000160405290816000820154815260200160018201548152602001600282015481526020016003820160009054906101000a900473ffffffffffffffffffffffffffffffffffffffff1673ffffffffffffffffffffffffffffffffffffffff1673ffffffffffffffffffffffffffffffffffffffff1681526020016004820160009054906101000a900473ffffffffffffffffffffffffffffffffffffffff1673ffffffffffffffffffffffffffffffffffffffff1673ffffffffffffffffffffffffffffffffffffffff1681526020016005820180546129c790613eed565b80601f01602080910402602001604051908101604052809291908181526020018280546129f390613eed565b8015612a405780601f10612a1557610100808354040283529160200191612a40565b820191906000526020600020905b815481529060010190602001808311612a2357829003601f168201915b505050505081526020016006820160009054906101000a900460ff166003811115612a94577f4e487b7100000000000000000000000000000000000000000000000000000000600052602160045260246000fd5b6003811115612acc577f4e487b7100000000000000000000000000000000000000000000000000000000600052602160045260246000fd5b8152602001600782015481525050828281518110612b13577f4e487b7100000000000000000000000000000000000000000000000000000000600052603260045260246000fd5b60200260200101819052508080612b2990613f1f565b915050612850565b508092505050919050565b612bd48282604051602401612b529291906139d9565b6040516020818303038152906040527f9710a9d0000000000000000000000000000000000000000000000000000000007bffffffffffffffffffffffffffffffffffffffffffffffffffffffff19166020820180517bffffffffffffffffffffffffffffffffffffffffffffffffffffffff8381831617835250505050612bd8565b5050565b60008151905060006a636f6e736f6c652e6c6f679050602083016000808483855afa5050505050565b604051806101000160405280600081526020016000815260200160008152602001600073ffffffffffffffffffffffffffffffffffffffff168152602001600073ffffffffffffffffffffffffffffffffffffffff1681526020016060815260200160006003811115612c9d577f4e487b7100000000000000000000000000000000000000000000000000000000600052602160045260246000fd5b8152602001600081525090565b5080546000825590600052602060002090810190612cc89190612d96565b50565b828054612cd790613eed565b90600052602060002090601f016020900481019282612cf95760008555612d40565b82601f10612d1257805160ff1916838001178555612d40565b82800160010185558215612d40579182015b82811115612d3f578251825591602001919060010190612d24565b5b509050612d4d9190612d96565b5090565b6040518060a001604052806000815260200160008152602001600073ffffffffffffffffffffffffffffffffffffffff16815260200160008152602001606081525090565b5b80821115612daf576000816000905550600101612d97565b5090565b6000612dc6612dc184613c01565b613bd0565b9050808382526020820190508260005b85811015612e065781518501612dec8882612ff2565b845260208401935060208301925050600181019050612dd6565b5050509392505050565b6000612e23612e1e84613c2d565b613bd0565b905082815260208101848484011115612e3b57600080fd5b612e46848285613eab565b509392505050565b6000612e61612e5c84613c2d565b613bd0565b905082815260208101848484011115612e7957600080fd5b612e84848285613eba565b509392505050565b600081359050612e9b81614078565b92915050565b600081519050612eb081614078565b92915050565b60008083601f840112612ec857600080fd5b8235905067ffffffffffffffff811115612ee157600080fd5b602083019150836020820283011115612ef957600080fd5b9250929050565b600082601f830112612f1157600080fd5b8151612f21848260208601612db3565b91505092915050565b600081359050612f398161408f565b92915050565b600081519050612f4e8161408f565b92915050565b60008083601f840112612f6657600080fd5b8235905067ffffffffffffffff811115612f7f57600080fd5b602083019150836001820283011115612f9757600080fd5b9250929050565b600082601f830112612faf57600080fd5b8135612fbf848260208601612e10565b91505092915050565b600082601f830112612fd957600080fd5b8151612fe9848260208601612e4e565b91505092915050565b6000610100828403121561300557600080fd5b613010610100613bd0565b90506000613020848285016130e5565b6000830152506020613034848285016130e5565b6020830152506040613048848285016130e5565b604083015250606061305c84828501612ea1565b606083015250608061307084828501612ea1565b60808301525060a082015167ffffffffffffffff81111561309057600080fd5b61309c84828501612fc8565b60a08301525060c06130b084828501612f3f565b60c08301525060e06130c4848285016130e5565b60e08301525092915050565b6000813590506130df8161409f565b92915050565b6000815190506130f48161409f565b92915050565b60006020828403121561310c57600080fd5b600061311a84828501612e8c565b91505092915050565b6000806020838503121561313657600080fd5b600083013567ffffffffffffffff81111561315057600080fd5b61315c85828601612eb6565b92509250509250929050565b60006020828403121561317a57600080fd5b600082015167ffffffffffffffff81111561319457600080fd5b6131a084828501612f00565b91505092915050565b6000602082840312156131bb57600080fd5b60006131c984828501612f2a565b91505092915050565b6000602082840312156131e457600080fd5b60006131f2848285016130d0565b91505092915050565b6000806040838503121561320e57600080fd5b600061321c858286016130d0565b925050602061322d85828601612e8c565b9150509250929050565b60008060008060006080868803121561324f57600080fd5b600061325d888289016130d0565b955050602061326e888289016130d0565b945050604086013567ffffffffffffffff81111561328b57600080fd5b61329788828901612f54565b935093505060606132aa888289016130d0565b9150509295509295909350565b6000806000606084860312156132cc57600080fd5b60006132da868287016130d0565b93505060206132eb868287016130d0565b925050604084013567ffffffffffffffff81111561330857600080fd5b61331486828701612f9e565b9150509250925092565b600061332a838361335e565b60208301905092915050565b60006133428383613764565b905092915050565b600061335683836138c4565b905092915050565b61336781613e4a565b82525050565b61337681613e4a565b82525050565b600061338782613c8d565b6133918185613ce0565b935061339c83613c5d565b8060005b838110156133cd5781516133b4888261331e565b97506133bf83613cb9565b9250506001810190506133a0565b5085935050505092915050565b60006133e582613c98565b6133ef8185613cf1565b93508360208202850161340185613c6d565b8060005b8581101561343d578484038952815161341e8582613336565b945061342983613cc6565b925060208a01995050600181019050613405565b50829750879550505050505092915050565b600061345a82613ca3565b6134648185613d02565b93508360208202850161347685613c7d565b8060005b858110156134b25784840389528151613493858261334a565b945061349e83613cd3565b925060208a0199505060018101905061347a565b50829750879550505050505092915050565b6134cd81613e99565b82525050565b60006134df8385613d24565b93506134ec838584613eab565b6134f583614053565b840190509392505050565b600061350b82613cae565b6135158185613d13565b9350613525818560208601613eba565b61352e81614053565b840191505092915050565b600061354482613cae565b61354e8185613d24565b935061355e818560208601613eba565b61356781614053565b840191505092915050565b600061357f602283613d24565b91507f4f6e6c79206f776e65722063616e2063616c6c20746869732066756e6374696f60008301527f6e2e0000000000000000000000000000000000000000000000000000000000006020830152604082019050919050565b60006135e5601383613d24565b91507f507269636520697320696e636f72726563742e000000000000000000000000006000830152602082019050919050565b6000613625601283613d24565b91507f4f776e65722063616e2774206170706c792e00000000000000000000000000006000830152602082019050919050565b6000613665601f83613d24565b91507f436f6e7472616374206973206e6f7420696e2076616c69642073746174652e006000830152602082019050919050565b60006136a5602383613d24565b91507f4f6e6c792074656e616e742063616e2063616c6c20746869732066756e63746960008301527f6f6e2e00000000000000000000000000000000000000000000000000000000006020830152604082019050919050565b600061370b603183613d24565b91507f456e6420646174652073686f756c64206265206e756c6c206f72206c6174657260008301527f207468616e20737461727420646174652e0000000000000000000000000000006020830152604082019050919050565b60006101008301600083015161377d600086018261393a565b506020830151613790602086018261393a565b5060408301516137a3604086018261393a565b5060608301516137b6606086018261335e565b5060808301516137c9608086018261335e565b5060a083015184820360a08601526137e18282613500565b91505060c08301516137f660c08601826134c4565b5060e083015161380960e086018261393a565b508091505092915050565b60006101008301600083015161382d600086018261393a565b506020830151613840602086018261393a565b506040830151613853604086018261393a565b506060830151613866606086018261335e565b506080830151613879608086018261335e565b5060a083015184820360a08601526138918282613500565b91505060c08301516138a660c08601826134c4565b5060e08301516138b960e086018261393a565b508091505092915050565b600060a0830160008301516138dc600086018261393a565b5060208301516138ef602086018261393a565b506040830151613902604086018261335e565b506060830151613915606086018261393a565b506080830151848203608086015261392d8282613500565b9150508091505092915050565b61394381613e8f565b82525050565b61395281613e8f565b82525050565b600060208201905061396d600083018461336d565b92915050565b6000602082019050818103600083015261398d818461337c565b905092915050565b600060208201905081810360008301526139af81846133da565b905092915050565b600060208201905081810360008301526139d1818461344f565b905092915050565b600060408201905081810360008301526139f38185613539565b9050613a026020830184613949565b9392505050565b60006020820190508181036000830152613a2281613572565b9050919050565b60006020820190508181036000830152613a42816135d8565b9050919050565b60006020820190508181036000830152613a6281613618565b9050919050565b60006020820190508181036000830152613a8281613658565b9050919050565b60006020820190508181036000830152613aa281613698565b9050919050565b60006020820190508181036000830152613ac2816136fe565b9050919050565b60006020820190508181036000830152613ae38184613814565b905092915050565b6000602082019050613b006000830184613949565b92915050565b6000608082019050613b1b6000830188613949565b613b286020830187613949565b8181036040830152613b3b8185876134d3565b9050613b4a6060830184613949565b9695505050505050565b60008083356001602003843603038112613b6d57600080fd5b80840192508235915067ffffffffffffffff821115613b8b57600080fd5b602083019250600182023603831315613ba357600080fd5b509250929050565b60008235600161010003833603038112613bc457600080fd5b80830191505092915050565b6000604051905081810181811067ffffffffffffffff82111715613bf757613bf6614024565b5b8060405250919050565b600067ffffffffffffffff821115613c1c57613c1b614024565b5b602082029050602081019050919050565b600067ffffffffffffffff821115613c4857613c47614024565b5b601f19601f8301169050602081019050919050565b6000819050602082019050919050565b6000819050602082019050919050565b6000819050602082019050919050565b600081519050919050565b600081519050919050565b600081519050919050565b600081519050919050565b6000602082019050919050565b6000602082019050919050565b6000602082019050919050565b600082825260208201905092915050565b600082825260208201905092915050565b600082825260208201905092915050565b600082825260208201905092915050565b600082825260208201905092915050565b6000613d4082613e8f565b9150613d4b83613e8f565b9250827fffffffffffffffffffffffffffffffffffffffffffffffffffffffffffffffff03821115613d8057613d7f613f68565b5b828201905092915050565b6000613d9682613e8f565b9150613da183613e8f565b925082613db157613db0613f97565b5b828204905092915050565b6000613dc782613e8f565b9150613dd283613e8f565b9250817fffffffffffffffffffffffffffffffffffffffffffffffffffffffffffffffff0483118215151615613e0b57613e0a613f68565b5b828202905092915050565b6000613e2182613e8f565b9150613e2c83613e8f565b925082821015613e3f57613e3e613f68565b5b828203905092915050565b6000613e5582613e6f565b9050919050565b6000819050613e6a82614064565b919050565b600073ffffffffffffffffffffffffffffffffffffffff82169050919050565b6000819050919050565b6000613ea482613e5c565b9050919050565b82818337600083830152505050565b60005b83811015613ed8578082015181840152602081019050613ebd565b83811115613ee7576000848401525b50505050565b60006002820490506001821680613f0557607f821691505b60208210811415613f1957613f18613ff5565b5b50919050565b6000613f2a82613e8f565b91507fffffffffffffffffffffffffffffffffffffffffffffffffffffffffffffffff821415613f5d57613f5c613f68565b5b600182019050919050565b7f4e487b7100000000000000000000000000000000000000000000000000000000600052601160045260246000fd5b7f4e487b7100000000000000000000000000000000000000000000000000000000600052601260045260246000fd5b7f4e487b7100000000000000000000000000000000000000000000000000000000600052602160045260246000fd5b7f4e487b7100000000000000000000000000000000000000000000000000000000600052602260045260246000fd5b7f4e487b7100000000000000000000000000000000000000000000000000000000600052604160045260246000fd5b6000601f19601f8301169050919050565b6004811061407557614074613fc6565b5b50565b61408181613e4a565b811461408c57600080fd5b50565b6004811061409c57600080fd5b50565b6140a881613e8f565b81146140b357600080fd5b5056fea26469706673582212206695b2f67e688ce8fa8bd56aa9d0e0c1d158234ef30262feda69d9d414d9888164736f6c63430008000033",
  "linkReferences": {},
  "deployedLinkReferences": {}
}