{
  "_format": "hh-sol-artifact-1",
  "contractName": "Score",
  "sourceName": "contracts/Score.sol",
  "abi": [
    {
      "inputs": [],
      "stateMutability": "nonpayable",
      "type": "constructor"
    },
    {
      "anonymous": false,
      "inputs": [
        {
          "indexed": true,
          "internalType": "address",
          "name": "owner",
          "type": "address"
        },
        {
          "indexed": true,
          "internalType": "uint256",
          "name": "score",
          "type": "uint256"
        }
      ],
      "name": "OwnerScoreCalculated",
      "type": "event"
    },
    {
      "anonymous": false,
      "inputs": [
        {
          "indexed": true,
          "internalType": "uint256",
          "name": "id",
          "type": "uint256"
        }
      ],
      "name": "ReviewAdded",
      "type": "event"
    },
    {
      "anonymous": false,
      "inputs": [
        {
          "indexed": true,
          "internalType": "address",
          "name": "tenant",
          "type": "address"
        },
        {
          "indexed": true,
          "internalType": "uint256",
          "name": "score",
          "type": "uint256"
        }
      ],
      "name": "TenantScoreCalculated",
      "type": "event"
    },
    {
      "inputs": [
        {
          "internalType": "uint256",
          "name": "_contractId",
          "type": "uint256"
        },
        {
          "internalType": "uint256",
          "name": "_star",
          "type": "uint256"
        },
        {
          "internalType": "string",
          "name": "_review",
          "type": "string"
        }
      ],
      "name": "addReview",
      "outputs": [],
      "stateMutability": "nonpayable",
      "type": "function"
    },
    {
      "inputs": [
        {
          "internalType": "address",
          "name": "_address",
          "type": "address"
        }
      ],
      "name": "calculateOwnerScore",
      "outputs": [],
      "stateMutability": "nonpayable",
      "type": "function"
    },
    {
      "inputs": [
        {
          "internalType": "address",
          "name": "_address",
          "type": "address"
        }
      ],
      "name": "calculateTenantScore",
      "outputs": [],
      "stateMutability": "nonpayable",
      "type": "function"
    },
    {
      "inputs": [
        {
          "internalType": "uint256",
          "name": "_contractId",
          "type": "uint256"
        }
      ],
      "name": "getReviews",
      "outputs": [
        {
          "components": [
            {
              "internalType": "uint256",
              "name": "reviewId",
              "type": "uint256"
            },
            {
              "internalType": "uint256",
              "name": "contractId",
              "type": "uint256"
            },
            {
              "internalType": "address",
              "name": "tenant",
              "type": "address"
            },
            {
              "internalType": "uint256",
              "name": "star",
              "type": "uint256"
            },
            {
              "internalType": "string",
              "name": "review",
              "type": "string"
            }
          ],
          "internalType": "struct Score.Review[]",
          "name": "",
          "type": "tuple[]"
        }
      ],
      "stateMutability": "view",
      "type": "function"
    },
    {
      "inputs": [
        {
          "internalType": "address",
          "name": "_address",
          "type": "address"
        }
      ],
      "name": "getScore",
      "outputs": [
        {
          "internalType": "uint256",
          "name": "",
          "type": "uint256"
        }
      ],
      "stateMutability": "view",
      "type": "function"
    }
  ],
  "bytecode": "0x6080604052739a4beec145326a757c3ba9e5033faaea1833f145600160006101000a81548173ffffffffffffffffffffffffffffffffffffffff021916908373ffffffffffffffffffffffffffffffffffffffff16021790555034801561006557600080fd5b50600160009054906101000a900473ffffffffffffffffffffffffffffffffffffffff166000806101000a81548173ffffffffffffffffffffffffffffffffffffffff021916908373ffffffffffffffffffffffffffffffffffffffff160217905550611ca9806100d76000396000f3fe608060405234801561001057600080fd5b50600436106100575760003560e01c80632940b8ab1461005c5780633e9e27aa14610078578063830f110b146100945780639d4a2255146100b0578063d47875d0146100e0575b600080fd5b610076600480360381019061007191906114b2565b610110565b005b610092600480360381019061008d9190611545565b610596565b005b6100ae60048036038101906100a991906114b2565b6106f9565b005b6100ca60048036038101906100c5919061151c565b610d30565b6040516100d791906117da565b60405180910390f35b6100fa60048036038101906100f591906114b2565b61101e565b604051610107919061184c565b60405180910390f35b73684367aa423f4c1446d99ae234e172ae1ba2842c73ffffffffffffffffffffffffffffffffffffffff163373ffffffffffffffffffffffffffffffffffffffff1614610192576040517f08c379a00000000000000000000000000000000000000000000000000000000081526004016101899061182c565b60405180910390fd5b600061019d8261101e565b905060008114156101ae576101f490505b60008060009054906101000a900473ffffffffffffffffffffffffffffffffffffffff1673ffffffffffffffffffffffffffffffffffffffff1663f44b9a3c846040518263ffffffff1660e01b815260040161020a91906117bf565b60006040518083038186803b15801561022257600080fd5b505afa158015610236573d6000803e3d6000fd5b505050506040513d6000823e3d601f19601f8201168201806040525081019061025f91906114db565b905060008060005b835181101561043457600260038111156102aa577f4e487b7100000000000000000000000000000000000000000000000000000000600052602160045260246000fd5b8482815181106102e3577f4e487b7100000000000000000000000000000000000000000000000000000000600052603260045260246000fd5b602002602001015160c001516003811115610327577f4e487b7100000000000000000000000000000000000000000000000000000000600052602160045260246000fd5b141561042157838181518110610366577f4e487b7100000000000000000000000000000000000000000000000000000000600052603260045260246000fd5b6020026020010151602001518482815181106103ab577f4e487b7100000000000000000000000000000000000000000000000000000000600052603260045260246000fd5b6020026020010151604001516103c19190611a3b565b826103cc919061195a565b9150838181518110610407577f4e487b7100000000000000000000000000000000000000000000000000000000600052603260045260246000fd5b602002602001015160e001518361041e919061195a565b92505b808061042c90611b1f565b915050610267565b506104746040518060400160405280600681526020017f616d6f756e74000000000000000000000000000000000000000000000000000081525083611067565b6104b36040518060400160405280600881526020017f6475726174696f6e00000000000000000000000000000000000000000000000081525082611067565b6000620f42406001836104c691906119e1565b6104d091906119b0565b662386f26fc100006001856104e591906119e1565b6104ef91906119b0565b866104fa919061195a565b610504919061195a565b905080600260008873ffffffffffffffffffffffffffffffffffffffff1673ffffffffffffffffffffffffffffffffffffffff16815260200190815260200160002081905550808673ffffffffffffffffffffffffffffffffffffffff167f6931b5634ee8348149cfe8bd4e8c5a7521abc5d5b6b66a3a74207c5e7c15e3fc60405160405180910390a3505050505050565b6000600380549050905060036040518060a001604052808381526020018681526020013373ffffffffffffffffffffffffffffffffffffffff168152602001858152602001848152509080600181540180825580915050600190039060005260206000209060050201600090919091909150600082015181600001556020820151816001015560408201518160020160006101000a81548173ffffffffffffffffffffffffffffffffffffffff021916908373ffffffffffffffffffffffffffffffffffffffff16021790555060608201518160030155608082015181600401908051906020019061068992919061112c565b50505060046000858152602001908152602001600020819080600181540180825580915050600190039060005260206000200160009091909190915055837f60a33ab3c4f79a6b8ad4c49fa806493e34622abf5650591a8444c16d2e53585f60405160405180910390a250505050565b73684367aa423f4c1446d99ae234e172ae1ba2842c73ffffffffffffffffffffffffffffffffffffffff163373ffffffffffffffffffffffffffffffffffffffff161461077b576040517f08c379a00000000000000000000000000000000000000000000000000000000081526004016107729061182c565b60405180910390fd5b60006107868261101e565b90506000811415610797576101f490505b60008060009054906101000a900473ffffffffffffffffffffffffffffffffffffffff1673ffffffffffffffffffffffffffffffffffffffff1663f44b9a3c846040518263ffffffff1660e01b81526004016107f391906117bf565b60006040518083038186803b15801561080b57600080fd5b505afa15801561081f573d6000803e3d6000fd5b505050506040513d6000823e3d601f19601f8201168201806040525081019061084891906114db565b905060008060008060005b8551811015610b3f5760026003811115610896577f4e487b7100000000000000000000000000000000000000000000000000000000600052602160045260246000fd5b8682815181106108cf577f4e487b7100000000000000000000000000000000000000000000000000000000600052603260045260246000fd5b602002602001015160c001516003811115610913577f4e487b7100000000000000000000000000000000000000000000000000000000600052602160045260246000fd5b1415610b2c57858181518110610952577f4e487b7100000000000000000000000000000000000000000000000000000000600052603260045260246000fd5b602002602001015160200151868281518110610997577f4e487b7100000000000000000000000000000000000000000000000000000000600052603260045260246000fd5b6020026020010151604001516109ad9190611a3b565b836109b8919061195a565b9250428682815181106109f4577f4e487b7100000000000000000000000000000000000000000000000000000000600052603260045260246000fd5b6020026020010151604001511115610a5957858181518110610a3f577f4e487b7100000000000000000000000000000000000000000000000000000000600052603260045260246000fd5b602002602001015160e0015182610a56919061195a565b91505b6000610aa8878381518110610a97577f4e487b7100000000000000000000000000000000000000000000000000000000600052603260045260246000fd5b602002602001015160000151610d30565b905060005b8151811015610b2957818381518110610aef577f4e487b7100000000000000000000000000000000000000000000000000000000600052603260045260246000fd5b60200260200101516060015186610b06919061195a565b95508680610b1390611b1f565b9750508080610b2190611b1f565b915050610aad565b50505b8080610b3790611b1f565b915050610853565b506000841415610b4e57600193505b60008484610b5c91906119b0565b905060006004821115610b7257600a9050610b81565b6003821115610b8057600590505b5b610bc06040518060400160405280600981526020017f7374617253636f7265000000000000000000000000000000000000000000000081525082611067565b610bff6040518060400160405280600881526020017f6475726174696f6e00000000000000000000000000000000000000000000000081525085611067565b610c3e6040518060400160405280600881526020017f707269636553756d00000000000000000000000000000000000000000000000081525084611067565b6000662386f26fc10000600185610c5591906119e1565b610c5f91906119b0565b620f4240600187610c7091906119e1565b610c7a91906119b0565b838b610c86919061195a565b610c90919061195a565b610c9a919061195a565b905080600260008c73ffffffffffffffffffffffffffffffffffffffff1673ffffffffffffffffffffffffffffffffffffffff16815260200190815260200160002081905550808a73ffffffffffffffffffffffffffffffffffffffff167f4738c587c79f12088a35f74d71a2509e3dc9eb6edf971bccddc14db4cbc83b9b60405160405180910390a350505050505050505050565b6060600060046000848152602001908152602001600020805480602002602001604051908101604052809291908181526020018280548015610d9157602002820191906000526020600020905b815481526020019060010190808311610d7d575b505050505090506000815167ffffffffffffffff811115610ddb577f4e487b7100000000000000000000000000000000000000000000000000000000600052604160045260246000fd5b604051908082528060200260200182016040528015610e1457816020015b610e016111b2565b815260200190600190039081610df95790505b50905060005b8251811015611013576003838281518110610e5e577f4e487b7100000000000000000000000000000000000000000000000000000000600052603260045260246000fd5b602002602001015181548110610e9d577f4e487b7100000000000000000000000000000000000000000000000000000000600052603260045260246000fd5b90600052602060002090600502016040518060a001604052908160008201548152602001600182015481526020016002820160009054906101000a900473ffffffffffffffffffffffffffffffffffffffff1673ffffffffffffffffffffffffffffffffffffffff1673ffffffffffffffffffffffffffffffffffffffff16815260200160038201548152602001600482018054610f3a90611aed565b80601f0160208091040260200160405190810160405280929190818152602001828054610f6690611aed565b8015610fb35780601f10610f8857610100808354040283529160200191610fb3565b820191906000526020600020905b815481529060010190602001808311610f9657829003601f168201915b505050505081525050828281518110610ff5577f4e487b7100000000000000000000000000000000000000000000000000000000600052603260045260246000fd5b6020026020010181905250808061100b90611b1f565b915050610e1a565b508092505050919050565b6000600260008373ffffffffffffffffffffffffffffffffffffffff1673ffffffffffffffffffffffffffffffffffffffff168152602001908152602001600020549050919050565b6110ff828260405160240161107d9291906117fc565b6040516020818303038152906040527f9710a9d0000000000000000000000000000000000000000000000000000000007bffffffffffffffffffffffffffffffffffffffffffffffffffffffff19166020820180517bffffffffffffffffffffffffffffffffffffffffffffffffffffffff8381831617835250505050611103565b5050565b60008151905060006a636f6e736f6c652e6c6f679050602083016000808483855afa5050505050565b82805461113890611aed565b90600052602060002090601f01602090048101928261115a57600085556111a1565b82601f1061117357805160ff19168380011785556111a1565b828001600101855582156111a1579182015b828111156111a0578251825591602001919060010190611185565b5b5090506111ae91906111f7565b5090565b6040518060a001604052806000815260200160008152602001600073ffffffffffffffffffffffffffffffffffffffff16815260200160008152602001606081525090565b5b808211156112105760008160009055506001016111f8565b5090565b600061122761122284611898565b611867565b9050808382526020820190508260005b85811015611267578151850161124d88826113aa565b845260208401935060208301925050600181019050611237565b5050509392505050565b600061128461127f846118c4565b611867565b90508281526020810184848401111561129c57600080fd5b6112a7848285611aab565b509392505050565b60006112c26112bd846118c4565b611867565b9050828152602081018484840111156112da57600080fd5b6112e5848285611aba565b509392505050565b6000813590506112fc81611c35565b92915050565b60008151905061131181611c35565b92915050565b600082601f83011261132857600080fd5b8151611338848260208601611214565b91505092915050565b60008151905061135081611c4c565b92915050565b600082601f83011261136757600080fd5b8135611377848260208601611271565b91505092915050565b600082601f83011261139157600080fd5b81516113a18482602086016112af565b91505092915050565b600061010082840312156113bd57600080fd5b6113c8610100611867565b905060006113d88482850161149d565b60008301525060206113ec8482850161149d565b60208301525060406114008482850161149d565b604083015250606061141484828501611302565b606083015250608061142884828501611302565b60808301525060a082015167ffffffffffffffff81111561144857600080fd5b61145484828501611380565b60a08301525060c061146884828501611341565b60c08301525060e061147c8482850161149d565b60e08301525092915050565b60008135905061149781611c5c565b92915050565b6000815190506114ac81611c5c565b92915050565b6000602082840312156114c457600080fd5b60006114d2848285016112ed565b91505092915050565b6000602082840312156114ed57600080fd5b600082015167ffffffffffffffff81111561150757600080fd5b61151384828501611317565b91505092915050565b60006020828403121561152e57600080fd5b600061153c84828501611488565b91505092915050565b60008060006060848603121561155a57600080fd5b600061156886828701611488565b935050602061157986828701611488565b925050604084013567ffffffffffffffff81111561159657600080fd5b6115a286828701611356565b9150509250925092565b60006115b8838361172b565b905092915050565b6115c981611a6f565b82525050565b6115d881611a6f565b82525050565b60006115e982611904565b6115f38185611927565b935083602082028501611605856118f4565b8060005b85811015611641578484038952815161162285826115ac565b945061162d8361191a565b925060208a01995050600181019050611609565b50829750879550505050505092915050565b600061165e8261190f565b6116688185611938565b9350611678818560208601611aba565b61168181611c24565b840191505092915050565b60006116978261190f565b6116a18185611949565b93506116b1818560208601611aba565b6116ba81611c24565b840191505092915050565b60006116d2602783611949565b91507f4f6e6c792061646d696e20757365722063616e2063616c6c207468697320667560008301527f6e6374696f6e2e000000000000000000000000000000000000000000000000006020830152604082019050919050565b600060a08301600083015161174360008601826117a1565b50602083015161175660208601826117a1565b50604083015161176960408601826115c0565b50606083015161177c60608601826117a1565b50608083015184820360808601526117948282611653565b9150508091505092915050565b6117aa81611aa1565b82525050565b6117b981611aa1565b82525050565b60006020820190506117d460008301846115cf565b92915050565b600060208201905081810360008301526117f481846115de565b905092915050565b60006040820190508181036000830152611816818561168c565b905061182560208301846117b0565b9392505050565b60006020820190508181036000830152611845816116c5565b9050919050565b600060208201905061186160008301846117b0565b92915050565b6000604051905081810181811067ffffffffffffffff8211171561188e5761188d611bf5565b5b8060405250919050565b600067ffffffffffffffff8211156118b3576118b2611bf5565b5b602082029050602081019050919050565b600067ffffffffffffffff8211156118df576118de611bf5565b5b601f19601f8301169050602081019050919050565b6000819050602082019050919050565b600081519050919050565b600081519050919050565b6000602082019050919050565b600082825260208201905092915050565b600082825260208201905092915050565b600082825260208201905092915050565b600061196582611aa1565b915061197083611aa1565b9250827fffffffffffffffffffffffffffffffffffffffffffffffffffffffffffffffff038211156119a5576119a4611b68565b5b828201905092915050565b60006119bb82611aa1565b91506119c683611aa1565b9250826119d6576119d5611b97565b5b828204905092915050565b60006119ec82611aa1565b91506119f783611aa1565b9250817fffffffffffffffffffffffffffffffffffffffffffffffffffffffffffffffff0483118215151615611a3057611a2f611b68565b5b828202905092915050565b6000611a4682611aa1565b9150611a5183611aa1565b925082821015611a6457611a63611b68565b5b828203905092915050565b6000611a7a82611a81565b9050919050565b600073ffffffffffffffffffffffffffffffffffffffff82169050919050565b6000819050919050565b82818337600083830152505050565b60005b83811015611ad8578082015181840152602081019050611abd565b83811115611ae7576000848401525b50505050565b60006002820490506001821680611b0557607f821691505b60208210811415611b1957611b18611bc6565b5b50919050565b6000611b2a82611aa1565b91507fffffffffffffffffffffffffffffffffffffffffffffffffffffffffffffffff821415611b5d57611b5c611b68565b5b600182019050919050565b7f4e487b7100000000000000000000000000000000000000000000000000000000600052601160045260246000fd5b7f4e487b7100000000000000000000000000000000000000000000000000000000600052601260045260246000fd5b7f4e487b7100000000000000000000000000000000000000000000000000000000600052602260045260246000fd5b7f4e487b7100000000000000000000000000000000000000000000000000000000600052604160045260246000fd5b6000601f19601f8301169050919050565b611c3e81611a6f565b8114611c4957600080fd5b50565b60048110611c5957600080fd5b50565b611c6581611aa1565b8114611c7057600080fd5b5056fea26469706673582212205497f7b4072b17cc42d709b60288902b600ced9eeb70e623282ad1fd171ca26164736f6c63430008000033",
  "linkReferences": {},
  "deployedLinkReferences": {}
}