{
  "_format": "hh-sol-artifact-1",
  "contractName": "Score",
  "sourceName": "contracts/Score.sol",
  "abi": [
    {
      "inputs": [],
      "stateMutability": "nonpayable",
      "type": "constructor"
    },
    {
      "inputs": [
        {
          "internalType": "uint256",
          "name": "_contractId",
          "type": "uint256"
        },
        {
          "internalType": "uint256",
          "name": "_star",
          "type": "uint256"
        },
        {
          "internalType": "string",
          "name": "_review",
          "type": "string"
        }
      ],
      "name": "addReview",
      "outputs": [],
      "stateMutability": "nonpayable",
      "type": "function"
    },
    {
      "inputs": [
        {
          "internalType": "address",
          "name": "_address",
          "type": "address"
        }
      ],
      "name": "calculateOwnerScore",
      "outputs": [
        {
          "internalType": "uint256",
          "name": "",
          "type": "uint256"
        }
      ],
      "stateMutability": "nonpayable",
      "type": "function"
    },
    {
      "inputs": [
        {
          "internalType": "address",
          "name": "_address",
          "type": "address"
        }
      ],
      "name": "calculateTenantScore",
      "outputs": [
        {
          "internalType": "uint256",
          "name": "",
          "type": "uint256"
        }
      ],
      "stateMutability": "nonpayable",
      "type": "function"
    },
    {
      "inputs": [
        {
          "internalType": "uint256",
          "name": "_contractId",
          "type": "uint256"
        }
      ],
      "name": "getReviews",
      "outputs": [
        {
          "components": [
            {
              "internalType": "uint256",
              "name": "reviewId",
              "type": "uint256"
            },
            {
              "internalType": "uint256",
              "name": "contractId",
              "type": "uint256"
            },
            {
              "internalType": "address",
              "name": "tenant",
              "type": "address"
            },
            {
              "internalType": "uint256",
              "name": "star",
              "type": "uint256"
            },
            {
              "internalType": "string",
              "name": "review",
              "type": "string"
            }
          ],
          "internalType": "struct Score.Review[]",
          "name": "",
          "type": "tuple[]"
        }
      ],
      "stateMutability": "view",
      "type": "function"
    },
    {
      "inputs": [
        {
          "internalType": "address",
          "name": "_address",
          "type": "address"
        }
      ],
      "name": "getScore",
      "outputs": [
        {
          "internalType": "uint256",
          "name": "",
          "type": "uint256"
        }
      ],
      "stateMutability": "view",
      "type": "function"
    }
  ],
  "bytecode": "0x608060405273f6395b9f0b5f6ba3e58e69e316b9251e3ac601a8600160006101000a81548173ffffffffffffffffffffffffffffffffffffffff021916908373ffffffffffffffffffffffffffffffffffffffff16021790555034801561006557600080fd5b50600160009054906101000a900473ffffffffffffffffffffffffffffffffffffffff166000806101000a81548173ffffffffffffffffffffffffffffffffffffffff021916908373ffffffffffffffffffffffffffffffffffffffff160217905550611ba2806100d76000396000f3fe608060405234801561001057600080fd5b50600436106100575760003560e01c80632940b8ab1461005c5780633e9e27aa1461008c578063830f110b146100a85780639d4a2255146100d8578063d47875d014610108575b600080fd5b610076600480360381019061007191906113ab565b610138565b6040516100839190611745565b60405180910390f35b6100a660048036038101906100a1919061143e565b6105e2565b005b6100c260048036038101906100bd91906113ab565b610718565b6040516100cf9190611745565b60405180910390f35b6100f260048036038101906100ed9190611415565b610c29565b6040516100ff91906116d3565b60405180910390f35b610122600480360381019061011d91906113ab565b610f17565b60405161012f9190611745565b60405180910390f35b600073684367aa423f4c1446d99ae234e172ae1ba2842c73ffffffffffffffffffffffffffffffffffffffff163373ffffffffffffffffffffffffffffffffffffffff16146101bc576040517f08c379a00000000000000000000000000000000000000000000000000000000081526004016101b390611725565b60405180910390fd5b60006101f46101ca84610f17565b17905061020c6040518060400160405280600581526020017f73636f726500000000000000000000000000000000000000000000000000000081525082610f60565b60008060009054906101000a900473ffffffffffffffffffffffffffffffffffffffff1673ffffffffffffffffffffffffffffffffffffffff1663f44b9a3c856040518263ffffffff1660e01b815260040161026891906116b8565b60006040518083038186803b15801561028057600080fd5b505afa158015610294573d6000803e3d6000fd5b505050506040513d6000823e3d601f19601f820116820180604052508101906102bd91906113d4565b905060008060005b835181101561049257838181518110610307577f4e487b7100000000000000000000000000000000000000000000000000000000600052603260045260246000fd5b60200260200101516020015184828151811061034c577f4e487b7100000000000000000000000000000000000000000000000000000000600052603260045260246000fd5b6020026020010151604001516103629190611934565b8261036d9190611853565b9150600060038111156103a9577f4e487b7100000000000000000000000000000000000000000000000000000000600052602160045260246000fd5b8482815181106103e2577f4e487b7100000000000000000000000000000000000000000000000000000000600052603260045260246000fd5b602002602001015160c001516003811115610426577f4e487b7100000000000000000000000000000000000000000000000000000000600052602160045260246000fd5b141561047f57838181518110610465577f4e487b7100000000000000000000000000000000000000000000000000000000600052603260045260246000fd5b602002602001015160e001518361047c9190611853565b92505b808061048a90611a18565b9150506102c5565b506104d26040518060400160405280600681526020017f616d6f756e74000000000000000000000000000000000000000000000000000081525083610f60565b6105116040518060400160405280600881526020017f6475726174696f6e00000000000000000000000000000000000000000000000081525082610f60565b6000620f424060018361052491906118da565b61052e91906118a9565b600a8461053b91906118da565b866105469190611853565b6105509190611853565b90506105916040518060400160405280600681526020017f726573756c74000000000000000000000000000000000000000000000000000081525082610f60565b80600260008973ffffffffffffffffffffffffffffffffffffffff1673ffffffffffffffffffffffffffffffffffffffff168152602001908152602001600020819055508095505050505050919050565b6000600380549050905060036040518060a001604052808381526020018681526020013373ffffffffffffffffffffffffffffffffffffffff168152602001858152602001848152509080600181540180825580915050600190039060005260206000209060050201600090919091909150600082015181600001556020820151816001015560408201518160020160006101000a81548173ffffffffffffffffffffffffffffffffffffffff021916908373ffffffffffffffffffffffffffffffffffffffff1602179055506060820151816003015560808201518160040190805190602001906106d5929190611025565b5050506004600085815260200190815260200160002081908060018154018082558091505060019003906000526020600020016000909190919091505550505050565b600073684367aa423f4c1446d99ae234e172ae1ba2842c73ffffffffffffffffffffffffffffffffffffffff163373ffffffffffffffffffffffffffffffffffffffff161461079c576040517f08c379a000000000000000000000000000000000000000000000000000000000815260040161079390611725565b60405180910390fd5b60006101f46107aa84610f17565b17905060008060009054906101000a900473ffffffffffffffffffffffffffffffffffffffff1673ffffffffffffffffffffffffffffffffffffffff1663f44b9a3c856040518263ffffffff1660e01b815260040161080991906116b8565b60006040518083038186803b15801561082157600080fd5b505afa158015610835573d6000803e3d6000fd5b505050506040513d6000823e3d601f19601f8201168201806040525081019061085e91906113d4565b905060008060008060005b8551811015610a975760006108c18783815181106108b0577f4e487b7100000000000000000000000000000000000000000000000000000000600052603260045260246000fd5b602002602001015160000151610c29565b90508682815181106108fc577f4e487b7100000000000000000000000000000000000000000000000000000000600052603260045260246000fd5b602002602001015160200151878381518110610941577f4e487b7100000000000000000000000000000000000000000000000000000000600052603260045260246000fd5b6020026020010151604001516109579190611934565b846109629190611853565b93504287838151811061099e577f4e487b7100000000000000000000000000000000000000000000000000000000600052603260045260246000fd5b6020026020010151604001511115610a03578682815181106109e9577f4e487b7100000000000000000000000000000000000000000000000000000000600052603260045260246000fd5b602002602001015160e0015183610a009190611853565b92505b60005b8151811015610a8257818381518110610a48577f4e487b7100000000000000000000000000000000000000000000000000000000600052603260045260246000fd5b60200260200101516060015186610a5f9190611853565b95508680610a6c90611a18565b9750508080610a7a90611a18565b915050610a06565b50508080610a8f90611a18565b915050610869565b5060008484610aa691906118a9565b905060006004821115610abc57600a9050610acb565b6003821115610aca57600590505b5b610b0a6040518060400160405280600981526020017f7374617253636f7265000000000000000000000000000000000000000000000081525082610f60565b610b496040518060400160405280600881526020017f6475726174696f6e00000000000000000000000000000000000000000000000081525085610f60565b610b886040518060400160405280600881526020017f707269636553756d00000000000000000000000000000000000000000000000081525084610f60565b6000600a84610b9791906118da565b620f4240600187610ba891906118da565b610bb291906118a9565b838b610bbe9190611853565b610bc89190611853565b610bd29190611853565b905080600260008d73ffffffffffffffffffffffffffffffffffffffff1673ffffffffffffffffffffffffffffffffffffffff16815260200190815260200160002081905550809950505050505050505050919050565b6060600060046000848152602001908152602001600020805480602002602001604051908101604052809291908181526020018280548015610c8a57602002820191906000526020600020905b815481526020019060010190808311610c76575b505050505090506000815167ffffffffffffffff811115610cd4577f4e487b7100000000000000000000000000000000000000000000000000000000600052604160045260246000fd5b604051908082528060200260200182016040528015610d0d57816020015b610cfa6110ab565b815260200190600190039081610cf25790505b50905060005b8251811015610f0c576003838281518110610d57577f4e487b7100000000000000000000000000000000000000000000000000000000600052603260045260246000fd5b602002602001015181548110610d96577f4e487b7100000000000000000000000000000000000000000000000000000000600052603260045260246000fd5b90600052602060002090600502016040518060a001604052908160008201548152602001600182015481526020016002820160009054906101000a900473ffffffffffffffffffffffffffffffffffffffff1673ffffffffffffffffffffffffffffffffffffffff1673ffffffffffffffffffffffffffffffffffffffff16815260200160038201548152602001600482018054610e33906119e6565b80601f0160208091040260200160405190810160405280929190818152602001828054610e5f906119e6565b8015610eac5780601f10610e8157610100808354040283529160200191610eac565b820191906000526020600020905b815481529060010190602001808311610e8f57829003601f168201915b505050505081525050828281518110610eee577f4e487b7100000000000000000000000000000000000000000000000000000000600052603260045260246000fd5b60200260200101819052508080610f0490611a18565b915050610d13565b508092505050919050565b6000600260008373ffffffffffffffffffffffffffffffffffffffff1673ffffffffffffffffffffffffffffffffffffffff168152602001908152602001600020549050919050565b610ff88282604051602401610f769291906116f5565b6040516020818303038152906040527f9710a9d0000000000000000000000000000000000000000000000000000000007bffffffffffffffffffffffffffffffffffffffffffffffffffffffff19166020820180517bffffffffffffffffffffffffffffffffffffffffffffffffffffffff8381831617835250505050610ffc565b5050565b60008151905060006a636f6e736f6c652e6c6f679050602083016000808483855afa5050505050565b828054611031906119e6565b90600052602060002090601f016020900481019282611053576000855561109a565b82601f1061106c57805160ff191683800117855561109a565b8280016001018555821561109a579182015b8281111561109957825182559160200191906001019061107e565b5b5090506110a791906110f0565b5090565b6040518060a001604052806000815260200160008152602001600073ffffffffffffffffffffffffffffffffffffffff16815260200160008152602001606081525090565b5b808211156111095760008160009055506001016110f1565b5090565b600061112061111b84611791565b611760565b9050808382526020820190508260005b85811015611160578151850161114688826112a3565b845260208401935060208301925050600181019050611130565b5050509392505050565b600061117d611178846117bd565b611760565b90508281526020810184848401111561119557600080fd5b6111a08482856119a4565b509392505050565b60006111bb6111b6846117bd565b611760565b9050828152602081018484840111156111d357600080fd5b6111de8482856119b3565b509392505050565b6000813590506111f581611b2e565b92915050565b60008151905061120a81611b2e565b92915050565b600082601f83011261122157600080fd5b815161123184826020860161110d565b91505092915050565b60008151905061124981611b45565b92915050565b600082601f83011261126057600080fd5b813561127084826020860161116a565b91505092915050565b600082601f83011261128a57600080fd5b815161129a8482602086016111a8565b91505092915050565b600061010082840312156112b657600080fd5b6112c1610100611760565b905060006112d184828501611396565b60008301525060206112e584828501611396565b60208301525060406112f984828501611396565b604083015250606061130d848285016111fb565b6060830152506080611321848285016111fb565b60808301525060a082015167ffffffffffffffff81111561134157600080fd5b61134d84828501611279565b60a08301525060c06113618482850161123a565b60c08301525060e061137584828501611396565b60e08301525092915050565b60008135905061139081611b55565b92915050565b6000815190506113a581611b55565b92915050565b6000602082840312156113bd57600080fd5b60006113cb848285016111e6565b91505092915050565b6000602082840312156113e657600080fd5b600082015167ffffffffffffffff81111561140057600080fd5b61140c84828501611210565b91505092915050565b60006020828403121561142757600080fd5b600061143584828501611381565b91505092915050565b60008060006060848603121561145357600080fd5b600061146186828701611381565b935050602061147286828701611381565b925050604084013567ffffffffffffffff81111561148f57600080fd5b61149b8682870161124f565b9150509250925092565b60006114b18383611624565b905092915050565b6114c281611968565b82525050565b6114d181611968565b82525050565b60006114e2826117fd565b6114ec8185611820565b9350836020820285016114fe856117ed565b8060005b8581101561153a578484038952815161151b85826114a5565b945061152683611813565b925060208a01995050600181019050611502565b50829750879550505050505092915050565b600061155782611808565b6115618185611831565b93506115718185602086016119b3565b61157a81611b1d565b840191505092915050565b600061159082611808565b61159a8185611842565b93506115aa8185602086016119b3565b6115b381611b1d565b840191505092915050565b60006115cb602783611842565b91507f4f6e6c792061646d696e20757365722063616e2063616c6c207468697320667560008301527f6e6374696f6e2e000000000000000000000000000000000000000000000000006020830152604082019050919050565b600060a08301600083015161163c600086018261169a565b50602083015161164f602086018261169a565b50604083015161166260408601826114b9565b506060830151611675606086018261169a565b506080830151848203608086015261168d828261154c565b9150508091505092915050565b6116a38161199a565b82525050565b6116b28161199a565b82525050565b60006020820190506116cd60008301846114c8565b92915050565b600060208201905081810360008301526116ed81846114d7565b905092915050565b6000604082019050818103600083015261170f8185611585565b905061171e60208301846116a9565b9392505050565b6000602082019050818103600083015261173e816115be565b9050919050565b600060208201905061175a60008301846116a9565b92915050565b6000604051905081810181811067ffffffffffffffff8211171561178757611786611aee565b5b8060405250919050565b600067ffffffffffffffff8211156117ac576117ab611aee565b5b602082029050602081019050919050565b600067ffffffffffffffff8211156117d8576117d7611aee565b5b601f19601f8301169050602081019050919050565b6000819050602082019050919050565b600081519050919050565b600081519050919050565b6000602082019050919050565b600082825260208201905092915050565b600082825260208201905092915050565b600082825260208201905092915050565b600061185e8261199a565b91506118698361199a565b9250827fffffffffffffffffffffffffffffffffffffffffffffffffffffffffffffffff0382111561189e5761189d611a61565b5b828201905092915050565b60006118b48261199a565b91506118bf8361199a565b9250826118cf576118ce611a90565b5b828204905092915050565b60006118e58261199a565b91506118f08361199a565b9250817fffffffffffffffffffffffffffffffffffffffffffffffffffffffffffffffff048311821515161561192957611928611a61565b5b828202905092915050565b600061193f8261199a565b915061194a8361199a565b92508282101561195d5761195c611a61565b5b828203905092915050565b60006119738261197a565b9050919050565b600073ffffffffffffffffffffffffffffffffffffffff82169050919050565b6000819050919050565b82818337600083830152505050565b60005b838110156119d15780820151818401526020810190506119b6565b838111156119e0576000848401525b50505050565b600060028204905060018216806119fe57607f821691505b60208210811415611a1257611a11611abf565b5b50919050565b6000611a238261199a565b91507fffffffffffffffffffffffffffffffffffffffffffffffffffffffffffffffff821415611a5657611a55611a61565b5b600182019050919050565b7f4e487b7100000000000000000000000000000000000000000000000000000000600052601160045260246000fd5b7f4e487b7100000000000000000000000000000000000000000000000000000000600052601260045260246000fd5b7f4e487b7100000000000000000000000000000000000000000000000000000000600052602260045260246000fd5b7f4e487b7100000000000000000000000000000000000000000000000000000000600052604160045260246000fd5b6000601f19601f8301169050919050565b611b3781611968565b8114611b4257600080fd5b50565b60048110611b5257600080fd5b50565b611b5e8161199a565b8114611b6957600080fd5b5056fea2646970667358221220ddb1e58cfa333b704d397a888c26c8b81a8f794738954a4460451d3c55aeefdb64736f6c63430008000033",
  "linkReferences": {},
  "deployedLinkReferences": {}
}